:020000040800F2
:10000000881600201D2800084D2900084F290008E7
:1000100053290008572900085B2900080000000048
:100020000000000000000000000000005F29000840
:100030006129000800000000632900086529000804
:100040003728000837280008372800083728000814
:100050003728000837280008372800083728000804
:1000600037280008372800083728000837280008F4
:1000700037280008372800083728000837280008E4
:1000800037280008372800083728000837280008D4
:1000900037280008372800083728000837280008C4
:1000A00037280008372800083728000837280008B4
:1000B00037280008ED2D00083728000837280008E9
:1000C0003728000837280008372800083728000894
:1000D000372800083728000837280008692F00084B
:1000E00037280008372800083728000800F002F8F1
:1000F00000F0B4F80AA090E8000C82448344AAF10E
:100100000107DA4501D100F0A9F8AFF2090EBAE80B
:100110000F0013F0010F18BFFB1A43F0010318473B
:100120009C450000BC45000010F8013B0A4413F058
:10013000030408BF10F8014B1D1108BF10F8015B44
:10014000641E05D010F8016B641E01F8016BF9D133
:10015000002D15D010F8014B03F00C030C2BA1EB74
:1001600004040ABF10F8013BA4EB8314A4EB03249E
:1001700005F1010314F8016B5B1E01F8016BF9D561
:10018000914238BF10F8013BD1D3704700230024BF
:1001900000250026103A28BF78C1FBD8520728BF97
:1001A00030C148BF0B6070476E2902F0C3877029C9
:1001B00003F00D81662904F01382652904F0108292
:1001C000672904F00D826129AFF3008003681B0AE0
:1001D00028BF41F08001692902F07087642902F08C
:1001E0006D87752902F06A876F2903F09A80782954
:1001F00003F0D980E92903F03580E42903F0328047
:10020000F52903F02F80EF2903F09780F82903F0F8
:10021000D8800368DB0928BF41F08001632903F01F
:100220005C84732903F06184E32903F06C84F3296F
:1002300003F07184002070471FB503F0BDFC04007B
:100240000020002104F0B6F9401C6060002000216D
:1002500004F09AF9E0601FBD10B510BD03F07FFCFB
:100260001146FFF7E9FF02F0F9FA03F05BFD03B472
:10027000FFF7F2FF03BC02F0EFFD00000CB5002019
:10028000019000906C48006840F480306A49086032
:1002900000BF6948006800F4003000900198401CDD
:1002A0000190009818B90198B0F5A06FF1D162489B
:1002B000006800F4003010B10120009001E000203F
:1002C00000900098012843D15C48006840F010007D
:1002D0005A4908600846006820F003000860084694
:1002E000006840F002000860534840685249486086
:1002F0000846406848600846406840F480604860AE
:100300000846406820F47C1048600846406840F485
:10031000E81048600846006840F08070086000BF40
:100320004548006800F000700028F9D04248406855
:1003300020F00300404948600846406840F0020051
:10034000486000BF3C48406800F00C000828F9D124
:100350000CBD10B5FFF792FF10BD10B53648006810
:1003600040F00100344908600846406834490840BC
:100370003149486008460068324908402E49086003
:100380000846006820F4802008600846406820F491
:10039000FE0048604FF41F008860FFF7DAFF4FF05F
:1003A00000602949086010BD10B50021002000221E
:1003B000214B5B6803F00C0121B1042906D0082908
:1003C00028D107E0214B224C236027E01F4B204C13
:1003D000236023E0184B5B6803F47010164B5B68D6
:1003E00003F48032022303EB904022B9194B4343BC
:1003F000174C23600DE0104B5B6803F4003323B10E
:10040000144B4343124C236003E0104B4343104C06
:10041000236003E00D4B0E4C236000BF00BF064B72
:100420005B68C3F303130C4CE15C094B1B68CB40C6
:10043000074C236010BD0000001002400020024065
:100440000000FFF8FFFFF6FE08ED00E000127A0062
:100450000000002000093D00040000203149014354
:10046000314A1160704770B5002100230F22C47813
:1004700004B32D4C246804F4E064C4F5E064210A5C
:10048000C1F10403CA40447804FA03F184781440AB
:1004900021430901254C0678A155047804F01F0575
:1004A0000124AC4005786D11AD0005F1E025C5F8DB
:1004B000004109E0047804F01F050124AC401C4D04
:1004C0000678761145F8264070BD1A4A0A40024364
:1004D000154B1B1F1A60704739B1134A121D126861
:1004E0000243114B1B1D1A6006E00F4A121D1268D1
:1004F00082430D4B1B1D1A607047042808D14FF032
:10050000E021096941F004014FF0E022116107E0A8
:100510004FF0E021096921F004014FF0E022116160
:10052000704700000000FA050CED00E000E400E078
:1005300080E100E080FFFF1F10B50446CC488442F4
:1005400008D10121042000F02DFB0021042000F03F
:1005500029FB46E0C748844208D10121082000F069
:1005600021FB0021082000F01DFB3AE0C248844234
:1005700008D10121102000F015FB0021102000F00F
:1005800011FB2EE0BD48844208D10121202000F05B
:1005900009FB0021202000F005FB22E0B84884423E
:1005A00008D10121402000F0FDFA0021402000F098
:1005B000F9FA16E0B348844208D10121802000F006
:1005C000F1FA0021802000F0EDFA0AE0AE48844202
:1005D00007D10121801500F0E5FA0021A01500F0F7
:1005E000E1FA10BD10B50121084600F0DBFA002148
:1005F000012000F0D7FA10BD2DE9F0410246002598
:100600000026002000230024002791F803C00CF0EE
:100610000F0591F803C00CF0100CBCF1000F03D0D3
:1006200091F802C04CEA050591F800C0BCF1000F3A
:1006300031D0146800202BE04FF0010C0CFA00F3CD
:10064000B1F800C00CEA03069E4220D183004FF0AF
:100650000F0C0CFA03F7BC4305FA03FC4CEA040444
:1006600091F803C0BCF1280F06D14FF0010C0CFA31
:1006700000FCC2F814C00AE091F803C0BCF1480FB6
:1006800005D14FF0010C0CFA00FCC2F810C0401C60
:100690000828D1D31460B1F800C0BCF1FF0F34DDDD
:1006A000546800202EE000F1080C4FF0010808FA11
:1006B0000CF3B1F800C00CEA03069E4221D183007E
:1006C0004FF00F0C0CFA03F7BC4305FA03FC4CEA9D
:1006D000040491F803C0BCF1280F05D100F1080C07
:1006E00008FA0CF8C2F8148091F803C0BCF1480F66
:1006F00007D100F1080C4FF0010808FA0CF8C2F815
:100700001080401C0828CED35460BDE8F0814FF61D
:10071000FF710180022181700421C170704702467F
:10072000002093680B400BB1012000E000207047CF
:100730000146886880B2704702460020D3680B40AB
:100740000BB1012000E0002070470146C86880B26C
:10075000704701617047416170470AB1016100E073
:1007600041617047C16070474FF480320A43826133
:100770008161826182698269704702460020434B31
:1007800018684FF68073184040EA021008433F4B48
:10079000186070473E49C8617047F0B50A460023AB
:1007A00000240021002500F00046B6F1004F02D1E0
:1007B000364EF16901E0354E7168C0F3034583B2EE
:1007C00000F44016B6F5401F08D121F070612F4E9D
:1007D000766826F070662D4F7E6012E000F4801679
:1007E000B6F5801F06D1032606FA05F4A14341F0B1
:1007F000706106E0460D360103FA06F6B14341F09A
:10080000706122B1460D360103FA06F6314300F05D
:100810000046B6F1004F02D11C4EF16101E01B4EC3
:100820007160F0BD30B500228B071C0F0F2303FA57
:1008300004F2164B08338C1053F824309343134CB6
:1008400008348D1044F8253023468C1053F824309A
:100850008C07240F00FA04F423430C4C08348D1049
:1008600044F8253030BD0A49DC310860704700008B
:1008700000080140000C014000100140001401403C
:1008800000180140001C0140002001400000014010
:1008900000002042DF48006840F00100DD490860A8
:1008A00008464068DC490840DA4948600846006864
:1008B000DA490840D74908600846006820F48020DB
:1008C00008600846406820F4FE0048604FF41F00AE
:1008D00088607047CF49096821F48031CD4A1160A2
:1008E0001146096821F480211160B0F5803F03D0E2
:1008F000B0F5802F0ED106E0C649096841F4803179
:10090000C44A116007E0C349096841F4A021C14A03
:10091000116000E000BF00BF704710B50146002223
:10092000002300204A11012A02D1BA4C236806E0B4
:10093000022A02D1B74C236A01E0B64C636A01F087
:100940001F02012494401C400CB1012000E0002053
:1009500010BD38B5002000900024002500BF3120D4
:10096000FFF7DBFF05460098401C00900098B0F5AB
:10097000A06F01D0002DF2D03120FFF7CEFF08B1DB
:10098000012400E00024204638BD01460020A14A91
:10099000106820F0F80040EAC10010607047A049DC
:1009A00008607047024600209A4B586820F47C107B
:1009B00042EA01031843974B58607047984908660C
:1009C000704701460020934A506820F00300084316
:1009D000506070478F48406800F00C007047014637
:1009E00000208C4A506820F0F000084350607047A7
:1009F00001460020874A506820F4E06008435060B8
:100A0000704701460020834A506820F4605040EA55
:100A1000C1005060704729B17E4A527A02437D4B33
:100A20005A7204E07B4A527A82437A4B5A72704778
:100A30007B49D8310860704701460020754A5068EC
:100A400020F440400843506070470021714A203232
:100A50001170704A82F82010012802D004280AD1AF
:100A600004E001216B4A2032117005E00521694A3A
:100A70002032117000E000BF00BF70476949086074
:100A800070476449096A0143624A116270476549C7
:100A900044390860704730B500210022002400234B
:100AA0005C4D6D6805F00C0121B1042905D00829C1
:100AB00023D105E05C4D056022E05B4D05601FE041
:100AC000544D6D6805F47012524D6D6805F4803414
:100AD000022505EB92421CB9544D554305600BE0CD
:100AE0004C4D6D6805F400351DB1504D5543056002
:100AF00002E04D4D5543056002E04B4D056000BFDF
:100B000000BF444D6D6805F0F0010909484D6B5C6C
:100B10000568DD4045603F4D6D6805F4E061090AF8
:100B2000434D6B5C4568DD4085603A4D6D6805F46A
:100B30006051C90A3E4D6B5C4568DD40C560354D6E
:100B40006D6805F44041890B3A4D6B5CC568B5FB97
:100B5000F3F5056130BD29B12E4A526902432D4B90
:100B60005A6104E02B4A526982432A4B5A6170470A
:100B700029B1284A92690243264B9A6104E0254A2A
:100B800092698243234B9A61704729B1214AD26905
:100B90000243204BDA6104E01E4AD26982431D4BB6
:100BA000DA61704729B11B4AD2680243194BDA60F7
:100BB00004E0184AD2688243164BDA60704729B1C4
:100BC000144A12690243134B1A6104E0114A126974
:100BD0008243104B1A6170471249403908607047D0
:100BE0000F49C86470470B49C87170470948406A8B
:100BF00040F0807007494862704701460020054A6E
:100C000092680A400AB1012000E0002070470149C3
:100C100088727047001002400000FFF8FFFFF6FEE8
:100C2000000042428004424200127A0000093D0066
:100C3000140000202400002010B50446FB48844224
:100C400009D101218803FFF7ADFF00214FF4804057
:100C5000FFF7A8FF32E0F648844209D10121480499
:100C6000FFF7ADFF00214FF40030FFF7A8FF25E0AC
:100C7000F048844209D101218804FFF7A0FF002138
:100C80004FF48020FFF79BFF18E0EB48844209D126
:100C90000121C804FFF793FF00214FF40020FFF764
:100CA0008EFF0BE0E548844208D101210805FFF7DB
:100CB00086FF00214FF48010FFF781FF10BD2DE962
:100CC000F04786B005460E460024A24600BFA14666
:100CD0000027B08900B100BF2F462C8A4CF6FF7068
:100CE0000440F08804432C82AC894EF6F310044093
:100CF000B08831890843718908430443AC81AC8AC8
:100D00004FF6FF400440B0890443AC8201A8FFF7CE
:100D1000C2FEC648874202D1DDF810A001E0DDF82E
:100D20000CA0A88900F4004040B10AEBCA0000EB17
:100D30000A1031684900B0FBF1F807E00AEBCA007D
:100D400000EB0A1031688900B0FBF1F86420B8FBB1
:100D5000F0F004012009642101FB1089A88900F446
:100D6000004040B1322000EBC900B0FBF1F000F0D0
:100D70000700044308E0322000EB09106421B0FBB7
:100D8000F1F000F00F0004432C8106B0BDE8F087BD
:100D90004FF41651016000218180C18001810C2136
:100DA000418100218181704710B502460020108AE0
:100DB0004FF2FF0318400B884C8823438C88234351
:100DC000CC8823431843108210BD0021018041804C
:100DD0008180C180704721B1828942F400528281B2
:100DE00004E082894DF6FF731A4082817047F0B5A6
:100DF0000346002400260025002040F66A17B94269
:100E000000D100BF1846C1F3421401F01F060127AC
:100E100007FA06F5012C01D10C3004E0022C01D1B7
:100E2000103000E014301AB107682F43076002E069
:100E30000768AF430760F0BD1AB1838A0B43838212
:100E400002E0838A8B4383827047028A4FF6F073F5
:100E50001A400282028A0A430282704782894FF254
:100E6000FF731A40828182890A438281704721B1CF
:100E7000828942F00202828104E082894FF6FD738A
:100E80001A4082817047028A4FF6DF731A4002824D
:100E9000028A0A430282704721B1028A42F48042E8
:100EA000028204E0028A4BF6FF731A400282704706
:100EB000C1F308028280704701468888C0F30800A9
:100EC0007047818941F0010181817047028BD2B264
:100ED0000283028B42EA012202837047028B02F4F2
:100EE0007F420283028B0A430283704721B1828AC8
:100EF00042F02002828204E0828A4FF6DF731A40B9
:100F00008282704721B1828A42F01002828204E01C
:100F1000828A4FF6EF731A408282704721B1828A2B
:100F200042F00802828204E0828A4FF6F7731A4088
:100F30008282704721B1828942F40042828103E0BB
:100F40008289C2F30E028281704721B1828A42F403
:100F50000062828204E0828A4FF2FF731A4082822A
:100F60007047828A4FF6FB731A408282828A0A4354
:100F70008282704721B1828A42F00202828204E0BA
:100F8000828A4FF6FD731A40828270470246002023
:100F9000B1F5007F00D100BF13880B400BB10120D9
:100FA00000E00020704701F40072B2F5007F00D12C
:100FB00000BFCA430280704770B502460024002378
:100FC0000025002040F66A16B14200D100BFC1F3EF
:100FD000421501F01F03012606FA03F3012D02D189
:100FE0009689334006E0022D02D1168A334001E093
:100FF000968A33400C12012606FA04F4168834400F
:1010000013B10CB1012000E0002070BD10B500222A
:10101000002340F66A14A14200D100BF0A12012445
:101020009440A3B2DC43048010BD000000380140AE
:101030000044004000480040004C00400050004088
:1010400001460020FE4A106800F038000843106096
:101050007047FB49096821F00801F94A11601146FF
:101060000968014311607047F549096821F01001D2
:10107000F34A116011460968014311607047F14855
:10108000EF494860F04848607047EE48EC494860D6
:10109000ED4848607047EA48006940F08000E84940
:1010A00008617047E648006940F08000E449086143
:1010B00070470420E249C96801F0010109B101202B
:1010C0000EE0DF49C96801F0040109B1022007E020
:1010D000DB49C96801F0100109B1032000E00420D8
:1010E000704700B502460423FFF7E3FF034603E021
:1010F000FFF7DFFF0346521E012B01D1002AF7D173
:1011000002B90523184600BD30B5044604254FF446
:101110003020FFF7E6FF0546042D17D1C8480069C7
:1011200040F00200C649086108464461006940F089
:10113000400008614FF43020FFF7D3FF0546C04858
:10114000006941F6FD710840BD490861284630BD7F
:1011500010B504244FF43020FFF7C3FF0446042CDD
:1011600016D1B748006940F00400B5490861084647
:10117000006940F0400008614FF43020FFF7B1FFF4
:101180000446AF48006941F6FB710840AC4908616C
:10119000204610BD00B502460423FFF78AFF034630
:1011A00003E0FFF786FF0346521E012B01D1002A00
:1011B000F7D102B90523184600BD10B504244FF439
:1011C0003020FFF7E7FF0446042C16D19C48006945
:1011D00040F004009A4908610846006940F0400068
:1011E00008614FF43020FFF7D5FF044694480069AA
:1011F00041F6FB71084092490861204610BD00206D
:101200008F49C96901F0020109B1012000E0002005
:10121000704730B5A5250424FFF7F1FF00B1002584
:101220004FF43020FFF75DFF0446042C3AD1854887
:1012300083498860844888600846006940F020003F
:1012400008610846006940F0400008614FF4302012
:10125000FFF747FF0446042C1BD17948006941F68B
:10126000DF710840764908610846006940F01000C7
:10127000086176480580E002FFF733FF0446052C3D
:1012800010D06F48006941F6EF7108406C49086161
:1012900008E0052C06D06A48006941F6EF71084065
:1012A00067490861204630BD78B506460C460425DE
:1012B00000200090E802FFF714FF0546042D24D11A
:1012C0005F48006940F001005D4908613480E80230
:1012D000FFF707FF0546042D10D1B01C0090200C2D
:1012E00000990880E802FFF7FCFE054654480069B3
:1012F00041F6FE7108405249086106E05048006915
:1013000041F6FE7108404E490861284678BD70B527
:1013100004460D460426F002FFF7E3FE0646042EBF
:1013200011D14748006940F0010045490861258016
:10133000F002FFF7D6FE06464148006941F6FE710D
:1013400008403F490861304670BD70B505460E46FD
:101350000424E002FFF7C5FE0446042C17D13948E7
:1013600037498860384888600846006940F01000B6
:1013700008612E80E002FFF7B4FE0446052C06D07B
:101380002F48006941F6EF7108402D490861204659
:1013900070BD2DE9F04304464FF6FF763746B04660
:1013A000B1460425E443E6B2C4F30727C4F3074873
:1013B0004FEA1469E802FFF794FE0546042D49D16F
:1013C00020481F498860204888600846006940F02E
:1013D00010000861FF2E06D01C4808300680E80285
:1013E000FFF77FFE0546042D08D1FF2F06D01748D2
:1013F0000A300780E802FFF774FE0546042D0AD183
:10140000B8F1FF0F07D011480C30A0F80080E802B7
:10141000FFF767FE0546042D0AD1B9F1FF0F07D08B
:101420000A480E30A0F80090E802FFF75AFE054681
:10143000052D0FD00248006941F6EF71084007E022
:101440000020024023016745AB89EFCD00F8FF1F64
:10145000664908612846BDE8F08330B50546042496
:101460004FF43020FFF73DFE0446042C41D1604884
:101470005E4988605F4888600846006940F0200047
:1014800008610846006940F0400008614FF43020D0
:10149000FFF727FE0446042C22D15448006941F688
:1014A000DF710840514908610846006940F01000AA
:1014B00008611DB100205049088002E0A5204E4976
:1014C00008804FF43020FFF70CFE0446052C10D0A6
:1014D0004648006941F6EF7108404449086108E058
:1014E000052C06D04148006941F6DF7108403F49AC
:1014F0000861204630BDF0B505460E461746042467
:101500003B483A4988603B488860E002FFF7E9FDC4
:101510000446042C19D13548006940F010003349C5
:10152000086147F0F800304328433349891C08809C
:10153000E002FFF7D6FD0446052C06D02B480069D3
:1015400041F6EF710840294908612046F0BD27485F
:10155000C069800870472548006A70470020234909
:10156000096801F0200109B1012000E00020704766
:1015700029B11E4A126902431C4B1A6104E01B4A3E
:1015800012698243194B1A617047014600200129F4
:1015900008D1164AD26902F001020AB1012008E01E
:1015A000002006E0114AD2680A400AB1012000E09A
:1015B000002070470D49C860704704200B49C96876
:1015C00001F0010109B101200EE00849C96801F0EC
:1015D000040109B1022007E00449C96801F01001C3
:1015E00009B1032000E00420704700000020024001
:1015F00023016745AB89EFCD00F8FF1F10B5044606
:10160000F748844209D101214805FFF7D8FA0021A3
:101610004FF40010FFF7D3FA08E001218805FFF727
:10162000CEFA00214FF48000FFF7C9FA10BD2DE972
:10163000F04385B004460D460026B1460427DFF886
:10164000A483A6884FF6C07006406846FFF723FAC9
:10165000DDF80880E448B8FBF0F01FFA80F946EAAC
:101660000906A68020884FF6FE71084020800026DB
:10167000DE49286888420CD828684000B8FBF0F0A2
:1016800087B2042F00DA04273E4309F101002084C9
:1016900027E0E8884BF6FF71884206D1286800EB06
:1016A0004000B8FBF0F087B209E0286800EBC00109
:1016B00001EB0010B8FBF0F087B247F48047C7F3A6
:1016C0000B0008B947F0010747F4004006434FF408
:1016D000967009FB00F04FF47A7190FBF1F0401C1A
:1016E0002084A683208840F00100208026884FF6C1
:1016F000F5300640A8886989084306432680A889F2
:1017000029890843208105B0BDE8F08341F2883182
:101710000160002181804BF6FF71C18000210181B1
:1017200041814FF480418181704721B1028842F0AC
:101730000102028004E002884FF6FE731A40028024
:10174000704721B1828842F40062828004E082887E
:101750004FF2FF731A408280704721B1828842F4B1
:101760008052828004E082884EF6FF731A408280A5
:10177000704721B1028842F48072028004E002883E
:101780004FF6FF631A400280704721B1028842F48D
:101790000072028004E002884FF6FF531A40028074
:1017A000704721B1028842F48062028004E002881E
:1017B0004FF6FF331A40028070470A4600218189A4
:1017C0004FF60173194002F0FE03194381817047FF
:1017D00021B1828942F00102828104E082894FF6C0
:1017E000FE731A408281704721B1028842F04002A4
:1017F000028004E002884FF6BF731A4002807047EF
:101800001AB183880B43838002E083888B438380F3
:101810007047018270470146088AC0B2704712B112
:1018200041F0010102E04FF6FE731940018270475A
:1018300008B50246002000900092009808440090ED
:101840000098008808BD21B1028842F4004202805D
:1018500003E00288C2F30E0202807047B1F5006F08
:1018600004D1028842F40062028004E002884FF250
:10187000FF731A4002807047B1F5005F04D10288FF
:1018800042F40052028004E002884DF6FF731A40D1
:101890000280704721B1028842F48052028004E045
:1018A00002884EF6FF731A4002807047B1F5006F50
:1018B00004D1028842F40062028004E002884FF200
:1018C000FF731A400280704721B1028842F0200263
:1018D000028004E002884FF6DF731A4002807047EE
:1018E0000146088B0012704721B1028842F01002B5
:1018F000028004E002884FF6EF731A4002807047BE
:1019000021B9028842F08002028004E002884FF68A
:101910007F731A4002807047B1F5804F05D0828BEB
:101920004BF6FF731A40828303E0828B42F48042BD
:101930008283704770B502460024002500230020F2
:10194000958A138B1B0445EA030626F07F4404EABC
:1019500001068E4201D1012000E0002070BD10B5CB
:1019600001460020002300228B8A0A8B120443EADE
:10197000020424F07F4010BD0CB502460020002375
:101980000193009300920B0F019321F07F41019B83
:101990001BB1009B1433009303E0090C009B183328
:1019A0000093009B1B680B400BB1012000E000205E
:1019B0000CBD002221F07F42D3438382704730B5B3
:1019C000024600200023948801F0E06504EA1543F4
:1019D00021F07F41948A0C4054B14BB1012008E0C2
:1019E0000054004000127A0040420F00A08601001F
:1019F000002030BD002221F07F42D3438382704714
:101A000010B50446FE48844208D10121C014FFF7F6
:101A1000C9F80021E014FFF7C5F8C4E0B4F1804F25
:101A200008D101210846FFF7CAF800210120FFF77D
:101A3000C6F8B8E0F348844208D101210220FFF73C
:101A4000BEF800210220FFF7BAF8ACE0EE4884426D
:101A500008D101210420FFF7B2F800210420FFF78C
:101A6000AEF8A0E0E948844208D101210820FFF740
:101A7000A6F800210820FFF7A2F894E0E448844289
:101A800008D101211020FFF79AF800211020FFF75C
:101A900096F888E0DF48844208D101212020FFF732
:101AA0008EF800212020FFF78AF87CE0DA48844293
:101AB00008D101214014FFF775F800216014FFF7E9
:101AC00071F870E0D548844209D10121C804FFF7BC
:101AD00069F800214FF40020FFF764F863E0D04874
:101AE000844209D101210805FFF75CF800214FF479
:101AF0008010FFF757F856E0CA48844209D1012107
:101B00004805FFF74FF800214FF40010FFF74AF89F
:101B100049E0C548844208D101214020FFF74FF831
:101B200000214020FFF74BF83DE0C048844208D137
:101B300001218020FFF743F800218020FFF73FF8C4
:101B400031E0BB48844208D101218015FFF737F806
:101B50000021A015FFF733F825E0B648844209D1EB
:101B600001210804FFF71EF800214FF48030FFF731
:101B700019F818E0B048844209D101214804FFF760
:101B800011F800214FF40030FFF70CF80BE0AB48E0
:101B9000844208D101218804FFF704F800214FF4A2
:101BA0008020FEF7FFFF10BD00220288944B984270
:101BB0000ED0994B98420BD0B0F1804F08D0914B8A
:101BC000984205D0904B984202D0904B984204D155
:101BD0004FF68F731A404B881A438D4B984207D0AB
:101BE0008C4B984204D04FF6FF431A40CB881A43DF
:101BF00002808B8883850B880385814B98420BD0AC
:101C0000854B984208D08B4B984205D08A4B98421E
:101C100002D08A4B984201D10B7A0386012383823A
:101C2000704770B5002400220023058C4FF6FE7625
:101C300035400584028C8388048B4FF68F752C40C9
:101C4000B51E2C400D882C43751E2A400D892A4351
:101C50004D882A436A4DA8420BD06F4DA84208D048
:101C6000744DA84205D0744DA84202D0734DA842CD
:101C700013D14FF6F7752A404D892A434FF6FB756D
:101C80002A408D882A434FF6FF652B404FF6FF55BB
:101C90002B408D892B43CD892B4383800483CD88B2
:101CA0008586028470BD70B5002400220023058C57
:101CB0004FF6EF7635400584028C8388048B48F616
:101CC000FF752C404FF6FF452C400D884FF6FF76F0
:101CD00006EA05252C434FF6DF752A400D8906EAF2
:101CE00005152A434D8806EA05152A43444DA842A6
:101CF00002D0494DA8421DD14FF67F752A404D892B
:101D00004FF6FF7606EA05152A434FF6BF752A40BF
:101D10008D8806EA05152A434FF6FF352B404FF212
:101D2000FF752B408D8906EA85052B43CD8906EA90
:101D300085052B4383800483CD880587028470BD8D
:101D400070B5002400220023058C4FF6FF66354055
:101D50000584028C8388848B4FF68F752C404FF658
:101D6000FC752C400D882C434FF6FF552A400D89F9
:101D70004FF6FF7606EA05252A434D8806EA052533
:101D80002A431F4DA84202D0234DA8421DD14FF235
:101D9000FF752A404D894FF6FF7606EA05252A434E
:101DA0004FF6FF352A408D8806EA05252A434EF670
:101DB000FF752B404DF6FF752B408D8906EA051502
:101DC0002B43CD8906EA05152B4383808483CD8878
:101DD0008587028470BD70B5002200230024058C25
:101DE0004EF6FF7635400584038C8488828B48F656
:101DF000FF752A404FF6FF452A400D8820E000007D
:101E0000002C01400004004000080040000C00408D
:101E1000001000400014004000340140004C01401C
:101E2000005001400054014000180040001C0040D8
:101E300000200040004001400044014000480140B3
:101E40004FF6FF7606EA05252A434DF6FF752B402F
:101E50000D8906EA05352B434D8806EA05352B43E7
:101E6000FA4DA84202D0FA4DA84208D14BF6FF75B0
:101E70002C408D894FF6FF7606EA85152C43848029
:101E80008283CD88A0F84050038470BD828B4FF2CE
:101E9000FF331A408283828B4FF6FF7303EA0123DC
:101EA0001A4382837047F0B50C4615460022002184
:101EB0000026078C4EF6FF7C07EA0C070784828B0E
:101EC000018C4FF6FF7707EA043640F6FF473A40A9
:101ED0004FF6FF7707EA05273A434FF6FF7707EA01
:101EE00003373A43D94FB8420ED0D94FB8420BD03E
:101EF000B0F1804F08D0D74FB84205D0D64FB84286
:101F000002D0D64FB84206D14DF6FF77394046F49D
:101F10008057394305E047F6FF57394044F480576E
:101F2000394382830184F0BD828B4FF6F3731A40EC
:101F30008283828B0A4382837047F0B50C46154634
:101F4000002200210026078C4FF6FF6C07EA0C07E1
:101F50000784828B018C4FF6FF7707EA04264FF641
:101F60000C773A404FF6FF7707EA03172F433A43BF
:101F7000B64FB8420ED0B64FB8420BD0B0F1804F3A
:101F800008D0B44FB84205D0B34FB84202D0B34FD7
:101F9000B84206D14FF6FF57394046F480773943AF
:101FA00005E04FF2FF57394044F48077394382838C
:101FB0000184F0BD028B4FF2FF331A400283028B83
:101FC0004FF6FF7303EA01231A4302837047F0B50B
:101FD0000C461546002200210026078C4FF6EF7CA8
:101FE00007EA0C070784028B018C4FF6FF7707EA9C
:101FF000041640F6FF473A404FF6FF7707EA0337EB
:102000003A434FF6FF7707EA05273A438F4FB84226
:102010000ED08F4FB8420BD0B0F1804F08D08D4F0B
:10202000B84205D08C4FB84202D08C4FB84206D18E
:102030004FF6DF77394046F01007394305E04FF699
:102040005F77394044F01007394302830184F0BDC3
:10205000028B4FF6F3731A400283028B0A4302830A
:102060007047F0B50C46154600220021068C4FF64D
:10207000FE773E400684028B018C4FF60C76324090
:102080007E1C06EA03162E433243704EB0420ED039
:102090006F4EB0420BD0B0F1804F08D06D4EB042C1
:1020A00005D06D4EB04202D06C4EB04206D14FF614
:1020B000FD76314044F00106314305E04FF6F576F8
:1020C000314044F00106314302830184F0BD70B514
:1020D00005460C465D4885420ED05D4885420BD0D2
:1020E000B5F1804F08D05B48854205D05A488542FB
:1020F00002D05A48854200D100E000BF208850B984
:102100002389A28861882846FFF7ABFFE18828462B
:10211000FFF79EFF25E0208804280AD12389A288A2
:1021200061882846FFF753FFE1882846FFF742FF02
:1021300017E0208808280AD12389A28861882846C8
:10214000FFF7FBFEE1882846FFF7EEFE09E0238952
:10215000A28861882846FFF7A6FEE1882846FFF797
:1021600095FE70BD2DE9F04105460C46002601277D
:10217000608808B9022600E00026A088012801D165
:10218000022700E001272088A0B92389A28861885E
:102190002846FFF766FFE1882846FFF759FF2389A5
:1021A0003A4631462846FFF712FFE1882846FFF7F6
:1021B00001FF13E02389A28861882846FFF707FF03
:1021C000E1882846FFF7F6FE23893A46314628463D
:1021D000FFF747FFE1882846FFF73AFFBDE8F081A7
:1021E0000A884B881A438B881A43CB881A430B8979
:1021F0001A434B891A438B891A43A0F8442070472D
:102200004FF6FF71818000210180C1804180017201
:1022100070470021018041808180C180018141811E
:102220008181C1817047002101804180012181802D
:102230000021C1800181704700210180418081809F
:10224000C18001814181818170470000002C0140E3
:10225000003401400004004000080040000C004031
:1022600021B1028842F00102028004E002884FF6A8
:10227000FE731A400280704731B1B0F8442042F436
:102280000042A0F8442005E0B0F84420C2F30E025A
:10229000A0F8442070471AB183890B43838102E080
:1022A00083898B43838170478182704741EA0203AF
:1022B000A0F8483070471AB183890B43838102E04C
:1022C00083898B438381704701894FF6F8721140EF
:1022D000018170470A46002101894FF68F7319402A
:1022E00011430181704730B504460D46294620460A
:1022F000FFF7F0FF208940F00700208130BD2DE975
:10230000F04104460D4616461F46602D06D13B4659
:10231000012231462046FFF75AFE05E03B460122E6
:1023200031462046FFF79DFE29462046FFF7D2FFA3
:10233000208940F007002081BDE8F08130B50C46CF
:1023400000210189C9B24FF6FF7505EA032515433F
:1023500025432943018130BD2DE9F04105460E4654
:1023600017469846002443463A4631462846FFF72A
:10237000E5FF2C894FF6F870044044F007044FF64F
:102380008F70044044F070042C81BDE8F081F0B5FA
:1023900004460D4616461F463B4632462946204611
:1023A000FFF7CCFF208940F480402081F0BD0185FB
:1023B000828270470A46002101884FF68F731940C8
:1023C000114301807047F0B50C4615461E460021AA
:1023D000002200230189028B038C4FF6F8773940E5
:1023E00021434FF6FC473A4040F201173A434FF67B
:1023F000DD773B404FF6FF7707EA06172F433B4355
:10240000018102830384F0BD0A460021018B4FF64F
:102410008F7319401143018370470A460021018BD5
:1024200048F6FF7319404FF6FF7303EA022319437E
:10243000018370470A460021818B4FF68F73194044
:102440001143818370470A460021818B48F6FF7350
:1024500019404FF6FF7303EA022319438183704743
:1024600021B1028842F08002028004E002884FF627
:102470007F731A400280704721B1828842F00402C3
:10248000828004E082884FF6FB731A408280704796
:1024900021B1828842F00802828004E082884FF6EF
:1024A000F7731A408280704721B1828842F001029E
:1024B000828004E082884FF6FE731A408280704763
:1024C0000A460021018B4FF6F7731940114301832F
:1024D00070470A460021018B4FF2FF7319404FF6F7
:1024E000FF7303EA02231943018370470A46002160
:1024F000818B4FF6F77319401143818370470A4669
:102500000021818B4FF2FF7319404FF6FF7303EAEE
:1025100002231943818370470A460021018B4FF63D
:10252000FB7319401143018370470A460021018B58
:102530004FF6FF3319404FF6FF7303EA02231943A6
:10254000018370470A460021818B4FF6FB731940C7
:102550001143818370470A460021818B4FF6FF3378
:1025600019404FF6FF7303EA022319438183704732
:102570000A460021018B4FF67F73194011430183F6
:1025800070470A460021018BC1F30E014FF6FF731D
:1025900003EA02231943018370470A460021818B15
:1025A0004FF67F7319401143818370470A4600211B
:1025B000818BC1F30E014FF6FF7303EA0223194327
:1025C000818370470A460021018C4FF6FD73194044
:1025D0001143018470470A460021018C4FF6F773BE
:1025E00019401143018470470A460021018C4FF6BF
:1025F000DF7319404FF6FF7303EA02131943018496
:1026000070470A460021018C4FF67F7319404FF640
:10261000FF7303EA02131943018470470A4600213D
:10262000018C4FF6FF5319404FF6FF7303EA022364
:102630001943018470470A460021018C4FF2FF7351
:1026400019404FF6FF7303EA0223194301847047D0
:102650000A460021018C4DF6FF7319404FF6FF73B7
:1026600003EA023319430184704730B50023012483
:102670008C40A3B2048C9C430484048C02FA01F5C0
:10268000ADB22C43048430BD30B5002304248C400B
:10269000A3B2048C9C430484048C02FA01F5ADB20D
:1026A0002C43048430BD70B5034600200024184636
:1026B000183001258D40ACB21D8CA5431D8409B195
:1026C000082909D100EB6100056825F07005056057
:1026D0000568154305600EE00D1FC5F34E0528443F
:1026E000056825F4E045056005684FF6FF7606EAC3
:1026F00002263543056070BD21B1028842F0020216
:10270000028004E002884FF6FD731A400280704791
:1027100021B1028842F00402028004E002884FF6F0
:10272000FB731A400280704721B1828842F0800218
:10273000828004E082884FF67F731A40828070475F
:1027400002884FF6F7731A40028002880A4302801B
:10275000704782884FF68F731A40828082880A43BE
:102760008280704702894FF6F8731A40028102890D
:102770000A430281704702894FF67F731A40028133
:1027800002890A43028170478184704781857047BE
:10279000818670470187704781877047A0F8401095
:1027A000704702884FF6FF431A40028002880A43AE
:1027B000028070470146888E70470146088F704737
:1027C0000146888F70470146B1F8400070470146C6
:1027D000888C70470146088D704702460020138A96
:1027E0000B400BB1012000E000207047CA43028279
:1027F000704730B50246002000230024158A05EA00
:102800000103958905EA010413B10CB1012000E030
:10281000002030BDCA43028270470000094880474B
:1028200009480047FEE7FEE7FEE7FEE7FEE7FEE7B2
:10283000FEE7FEE7FEE7FEE704480549054A064BCA
:10284000704700005B030008ED00000888100020BE
:102850008816002088120020881200204FF4FA7099
:1028600000F098F800F0B6F800F001F94FF4E1300C
:1028700000F029FB40F2CF2142F20F7000F070FA15
:102880001CA000F0F7FA34E001211D48FFF7E8FC36
:1028900000201C4908801C4908701CA000F0EAFABE
:1028A0001EA000F0E7FA02E01EA000F0E3FA1648CE
:1028B00000780028F8D000211148FFF7D1FC11481A
:1028C000008800EB80001A49098801EB4000194993
:1028D0000880084600884FF4AC71484316490860E8
:1028E0001448018815A000F0C5FA4FF47A7000F082
:1028F00051F8C9E72073746172740D0A000000007A
:102900000004004020100020241000207768696C2B
:10291000652073746172740D0A0000006F76657231
:10292000200D0A0072756E6E696E670D0A00000058
:10293000221000201E1000201810002074696D6500
:10294000203D2025642075730D0A0000704700BFEC
:10295000FEE700BFFEE700BFFEE700BFFEE77047EF
:1029600070477047704700EBC001C9004FF0E0228C
:102970005161002191610521116100BF4FF0E021FB
:10298000096901F480310029F8D004214FF0E022D8
:102990001161704700B5034603E04FF47A70FFF70A
:1029A000E2FF181EA3F101018BB2F6D100BD10B5F4
:1029B000044603E04FF47A70FFF7ECFF201EA4F109
:1029C00001018CB2F6D110BD10B54FF4A060FDF737
:1029D00045FD10BD10B5FDF75DFF4FF48030FDF7EC
:1029E00079FFFDF7B6FF0446012C28D14FF4E01122
:1029F0000004FDF7D7FF0020FDF7F1FFA002FDF76F
:102A0000F7FF0020FDF7FDFF4FF44040FEF714F8FC
:102A10000220FEF715FB1020FEF726FB0120FDF734
:102A2000CDFF00BF3920FDF778FF0028FAD0022043
:102A3000FDF7C7FF00BFFDF7CDFF0828FBD110BD94
:102A400008B501211C20FEF793F801214805FEF787
:102A50009CF8C020ADF800001C208DF80300032076
:102A60008DF802006946B148FDF7C6FD08BD1FB5E7
:102A7000FFF7E6FF0020ADF804004BF6FF70ADF85D
:102A80000600C020ADF808004FF48060ADF80A00E1
:102A90000001ADF80C00A64800906946A548FEF775
:102AA000C6FD0121A348FEF740FE1FBD2DE9F04100
:102AB00005460F4614461E4601219E48FEF759FE64
:102AC00000BF9D499B48FEF735FF0028F9D0002242
:102AD00029469848FEF7A3FE00BF98499548FEF79F
:102AE00029FF0028F9D039469248FEF792FE00BF30
:102AF0009249891C8F48FEF71DFF0028F8D00CE092
:102B000021788C48FEF785FE641C00BF8B49891C28
:102B10008848FEF70FFF0028F8D0301EA6F101010B
:102B20008EB2EDD101218348FEF72FFEBDE8F08182
:102B300070B504460E46154601217E48FEF719FE83
:102B400000BF7D497B48FEF7F5FE0028F9D0002242
:102B500021467848FEF763FE00BF78497548FEF7C6
:102B6000E9FE0028F9D031467248FEF752FE00BF58
:102B70007249891C6F48FEF7DDFE0028F8D029460F
:102B80006C48FEF746FE00BF6C49891C6948FEF799
:102B9000D1FE0028F8D001216648FEF7F6FD70BD91
:102BA0002DE9F04106460F4615461C4600BF4FF47E
:102BB00000316048FEF7E0FE0028F8D101215D48B1
:102BC000FEF7D7FD00BF5C495A48FEF7B3FE002868
:102BD000F9D0002231465748FEF721FE00BF574981
:102BE0005448FEF7A7FE0028F9D001215148FEF70E
:102BF0009CFD39464F48FEF70CFE00BF4F49891C2B
:102C00004C48FEF797FE0028F8D001214948FEF70E
:102C1000B0FD00BF48494748FEF78CFE0028F9D0B8
:102C2000012231464348FEF7FAFD00BF4249491CE4
:102C30004048FEF77FFE0028F8D016E0012C07D1AF
:102C400000213C48FEF7ADFD01213A48FEF79DFD0D
:102C500039493F313748FEF76DFE30B13548FEF750
:102C6000DAFD28706D1C601E84B2002CE6D10121B3
:102C70003048FEF796FDBDE8F08170B504460D467C
:102C800000BF4FF400312B48FEF776FE0028F8D144
:102C900001212848FEF76DFD00BF27492548FEF7B2
:102CA00049FE0028F9D0002221462248FEF7B7FD50
:102CB00000BF22491F48FEF73DFE0028F9D0012140
:102CC0001C48FEF732FD29461A48FEF7A2FD00BF58
:102CD0001A49891C1748FEF72DFE0028F8D001215B
:102CE0001448FEF746FD00BF13491248FEF722FEC6
:102CF0000028F9D0012221460E48FEF790FD00BFC2
:102D00000D49491C0B48FEF715FE0028F8D000219C
:102D10000848FEF746FD01210648FEF736FD054846
:102D2000FEF779FD0646304670BD0000000C0140FC
:102D3000400D030000540040010003008200070022
:102D400008B51D208DF8000003208DF801008DF8D6
:102D5000020001208DF803006846FDF784FB08BDE2
:102D600030B587B005460C4601210220FDF70DFF66
:102D700001210420FDF7FCFEFFF7E2FF0020ADF883
:102D80000000ADF802000120ADF804000020ADF80D
:102D90000600ADF8080069464FF08040FFF797F94C
:102DA0004020ADF80C0028208DF80F0003A925481D
:102DB000FDF722FC40212348FDF7CDFCADF814506F
:102DC000ADF810400020ADF81200ADF8160004A9CF
:102DD0001D48FEF7E9FE012203211B48FFF75BFABD
:102DE00000211948FFF73CFA07B030BD10B50121AA
:102DF0001548FFF7FEFC60B101211348FFF70AFDFB
:102E000012480088401C1149088001210E48FFF734
:102E100001FD02210C48FFF7ECFC88B10C4800785A
:102E200050B90B48007840F0010009490870064885
:102E3000FFF7CDFC0749088002210348FFF7EAFCB1
:102E400010BD0000000801400004004020100020D8
:102E5000241000202210002000BF704700BF434A0A
:102E6000128802F04002002AF9D0C2B23F4B1B1D6B
:102E70001A8070470FB410B5B4B0002437A8009082
:102E8000C92101A8009B369A00F078F80EE0204690
:102E9000621CD4B201AA115C3548FEF709F800BFE4
:102EA00040213348FEF772F80028F9D0C82C04DA24
:102EB00001A800F07DF8A042E9D80020009034B0CD
:102EC00010BC5DF814FB10B586B004460121082043
:102ED000FDF74EFE01218804FDF757FE4FF4006018
:102EE000ADF8140004208DF8170005A92148FDF75E
:102EF00083FB4FF48060ADF8140003208DF81600BA
:102F000018208DF8170005A91A48FDF775FB0194E4
:102F10000020ADF80800ADF80A00ADF80C00ADF8DF
:102F200010000C20ADF80E0001A91148FDF7C7FEF6
:102F3000012240F225510E48FDF759FF01210C48AE
:102F4000FDF749FF4FF4E060FDF788FA27208DF880
:102F5000000000208DF8020001208DF80300684673
:102F6000FDF781FA06B010BD70470000003801403F
:102F700000480040000C0140704700007CB51D4631
:102F800016460C00009001D02044401E074B7B44A5
:102F90002A4669460190304600F0E5F805461CB126
:102FA0000020694600F0F2F828467CBD05020000CA
:102FB00010B5431C02E010F8011B71B18107FAD172
:102FC0004FF0013202C88C1A8C4314EAC211F9D0B6
:102FD000C01A0A0603D0C01E10BDC01A10BD0A04D4
:102FE00001D0801E10BD0902FCD0401E10BD7047EC
:102FF00070477047704770B5044685690068C10620
:1030000001D5302600E02026C00707D070BDD4E9E6
:10301000012130469047206A401C20626D1EF6D583
:1030200070BD70B5044685690078C00707D170BDD2
:10303000D4E9012120209047206A401C20626D1EA7
:10304000F6D570BD09684A0501D540B27047C9057B
:10305000FCD500B2704709684A0501D5C0B2704777
:10306000C905FCD580B2704770B50C460546012AEB
:1030700005D02878800600D5EA69002302E0012304
:1030800005E05B1C934202D2E05C0028F9D1A869FC
:10309000E618C01AA861286A184428622846FFF773
:1030A000AAFF04E0D5E9012114F8010B9047B442CE
:1030B000F8D32846FFF7B5FF70BD00002DE9F041B9
:1030C0000646002410687529314616A510D0FFF772
:1030D000B9FF002802DA404213A507E031688A07E9
:1030E00001D512A502E0490704D511A5012401E08C
:1030F000FFF7B1FF00210A2206F1240709E0B0FB27
:10310000F2FCB0FBF2F302FB1C003030785418469E
:10311000491C0028F3D123462A463046BDE8F04139
:1031200000F069BA000000002D0000002B00000034
:103130002000000011680268006A530501D508707C
:103140000AE0D30501D5088006E0130603D5C217AF
:10315000C1E9000200E008600120704701694A1CD3
:1031600002610878704700B58FB0CDE901310021C8
:10317000059105497944CDE903101146684600F0F0
:1031800031F90FB000BD0000E5FFFFFF0A6802F84B
:10319000010B0A607047D1E900239A4202D2531C06
:1031A0000B601070704700002DE9FF5F15468A46DE
:1031B0000446DFF8AC80F8440027D8E900103E460A
:1031C000CDE9001010E03AF816106A4602A800F0A7
:1031D000A6FC411C07D02178890603D5E26939187D
:1031E00091420DD80744761C2078800602D5E0690C
:1031F000B84205DDAE42E6DB3AF816000028E2D11F
:10320000A069C01BA0612046FFF7F5FED8E90010B9
:10321000CDE90010002017E03AF818106A4602A81D
:1032200000F07DFCB0F1FF3F81460BD000250DF191
:10323000080B05E0D4E901211BF8050090476D1C3F
:103240004D45F7D308F10100B0428046E4DB206A27
:10325000384420622046FFF7E4FEBDE8FF9F0000EF
:103260002A1400002DE9F0418046D21D22F0070209
:103270000025D2E90002F52915A614D0011E72F12D
:10328000000106DA0023D0EB030063EB020211A673
:1032900008E0D8F800108B0701D50FA602E0490717
:1032A00001D50EA601251146002408F1240704E0EB
:1032B00000F05CF930323A55641C50EA0102F7D153
:1032C0002B46324621464046BDE8F04100F093B916
:1032D000000000002D0000002B0000002000000076
:1032E00030B4002100F1240408E002F00705D20800
:1032F000303542EA4372DB086554491C52EA030543
:10330000F3D10468002310A2250707D5A40600D432
:1033100021B1C46901230DA2641EC46130BC00F058
:103320006AB910B5044621461068FFF794FE0246BC
:103330002046BDE810400023D2E7D21D22F007014D
:10334000D1E90023CCE700000000000030000000BD
:10335000F0B40D460188090502D5214C7C4402E0F9
:103360001F4C7C440E34002100F1240608E002F0DA
:103370000F071209E75D42EA03721B097754491CE3
:1033800052EA0307F3D102780023120704D5702D07
:1033900006D009B1022311342246F0BC00F02BB94B
:1033A00001231034F8E770B504460D462146106835
:1033B000FFF751FE024629462046BDE87040002333
:1033C000C6E7D21D22F00703D3E90023C0E7036854
:1033D000126843F0200303600823C3610023B7E7AA
:1033E0008C1200002DE9F05F894604464FF0000A78
:1033F000DFF874B1FB44C0F820A02046E16888479C
:10340000002874D0252806D0D4E901219047206AED
:10341000401C2062F1E700265F462046E1688847AD
:103420002028054607DB312D05D2781910F8200C2D
:1034300008B10643F1E7B00701D526F00406C4F849
:103440001CA00027C4F818A02A2D09D0284601F096
:1034500093F838B304EB8708303DC8F8185019E0EA
:1034600059F8041B204604EB87029161E168884704
:10347000012F054618D1E069002820DA26F0200641
:103480001DE0D8F8180000EB800005EB4000303854
:10349000C8F818002046E1688847054601F06CF836
:1034A0000028EED1012F0AD02E2D08D12046E16848
:1034B00088477F1C0546022F46F02006C4DBA06922
:1034C000002803DA404246F00106A061F00701D06F
:1034D00026F010066C2D0BD0682D09D04C2D39D05C
:1034E0006A2D35D0742D35D07A2D33D016E038E0E2
:1034F000E1682F4620468847B842054609D16C2F1F
:1035000026D04FF48060E168064320468847054690
:1035100004E06C2F1AD04FF4807006430DB3A5F170
:103520004100192802D8203546F400664A4629464B
:10353000204626604E46FCF737FE80B101280BD0AE
:10354000F61D26F0070000F1080956E74020E4E7E1
:103550008020D8E70020D6E706F104094DE7284689
:1035600052E7206ABDE8F09F1C12000030B5B0F1B0
:103570000A024FEA900E71F100034EEA817EB0EB31
:103580000E0061EB91014FEA101E4EEA017E10EB36
:103590000E0041EB11114FEA102E4EEA016E10EBB6
:1035A0000E0041EB11214FEA104E4EEA014E10EB96
:1035B0000E0041EB1141401841F100014FEAD000EB
:1035C00040EA41704FEAD10110EB80054FEA8104D7
:1035D00044EA907444EB01046D1944EB0404521B5B
:1035E000A3414FF0000348BF0A3200D530BD401C54
:1035F00041F1000130BD2DE9F0470D469946924654
:10360000044600F124080168880604D5E06921F029
:103610001001216000E00120A84201DD471B00E00D
:103620000027A1697A1902EB0900081AA061207825
:10363000C00602D42046FFF7DEFC002608E0D4E9ED
:1036400001211AF806009047206A401C761C20626F
:103650004E45F4DB2078C0060AD52046FFF7CBFCA8
:1036600006E0D4E9012130209047206A401C206206
:10367000381EA7F10107F4DC07E0D4E9012118F8AE
:1036800005009047206A401C2062281EA5F1010514
:10369000F3DC2046FFF7C5FC2078000602D50220A7
:1036A000BDE8F0870120FBE770472DE9FF4F0C468E
:1036B0001E464FF0FF378BB0D2E90001DDF8608085
:1036C0000A908A46C1F30A5505B93D4600210846CD
:1036D0004FF00000BAF1000F00F4400005DA00EBF3
:1036E00080004FF4400101EA50004FEA9059B9F1CF
:1036F000010F00DDB9460A9850EA4A000ED044F6A0
:103700001050A5F2FF3545432F14B8F1000F1ED01D
:103710007542291E1EDDC9F100021CE0B8F1010F3F
:103720004FF0000001D0302103E0F24305E02154C6
:10373000401CB042FBDB30460022002121540B9993
:10374000C1F80880C1E900200FB0BDE8F08FBD1BB3
:103750006D1CDEE74A4600DA694206A800F070FAFE
:1037600006AB93E8070003AB83E8070050460A99CD
:1037700000F026FB8DE80700A0F500501F380090F0
:103780000398002D0ADD42F21F014A460844002337
:1037900003A90390684600F08FFD09E0A0F50050F2
:1037A0004A461F38002303A90390684600F099FD9C
:1037B0008DE807000004000C03D04FF0FF304108F3
:1037C00000E01046B8F1000F03D000220092154629
:1037D0001EE0751E05D4FFF7C9FE303262556D1E1E
:1037E000F9D5B3460122084302D000227F1C04E031
:1037F0002078302801D100227F1E002A099784D02A
:103800001DE0112D07DAFFF7B1FE303262556D1C55
:1038100050EA0102F5D1084302D00098C8B10EE089
:103820000021681E05E0235C625C63542254401E44
:10383000491C8142F7DBAB46A81B401E09900020C3
:1038400004F80B000B98099AC0F80880C0E9002B17
:103850007AE711264FF0000857E72DE9F04F884628
:103860000446D21D22F0070191B0D1E90001CDE953
:103870000A0100F06DFE02460B98C00F01D02D200A
:1038800007E02068810701D52B2002E0202101EA12
:10389000C000032A099001D0072A05DB03464146F0
:1038A000204600F08DF90BE12078800601D5E06913
:1038B00000E00620B8F1650F814606D0B8F1660F2A
:1038C00018D0B8F1670F70D131E00020B9F1110FB5
:1038D000009001DB112301E009F101030AAA01A90B
:1038E0000CA8FFF7E2FEDDE90C70002609F10105E6
:1038F000834647E001204B4600904FF000470AAA5C
:1039000001A90CA8FFF7D1FEDDE90DB00C995D46C9
:10391000002610B909F101000D18B9EB050003D418
:10392000C0F1FF3609F10105A5EB09002BE0B9F163
:10393000010F01DA4FF001090020B9F1110F0090D9
:10394000484601DD112300E003460AAA01A90CA89C
:10395000FFF7ABFEDDE90C704D460026834620786C
:1039600000070AD4AB4500DA5D4601A8012D04DD4D
:10397000411911F8011C302907D04F4502DA17F11F
:10398000040F04DA012082460FE06D1EEEE7002FDF
:1039900002DCED1B3E4403E0781CA84200DD7D1CE8
:1039A000B81B00F1010A4FF000472078000703D44C
:1039B000AA4501DB4FF0FF3A0021B7F1004F0DF1AE
:1039C00043088DF8431024D002202B23002F01DA66
:1039D0007F422D230A21021EA0F1010000DC5FB10D
:1039E00097FBF1FC97FBF1F201FB1C7C17460CF1F5
:1039F000300C08F801CDEEE7A8F101000370218832
:103A0000090501D5452100E06521A0F1010800F874
:103A1000011C09980FA9A1EB0807FF1D00B10120A7
:103A2000411901EBEA70A1693844081A401EA061EF
:103A30002078C00602D42046FFF7DDFA099828B1A5
:103A4000D4E901219047206A401C20622078C006FA
:103A500022D52046FFF7CFFA1EE0002E04DBB34547
:103A600002DD01A8805D00E03020D4E9012190470B
:103A7000206A401C2062761CAAF101005FEA000A5D
:103A80000AD100F099F8C0680168405CD4E90121CE
:103A90009047206A401C2062281EA5F10105DCDC4D
:103AA00007E0D4E9012118F8010B9047206A401C77
:103AB0002062381EA7F10107F3DC2046FFF7B1FAB8
:103AC000032011B041E610B5436913B1AFF3008094
:103AD00001E0FFF7C9FA012010BD127800F12401BE
:103AE0000A7000224A700122EDE711684FF0FF32A0
:103AF000E9E710B5436913B1AFF3008001E0FFF7C8
:103B000053FB012010BD128800F1240182840022A1
:103B1000C2840122EDE711684FF0FF32E9E770B58A
:103B200016460C46054600F03FF8036893F801017D
:103B3000012806D0FF2C0FD8185D68B101202C7029
:103B400070BDD3F807013246214603F20713034440
:103B50002846BDE8704018474FF0FF3070BD7546ED
:103B600000F0EAF8AE4605006946534620F007002B
:103B7000854618B020B5FEF75FFEBDE820404FF047
:103B800000064FF000074FF000084FF0000B21F047
:103B90000701AC46ACE8C009ACE8C009ACE8C00914
:103BA000ACE8C0098D46704710B500F005F8001D5F
:103BB00010BD00BF010A00000048704748100020F7
:103BC0002DE9F0411F46044603260168072A01F447
:103BD000006004DB08B116A505E016A503E008B1F6
:103BE00015A500E015A521F010002060A069C01EF9
:103BF000A0610FB1401EA0612046FFF7FCF94FB154
:103C0000D4E9012138469047206A401C2062C01C3C
:103C1000206206E0206AFAE7D4E9012115F8010BD9
:103C20009047761EF8D22046FFF7FBF9BDE8F081F9
:103C30004E414E006E616E00494E4600696E660050
:103C40002DE9F047814616468AB0354878440DC8BC
:103C50008DE80D0032487844801C03AC0DC884E820
:103C60000D0041F69B300844372190FBF1F290FBA8
:103C7000F1F5A5F1800501FB12041B3C02D564425D
:103C8000012000E00020DFF898A080460027FA44D9
:103C9000AAF1BE0A0EE0E0070AD03246684607EBFA
:103CA000470101230AEB810100F01BFB8DE80700AF
:103CB00064107F1C002CEED1194F7F44AE3F19E0F9
:103CC000E80715D007EB04100DF1180A90E80E0074
:103CD0008AE80E00C068F04201D198190890324677
:103CE000012306A903A800F0FCFA03AB83E8070050
:103CF0006D10641C002DE3D14FF00103324669467C
:103D0000B8F1000F03A802D000F0D6FA01E000F0ED
:103D1000E8FAC9E90001C9F808200AB0BDE8F0874F
:103D2000540A000010B50446AFF300802046BDE8F9
:103D30001040FCF79CBA0000004870472810002093
:103D40004FF0013C50F8042B51F8043B9A4221D12A
:103D5000A2EB0C03934313EACC1317D150F8042BB6
:103D600051F8043B9A4215D1A2EB0C03934313EA9A
:103D7000CC130BD150F8042B51F8043B9A4209D1D3
:103D8000A2EB0C03934313EACC13DBD04FF00000FB
:103D9000704700BFD01A01BAB1FA81F101F01801E1
:103DA00022FA01F0CB40C1F12001DBB2C0B2C01A4F
:103DB0002CFA01F3D11A914311EAC311E6D17047ED
:103DC0005FEA400C08BF91F0000F4FEA8C234FEAE6
:103DD000C12243EA51514FEA1C5018BF00F5F04090
:103DE0004FEA300018BF41F000415FEA6C5C00F020
:103DF0002980BCF1FF3F08BF40F080407047130CA2
:103E000006BF12044FF0100C4FF0000C130E04BF4D
:103E100012020CF1080C130F04BF12010CF1040C78
:103E2000930F04BF92000CF1020CD30F04BF520099
:103E30000CF1010C11464FF00002A0F11F00A0EBA5
:103E40000C00704711F0004F08BF704731F000417F
:103E50003FF4D5AF0B0C06BF09044FF0100C4FF028
:103E6000000C0B0E04BF09020CF1080C0B0F04BF71
:103E700009010CF1040C8B0F04BF89000CF1020C3A
:103E8000CB0F04BF49000CF1010CCCF12003A0EBD7
:103E90000C0022FA03F302FA0CF241EA030100F1EA
:103EA0000100704720F07F4C80EA030023F07F4739
:103EB000ACEB070303F57C5300F0004003F1FF0374
:103EC0002DE980494FEA154B09B44FEA144325EA1E
:103ED0000B4E24EA03480FF2042606EB1327490889
:103EE0003E785FEA320203FB0667C7F5000707FB6F
:103EF00006F64FEA54374FEAD64606F1020607FBAC
:103F0000066CCCF1005C4FEA1C472CEA074C07FB1F
:103F100006F40CFB06F504EB15464FEA961634BF83
:103F200000204FF000404FEAD13706FB07FC4FEA74
:103F30001C4C0CFB0BF7D21B03FB0CF761EB0701CE
:103F40000CFB0EF7B0EB074072EB17420CFB08F7C7
:103F500034BFA2EB0742B2EB074261EB17414FEAD5
:103F60000C444FEA910706FB07FC4FEA1C4C0CFB84
:103F70000BF7B0EBC74072EB573203FB0CF734BFC3
:103F8000A2EBC742B2EBC74261EB57310CFB0EF715
:103F9000B0EBC70072EB57720CFB08F734BFA2EB13
:103FA000C702B2EBC70261EB5771039F4FEA816111
:103FB00041EA921104EBCC044FEAD1374FEA826216
:103FC00006FB07FC42EA90124FEA80604FEA1C4C65
:103FD0000CFB0BF7D21B03FB0CF761EB07010CFB8F
:103FE0000EF7B0EB074072EB17420CFB08F734BF3B
:103FF000A2EB0742B2EB074261EB17414FEA8C5547
:104000004FEA910704EB9C2406FB07FC4FEA1C4C8B
:104010000CFB0BF7B0EBC74072EB573203FB0CF70E
:1040200034BFA2EBC742B2EBC74261EB57310CFB86
:104030000EF7B0EBC70072EB57720CFB08F734BFFA
:10404000A2EBC702B2EBC70261EB577115EB4C252F
:104050004FEA816141EA92114FEA82624FEAD13719
:1040600042EA901206FB07FC44F100044FEA80602C
:104070004FEA1C4C0CFB0BF7D21B03FB0CF761EB5C
:1040800007010CFB0EF7B0EB074072EB17420CFB7D
:1040900008F734BFA2EB0742B2EB074261EB1741CE
:1040A00015EB1C154FEA813141EA92414FEA823209
:1040B00042EA90424FEA80304FEA0C7644F1000425
:1040C00048EA03434EEA0B484FF0000EB2EB080CEF
:1040D00071EB030724BF624639464EEB0E0E4FF0DC
:1040E000000B0018524149414BEB0B0BB2EB080C93
:1040F00071EB03077BF1000B24BF624639464EEBA0
:104100000E0E4FF0000B0018524149414BEB0B0BC8
:10411000B2EB080C71EB03077BF1000B24BF624686
:1041200039464EEB0E0E51EA020718BF46F0010663
:1041300016EB0E7655F1000254F1000103D5BDE8EF
:104140008901BDE80088BDE88901BDE80048B619CD
:10415000524141EB0101A3F10103704780807F7E52
:104160007D7C7B7A797877767675747372717170ED
:104170006F6E6E6D6C6C6B6A6A696868676666659F
:104180006464636362616160605F5F5E5E5D5D5C2D
:104190005C5B5B5A5A59595858575756565555559E
:1041A0005454535352525251515050504F4F4F4EFE
:1041B0004E4D4D4D4C4C4C4B4B4B4A4A4A4949494C
:1041C000484848474747474646464545454444448E
:1041D000444343434342424242414141002B9C46B7
:1041E00030D477002BD01CB54FEA370703B44FF01B
:1041F00010004FF01001BAF1000F06D0BCF1000F13
:10420000DCBF40F0080040F008014FF000000FBC98
:10421000BDE810400BF1010BBBF1010F08BF5FEAD5
:10422000170722BF12F1010211F101014FF0004105
:1042300043F1000300F0004043EA00007047F9D367
:104240005708D0E746EA064613F1400F4FEA1646F4
:104250001FDD13F1200FDFBF16430A460021203374
:104260005B42BED0C3F1200746EA064602FA07F7D2
:104270004FEA164646EA0706C3F1200722FA03F280
:1042800001FA07F721FA03F14FF0000342EA0702AF
:10429000A7E746EA020646EA06464FEA164646EA17
:1042A0000106BCBF46EA0646360C4FF000034FF04D
:1042B00000024FF0000194E72DE9804C9A469346A6
:1042C00070B491E8380007C831EA400C48BF34EABE
:1042D000430C03D5FFF7E6FDFFF780FFF0BCBDE818
:1042E000008C2DE9804C9A46934670B491E83800D2
:1042F00007C810F0804F08BF13F0804F03D100F0C3
:1043000005F8FFF76BFFF0BCBDE8008C20F07F479D
:1043100080EA030023F07F4C07EB0C03A3F57C53EA
:1043200000F00040A3F1FE0392F0000F00F0B38014
:1043300095F0000F00F077802DE901494FEA114018
:104340004FEA144621EA004800FB06FC24EA06472F
:1043500008FB06F607FB08F800FB07F718EB064812
:104360004CEB164C4FEA124B18EB07484FEA154638
:104370004CEB174022EA0B4E0BFB06FC25EA0647E6
:104380000EFB06F607FB0EFE0BFB07F71EEB064EB9
:104390004CEB164C4FF000061EEB074E4CEB174B48
:1043A00018EB0B0840F1000018EB0E0B58EB00085F
:1043B00040F100008F1A4FF000013CBFC943661B5B
:1043C00014BFB5EB040C00213CBFC943F61B4FEAF8
:1043D00017444EEA8E0E27EA04454FEA1C4704FBB9
:1043E00007622CEA074C05FB07F70CFB05F604FBFC
:1043F0000CFC16EB074642EB174216EB0C4642EB61
:104400001C421BEB060658EB0202414146EA9E069F
:1044100001D5BDE80189B619524141EB0101A3F173
:104420000103BDE801894FEA14454FEA114724EA28
:10443000054621EA074C05FB07F406FB07F70CFBD2
:1044400006F105FB0CFC11EB074144EB17444FEA66
:10445000124711EB0C4144EB1C4422EA074C05FBCC
:1044600007F206FB07F70CFB06F605FB0CFC16EB48
:10447000074642EB174216EB0C4642EB1C456A1806
:1044800054F1000148BF7047B619524141EB010198
:10449000A3F10103704795F0000F37D04FEA1142A6
:1044A0004FEA144721EA024624EA074C02FB07F1CF
:1044B00006FB07F70CFB06F402FB0CFC14EB0744AD
:1044C00041EB17414FEA154714EB0C4441EB1C41FB
:1044D00025EA074C02FB07F506FB07F70CFB06F67F
:1044E00002FB0CFC16EB074645EB174516EB0C469A
:1044F00045EB1C42121951F1000148BF7047B61933
:10450000524141EB0101A3F1010370474FEA144509
:104510004FEA114724EA054621EA074C05FB07F15B
:1045200006FB07F70CFB06F24FF0000605FB0CFC40
:1045300012EB074241EB174112EB0C4251EB1C41CD
:1045400048BF7047921841EB0101A3F10103704786
:10455000490050EAC12018BF04204A0D18BF40F09E
:10456000010040F2FF72B2EB515F08BF40F0020061
:10457000012808BF0520704730380A2801D20120E1
:10458000704700207047000010B500290AD0087855
:10459000002807D005487844FFF7D2FB002801D057
:1045A000002010BD0248784410BD00004601000004
:1045B0003E01000010B500290AD00878002807D075
:1045C00005487844FFF7BCFB002801D0002010BD4F
:1045D0000248784410BD0000360100002E010000A2
:1045E000FFF73BB90000000000000000303132331B
:1045F0003435363738394142434445464030580017
:104600003031323334353637383961626364656648
:1046100040307800040000080000000000000002A4
:10462000000100001000000002400000000000A097
:104630000000000005400000000000C8000000006D
:104640000C4000000000409C0000000019400000E9
:104650000020BCBE0000000034400000BFC91B8E1B
:1046600000000004B5400000504BCFD06607E2CFF9
:10467000010000006C4100003E8251AADFEEA73429
:1046800001000000D9420000DCB5A0E23A301F97DB
:10469000FFFFFFFFB4450000FD25A0C8E9A3C14FFF
:1046A000FFFFFFFFFF3F0000000000800000000050
:1046B000FF3F0000000000800000000008480008E4
:1046C00000000020281000002801000824540008E1
:1046D00028100020600600008C0100081C0000006B
:1046E00043000000F8FFFFFF0C0000000E00000078
:1046F0000F0000002E000000100100004300000029
:10470000F8FFFFFF004040404040404040404141F2
:104710004141414040404040404040404040404096
:104720004040404040050202020202020202020230
:10473000020202020220202020202020202020022D
:1047400002020202020290909090909010101010BD
:104750001010101010101010101010101010101059
:1047600002020202020288888888888808080808ED
:1047700008080808080808080808080808080808B9
:1047800002020202400000000000000000000000E1
:104790000000000000000000000000000000000019
:1047A0000000000000000000000000000000000009
:1047B00000000000000000000000000000000000F9
:1047C00000000000000000000000000000000000E9
:1047D00000000000000000000000000000000000D9
:1047E00000000000000000000000000000000000C9
:1047F00000000000000000000000000000000000B9
:104800000000000000000000500600A24A04000161
:10481000600901020304060708090C611010070271
:10482000040608004021510420115DDD213BA32234
:104830007E180000412D7EA5412D08200900C000F2
:10484000405DDD82E71C311491302011AA2A9412B8
:104850006B39460649327C0CA8118E230821402072
:104860000521F779311C2114A154601195C6B13F7F
:10487000461A2B1E58EE3735BEB4C53E20A00D6338
:10488000A97138DF089A28B7CDC53E78200563A9FD
:104890002B1E4C212C2005BEB47C0C38A01161AC21
:1048A000213B95C6BAF9BAE571383BA737359C204C
:1048B0001121F766D756D53F3D3BA78E23A811C9D6
:1048C000CA50200961AC7E18AA2AC1C27C2144A129
:1048D000F020111E3BB504693E9201C83C2403EB55
:1048E0003564090821D020056C30060E1C2114A166
:1048F000E46011AE240917AF37D607882E8D0F7EDE
:104900001E5D1B20A40D24188C1F1E34F10AB32633
:104910009015082005140B60274C212C20057104EC
:10492000FB2A382500A40DC7FD5A2E9D2C1211FE1E
:1049300015E7202C201187F05334B2281314480DAA
:10494000202602EAE53650251820059CE32B397C09
:104950002144A5A420114ED7C53C9320EF198FFB0D
:104960006C2F78D1153E682530A40DE2CB0F3F6443
:104970001CC61CB8F2683374200597C1FB3FAC21FC
:104980005C2005F0BCEC3F802548A40DA6B8853F0F
:10499000D5133D2282E1DB3998201140B1AF3D793A
:1049A0000FDA244DD9423C2EAE423C9825602005BA
:1049B0008EAB823ADC2174A5BC2011B1A71236A9B6
:1049C00006CE2915CA4F3F78A66833F42578A40D82
:1049D000BCA576303902212C38C3EC3FE02405BC5D
:1049E000A5CE290C218C200578A62026C8A811095F
:1049F000BAB13FB1A73D2257F976304DB74F3F04CA
:104A000020118EABEF19ECF474325EB2153E2EAE6F
:104A10009015E024092DB03F3D40B112113C21A476
:104A2000A9282411A6B8D6072BEC1236C8AADB3960
:104A3000F0BC240354296CA80D97C16EFEDCE7B0CE
:104A40003734A8E5364C153826F56C21BC2405789A
:104A5000D173F010A811EDA579314ED7EDEB6DDFD4
:104A6000823A99A56C2F7024119CE33AE352DBB68D
:104A70003B99A5FB2A02EA19DF282409EDA59A280B
:104A800087F026DB9C21D4A9944411C7FDDFD363B2
:104A9000D3AF3D34A8E720710494D040A80F2B1E5B
:104AA000140B8CCD94CF723EC8AA5D1BB82405248C
:104AB0001850C8CC21EC24057E1E25C658A8112DFF
:104AC000B09412AE244AC451C8853F5EB28D0FDC4B
:104AD00024116C308EC1E2C4D43F4DB76409EB356C
:104AE000B1C070240909BA46061E3B2CC0FC25043F
:104AF000ADC0032011D03E2E019B3F6500363FC95B
:104B0000009A3D5B02082D100320055F3C88031CC2
:104B10002114AD24036011D939E205023EF701F4F6
:104B20003BED038E380E0720AC0D3F373908313D81
:104B3000C002463A7E054803200592348E0A4C2175
:104B40002C20053433B70B382D4003AC0DD231DFA8
:104B50000C8A3B5104CE369D086C032011022F2B8A
:104B60000FB23A1A0505352B0A932D5010502D58C7
:104B7000032005212C73117C2144AD7404201131D4
:104B800029B413FD38AA065B31410DB327D2149422
:104B90002D7003AC0D3226EE151F3872077B2FCA1D
:104BA0000EB403200526232118AC215C20059C218E
:104BB0003719802D8803AC0D0E204B1A5D36010984
:104BC000A42BD311D8032011EB1C6C1C7835C7091A
:104BD000AF295413561B791D982DA0032005BE192B
:104BE000841EDC2174ADFC03201188169120A933AA
:104BF000540BB1254C16EA149321F42DB803AC0DD7
:104C00004A139222BF321A0CA923C4172004240588
:104C1000051088240C218C2005610E7E25C82DD01E
:104C200003AC0DBB0C7126E430A40D891FA71A44F8
:104C30000420116D094C28F42F680E721D121CC43B
:104C4000073529E02DE80324051B061A2A3C21A478
:104C5000BD6804241002D82B0E2EEE0F3519DC1E71
:104C60001C01B22C542DAC04AC0D72FF882D182DF4
:104C7000B11011173A208C0424051DFC282F6C213B
:104C8000BC240573FAF22F102D1804AC0DCAF8B825
:104C900030282B3412BF12E722B004241179F536E4
:104CA000322D2AF41291103524D2F3EF32282D3010
:104CB0000424052CF2A3339C21D4ADD4042411E3A5
:104CC000EEFF34332873142E0CC12641EDA5354078
:104CD0002D4804AC0DA1EB483633273115FA09FEF7
:104CE00027F804240565E87E37CC21EC2405CBE6C3
:104CF0001238582D6004AC0D32E5A1382F25AB16C3
:104D00008D05652A1C05241108E2B0392B2466178D
:104D100055038F2B77E0303A702D78042405E9DEB7
:104D2000AB3AFC2504AD90062811D5DB923B1F223F
:104D3000DB18E4FECF2D4FDAFD3B142D9004AC0DB3
:104D4000CDD8643C17219319ABFCE42E64052805EB
:104D5000D3D5213D2C251C24055CD4783DA02DA85D
:104D600004AC0DE8D2C93D041F021B3CF8F93088A1
:104D70000524110CD05C3EF81DB81B06F6F831A5D1
:104D8000CE9D3EB82DC004280541CDD83E5C2534CB
:104D9000ADAC05241188CA403FDD1B201D9FF1DF0B
:104DA0003332C96B3FD02540AC0DE1C7913FCE1ADD
:104DB000D31D6FEFC634D00528054EC5CC3F8C25DA
:104DC0004C24050CC4E13FE82DF004AC0DCFC2F13A
:104DD0003FAD18341F16EB7D36F4051E65740528AB
:104DE0000D9B17E31FEFE84B3738BFFF3F002D083F
:104DF00005280511BEF83FBC2564AD18062811D45E
:104E0000BBDB3F74153D21AAE4CF38BFBAC43F18BD
:104E10002D8C06AC0DAFB9A73F5F14E8218EE2845C
:104E2000393C062805A2B75D3FEC257C2805A5B6D0
:104E3000303F302D3805AC0DAFB5FD3E34123B236D
:104E400064DED33AF8072811D5B3883E1D11E2235A
:104E500057DC6D3BF2B2453E482D50052C0515B28E
:104E6000FC3D1C032594AD84062C1171B05B3DED17
:104E70000E2C254DD8853CA9AF033D340325A0ACAD
:104E80000DE8AEA53CD40DCF2551D6033DA8062C88
:104E9000057BADDA3B4C0325AC2805D0AC6D3B78E7
:104EA0002D8005BC0C2BACFA3AA10B11276DD2E377
:104EB000CC062811F8AA063A870AAF2785D0453EC6
:104EC0006AAA8439902D98052C05E3A9FD387C0346
:104ED00025C4ADF0062811EBA8E1375208E728CC2D
:104EE000CCEB3E7BA84B37A82DB005AC0D12A8B17A
:104EF0003636078129FBCA303F14072C0557A76EA9
:104F000035AC0325DC280505A7C634C02DC805BC73
:104F10000CBBA61934FF04B02A72C79C38072811AD
:104F20003EA6B232E303452BBAC5C43F0BA6F83107
:104F3000D82DE0052C05E0A53931DC0325F4AD5C66
:104F4000072C11A1A5AF2FAA016A2C66C2F53F8DCF
:104F5000A5E42EF4032DF805BC0C81A5152E8E00BA
:104F6000FA2CCAC0FF80072C0581A56A2C0C0429E5
:104F70000C2C058DA58F2B0803100473BEFB48ACC9
:104F80000BB02A56FE152EB0BDF53FA407100CE05D
:104F9000A5E72839FD9F2E32BCE1902FFE27200384
:104FA000100477BBD4A82F11273C042924ADC807CF
:104FB000100CBBA62C2501FBAF2F56B99CF02F354A
:104FC0002454042930BC0C57A73B23E5F93430F8AE
:104FD000B76BEC072C0512A83D216C04293C2C056D
:104FE0007BA83A205003AC1100B60F3FEBA8341F4A
:104FF000AEF739315EB5EB3E140A140CE3A9201D5F
:1050000093F6B93122B49DB02F121C6803140488A2
:10501000B372C82F021B9C042954AD3408180C2B02
:10502000ACDB185FF4B232CDB1E3102FC417B40477
:105030002960AC0D7BADAB1645F32C33B5B0783D94
:1050400058082C05E8AE7314CC04296C2C05A9AFC4
:1050500054139803180428AFC588AC0B341213F10D
:105060001934A9AE853C7C08180C15B2EE0FFBEF85
:105070008D34B6ADFDD02FCA0EB003180441ADB6C5
:10508000E82FA40DFC042984ADA0081C0CAFB55476
:105090000BCCED6E35F6ABD330032F2B0A1405295C
:1050A00090AC0DA2B70109B6ECDC3529AB303AC49F
:1050B000082C05AFB9AA062C05299C2C05BFBA7E81
:1050C00005E003AC110FAA2B39D4BB51048CEAB113
:1050D00036B7A9CF38E8082C1111BEF70178E918C6
:1050E0003712A9123838BFC900F8032C09C5A8B077
:1050F0003765C09BFF5C0529B4AD0C093C11CFC2DC
:1051000040FD53E7E137F1A77D360CC413FC74056D
:1051100019C0AC0D4EC5E6FA42E6423874A7A53573
:1051200030092C05E1C78EF88C0529CC2C0532C935
:1051300063F72804AC11D3A6533488CA39F623E4A4
:10514000FD38A4A6DF3354092C1141CDE6F315E355
:10515000583950A6EF32A5CEBFF240042C092CA638
:1051600074320CD098F1BC0529E4AD78092C11E813
:10517000D24FEFFCE0063AD3A5F9305CD42DEED443
:105180000529F0AC0DD3D50CEDF2DF593AA9A5F203
:105190002F9C092C05CDD8CFEAEC0529FC2C054F16
:1051A000DAB4E97004AC1185A55A2ED5DB9AE8E192
:1051B000DDFA3A7FA5CF2DC0092C11E9DE6DE6DAC4
:1051C000DC473B7FA5B22C77E059E588042C0985A4
:1051D000A5212C08E248E41C062D1403ADE4092C9B
:1051E0001132E52DE2D1DADA3BA9A5652ACBE62416
:1051F000E134062DC40AAC0D65E81DE0CED9203C93
:10520000D3A53529080A2C05A1EB18DE4C062D2C58
:10521000032C0541ED19DDB804AC112CA66027E381
:10522000EE1EDCCDD7A53C50A6C1262C0A2C112C95
:10523000F231DACFD6E43CA4A67E25D2F33FD9D012
:10524000042C09D3A6DA2479F551D87C062D440321
:10525000AD500A2C11CAF87FD6D8D45B3D74A7E7AD
:105260002273FA9BD5E8042D5003AC0D1DFCBBD472
:10527000DFD3933DF1A79321740A2C0572FF06D367
:10528000AC062D5C032C051C0131D20005AC11C508
:10529000A88C1FC70261D1F2D1FC3D12A9DC1E9877
:1052A0000A2C111B06CCCFFED02D3EB7A9791DC408
:1052B0000707CF18052C090FAAC61C6D0947CEDCBD
:1052C000062D7403ADBC0A2C11BB0CD4CC1CCF88AA
:1052D0003E29ABA71A610E21CCF4062D8003AC0D3C
:1052E000051073CB2ECEB13EF6AB3719980D2C05B9
:1052F0004A1324CA0C072D8C032C05EA1483C948D1
:1053000005AC1141AD09178816E8C857CCFD3EB66B
:10531000AD4C16040B2C11BE19BEC76ECB203FA995
:10532000AED214561B31C760052C0928AF1314EBFD
:105330001CA8C63C072DA403AD280B2C110E20A7DA
:10534000C5A3C95D3FB5B0D3119C212DC554072D10
:10535000B003AC0D2623B9C4C1C8783FCDB15010FD
:105360004C0B2C053226E0C36C072DBC032C05B377
:10537000277BC39005AC1188B3060E31291CC303EB
:10538000C7A73F22B4410D700B2C11212C6DC227F1
:10539000C6BB3F5EB5B70B932D1DC2A8052C0900F7
:1053A000B6F10A022FD3C19C072DD403AD940B2C68
:1053B00011D2314FC176C4DB3FF8B79D08343315A5
:1053C000C1C0052DA40CAC0D9234E0C0A1C3E73FD1
:1053D00056B90E07B80B2C053F3788C0CC072DEC0B
:1053E000032C058E3864C0D805AC1177BBB504D941
:1053F0003945C0FEC1F83F32BCED03DC0B2C115F18
:105400003C19C030C1FD3FB0BD5B029A3D0BC0F0FE
:10541000052C0973BE9201D03E03C0FC072D040485
:04542000E1010000A6
:04000005080000ED02
:00000001FF
