:0B43F100C2A2C2A1C2A0D2A0C2A022A2
:10438500C2A2C2A1C2A0D2A0C2A0C2A2D2A2C2A2EF
:07439500C2A1D2A1C2A122C6
:0538B200900344EFF05B
:1038B70090034D12114E4BB60B60900345E0FCA3ED
:1038C700E0FDA3E0FEA3E0FF7B007A24797478494A
:1038D700120B8F900345121142900345E0FCA3E0C1
:1038E700FDA3E0FEA3E0FF90034DE0F8A3E0F9A3FA
:1038F700E0FAA3E0FB120A869003451211429003F7
:1039070045E0FCA3E0FDA3E0FEA3E0FF120C6A90F4
:103917000349121142900344E0F580D2A2C2A2905B
:103927000349E0FCA3E0FDA3E0FEA3E0FF78181243
:1039370010F98F80D2A2C2A2900349E0FCA3E0FD58
:10394700A3E0FEA3E0FF78101210F98F80D2A2C285
:10395700A2900349E0FCA3E0FDA3E0FEA3E0FF780B
:10396700081210F98F80D2A2C2A2900349E0FCA3EB
:10397700E0FDA3E0FEA3E0FF790078001210F990C4
:0F39870003491211428F80D2A2C2A2D2A1C2A1C3
:01399600220E
:05318A009003A7EFF027
:10318F009003B012114E4BB60B609003A8E0FCA356
:10319F00E0FDA3E0FEA3E0FF7B007A247974784979
:1031AF00120B8F9003A81211429003A8E0FCA3E02A
:1031BF00FDA3E0FEA3E0FF9003B0E0F8A3E0F9A3C6
:1031CF00E0FAA3E0FB120A869003A81211429003C3
:1031DF00A8E0FCA3E0FDA3E0FEA3E0FF120C6A90C1
:1031EF0003AC1211429003ACE0FCA3E0FDA3E0FEA0
:1031FF00A3E0FF790078001210F99003AC1211428E
:10320F00E4FEEFA806088002C313D8FC139287D2FE
:10321F00A2C2A20EEEB408EA9003ACE0FCA3E0FD5C
:10322F00A3E0FEA3E0FF78081210F9E4FEEFA80672
:10323F00088002C313D8FC139287D2A2C2A20EEE4B
:10324F00B408EA9003ACE0FCA3E0FDA3E0FEA3E02A
:10325F00FF78101210F9E4FEEFA806088002C313DE
:10326F00D8FC139287D2A2C2A20EEEB408EA900342
:10327F00ACE0FCA3E0FDA3E0FEA3E0FF7818121082
:10328F00F9E4FEEFA806088002C313D8FC13928757
:10329F00D2A2C2A20EEEB408EA9003A7E0FFE4FEAA
:1032AF00EFA806088002C313D8FC139287D2A2C2DC
:0A32BF00A20EEEB408EAD2A1C2A1EB
:0132C90022E2
:041CB9004103F501ED
:0B1FC800900378EBF0A3EAF0A3E9F02F
:101FD300E4900383F0A3F0900389F0A3F0C2B690DA
:101FE30003F5E0B40119900366E0FCA3E0FDA3E070
:101FF300FEA3E0FF900385121142E49003F5F090F5
:102003000385E0FCA3E0FDA3E0FEA3E02403FFE4DB
:102013003EFEE43DFDE43CFC900366E0F8A3E0F9FA
:10202300A3E0FAA3E0FBC31210E8500302222B90B3
:1020330003F57401F0D2B630B62090038AE004F0C1
:102043007006900389E004F0D390038AE094D09063
:102053000389E0940740E0022205E4900389F0A39A
:10206300F020B62090038AE004F07006900389E024
:1020730004F0D390038AE094D0900389E09407405E
:10208300E002220530B62090038AE004F070069047
:102093000389E004F0D390038AE094D0900389E0AD
:1020A300940740E0022205E4900380F0E49003816A
:1020B300F0C28CC2A9FD900381E025E0F0E4F58C29
:1020C300F58A900389F0A3F020B62490038AE004F4
:1020D300F07006900389E004F0D390038AE094D073
:1020E300900389E0940740E0D2A9D28C022205E450
:1020F300900389F0A3F0D28C30B62490038AE004D5
:10210300F07006900389E004F0D390038AE094D042
:10211300900389E0940740E0D2A9D28C022205C241
:102123008CAF8CEFFEAC8AEC7A002400FFEA3EFE13
:10213300D3EF9402EE9400400FEF9428EE940050F6
:1021430007900381E0F08018D3EF9432EE940040BF
:102153000FEF9464EE94005007900381E04401F084
:102163000DED640860030220B9900380E0FF70085E
:10217300A3E0FE900378801CEFB4010A900381E092
:1021830090037EF08035900380E0FFB40214A3E057
:10219300FE90037BE0FBA3E0FAA3E0F9EE120E2727
:1021A3008019EFB4030A900381E090037FF0800B62
:1021B300900380E0B40404A3E0A3F0900380E00460
:1021C300F0E0640560030220AFD2B6900378E0FB31
:1021D300A3E0FAA3E0F9120DE1FF90037EE02FFFE5
:1021E30090037BE0FBA3E0FAA3E0F9120DE1FD2FDE
:1021F300FF90037FE02FFF900382E06F6008D2A976
:10220300D28CE4FEFF22EDFE900378E0FBA3E0FA1C
:10221300A3E0F9120DE17C002400FFEC3E90038360
:10222300F0A3EFF0D2A9D28C900383E0FEA3E0FFEA
:012233002288
:041CBD004103E6FAFF
:0842FF007F097E007D007C00B8
:1043070090035E12114290035E74FF12110FEC4D81
:054317004E4F70F22280
:102D2000E4FD7F8E124148900350E0FEA3E0FF7C5B
:102D3000007D64120E6D7E007F0ACFCDCFCECCCE4B
:102D4000120E6DEFC4F8540FC868FFAB0790035024
:102D5000E0FEA3E0FF7C007D0A120E6DED540F2B08
:102D60009003E9F0FD7F8C124148900352E0FEA3EE
:102D7000E0FF7C007D64120E6D7E007F0ACFCDCF18
:102D8000CECCCE120E6DEFC45410FB900352E0FE79
:102D9000A3E0FF7C007D0A120E6DED540F2B900313
:102DA000E9F0FD7F88124148900354E0FEA3E0FF64
:102DB0007C007D64120E6D7E007F0ACFCDCFCECC1D
:102DC000CE120E6DEFC45430FB900354E0FEA3E02E
:102DD000FF7C007D0A120E6DED540F2B9003E9F07D
:102DE000FD7F86124148900356E0FEA3E0FF7C0081
:102DF0007D64120E6D7E007F0ACFCDCFCECCCE1279
:102E00000E6DEFC45430FB900356E0FEA3E0FF7C50
:102E1000007D0A120E6DED540F2B9003E9F0FD7F3B
:102E200084124148900358E0FEA3E0FF7C007D64DB
:102E3000120E6D7E007F0ACFCDCFCECCCE120E6D9E
:102E4000EFC45470FB900358E0FEA3E0FF7C007DCC
:102E50000A120E6DED540F2B9003E9F0FD7F8212E4
:102E6000414890035AE0FEA3E0FF7C007D64120E0F
:102E70006D7E007F0ACFCDCFCECCCE120E6D9003EB
:102E80005A12412A90035CE0FEA3E0FF7C007D071C
:102E9000120E6DAF059003E9EFF07F8A1241487D75
:062EA000807F8E02414814
:102B9400E4FD7F8E12414890038BE0FEA3E0FF7CAE
:102BA400007D64120E6D7E007F0ACFCDCFCECCCED9
:102BB400120E6DEFC4F8540FC868FFAB0790038B77
:102BC400E0FEA3E0FF7C007D0A120E6DED540F2B96
:102BD4009003E9F0FD7F8C12414890038DE0FEA341
:102BE400E0FF7C007D64120E6D7E007F0ACFCDCFA6
:102BF400CECCCE120E6DEFC45410FB90038DE0FECC
:102C0400A3E0FF7C007D0A120E6DED540F2B9003A0
:102C1400E9F0FD7F8812414890038FE0FEA3E0FFB6
:102C24007C007D64120E6D7E007F0ACFCDCFCECCAA
:102C3400CE120E6DEFC45430FB90038FE0FEA3E080
:102C4400FF7C007D0A120E6DED540F2B9003E9F00A
:102C5400FD7F8612414890038BE0FEA3E0FF7C00D9
:102C64007D64120E6D7C007D04120EC2AA06AB07B1
:102C740090038BE0FEA3E0FF7C007D64120E6DEFF9
:102C840025E0FFEE33FEC3EB9FFBEA9EFA90038B35
:102C9400E0FEA3E0FF7C007D64120E6DEB2DFBEAE9
:102CA4003CFAAF05AE047C007D04120EC2EF2BFB90
:102CB400EE3AFA90038EE02401FF90038DE0340095
:102CC400FE7C007D1A120E5B7D0A120E6DEF2BFF47
:102CD400EE3AFE90038FE0FCA3E02FFFEE3CCF24FE
:102CE400FFCF34FFFE900397F0A3EFF07C007D0745
:102CF400120E6D900397ECF0A3EDF04C7008900366
:102D040097F0A37407F0900397A3E09003E9F0FD14
:0C2D14007F8A1241487D807F8E0241487A
:103E3E00E4FD7F8E12414890039FE0FEA3E0FF7CDD
:103E4E00007D64120E6D7E007F0ACFCDCFCECCCE1C
:103E5E00120E6DEFC45430FB90039FE0FEA3E0FF03
:103E6E007C007D0A120E6DED540F2B9003E9F0FDD0
:103E7E007F841241489003A1E0FEA3E0FF7C007D09
:103E8E0064120E6D7E007F0ACFCDCFCECCCE120E39
:103E9E006DEFC45470FB9003A1E0FEA3E0FF7C0025
:103EAE007D0A120E6DED540F2B9003E9F0FD7F820B
:103EBE001241489003A3E0FEA3E0FF7C007D641254
:103ECE000E6D7E007F0ACFCDCFCECCCE120E6D9072
:0C3EDE0003A312412A7D807F8E02414820
:102234009003F0EBF0A3EAF0A3E9F07F8D1243E4FE
:102244009003F0E0FBA3E0FAA3E0F9E48FF0120FAF
:10225400717F891243E49003F0E0FBA3E0FAA3E06A
:10226400F9900002E48FF0120F907F871243E490FC
:1022740003F0E0FBA3E0FAA3E0F9900004E48FF09C
:10228400120F907F851243E49003F0E0FBA3E0FA81
:10229400A3E0F9900006E48FF0120F907F831243BD
:1022A400E49003F0E0FBA3E0FAA3E0F9900008E473
:1022B4008FF0120F907F811243E49003F0E0FBA3B0
:1022C400E0FAA3E0F990000AE48FF0120F907F8BFC
:1022D4001243E49003F0E0FBA3E0FAA3E0F99000DA
:1022E4000CE48FF0120F90120F0EFBAAF0EAC4F860
:1022F40054F0C868FEEBC4540F48FF7C007D0A12FA
:102304000E5BEF24D0FFEE3407FEEB540F2FFFECEF
:102314003EF99003F0E0FBA3E0FAA3E0C98FF012CA
:102324000F719003F0E0FBA3E0FAA3E0F990000240
:10233400120F39FBAAF0EAC4F854F0C868FEEBC4E3
:10234400540F48FF120E5BEB540F2FFFEC3EFE9030
:1023540003F0E0FBA3E0FA900002EE8FF0120F907E
:10236400900004120F39FBAAF0EAC4F854F0C868CC
:10237400FEEBC4540F48FF120E5BEB540F2FFFEC1F
:102384003EFE9003F0E0FBA3E0FAA3E0F990000422
:10239400EE8FF0120F90900006120F39FBAAF0EAAC
:1023A400C4F854F0C868FEEBC4540F48FF120E5B27
:1023B400EB540F2FFFEC3EFE9003F0E0FBA3E0FA9A
:1023C400A3E0F9900006EE8FF0120F90900008122F
:1023D4000F39FBAAF0EAC4F854F0C868FEEBC45401
:1023E4000F48FF120E5BEB540F2FFFEC3EFE9003E1
:1023F400F0E0FBA3E0FAA3E0F9900008EE8FF012FE
:102404000F9090000A120F39FBAAF0EAC4F854F0B6
:10241400C868FEEBC4540F48FF120E5BEB540F2F39
:10242400FFEC3EFE9003F0E0FBA3E0FAA3E0F9909A
:08243400000AEE8FF0020F9088
:06426B00C285C283D2856A
:02427100AB0799
:104273007F1E124301E4FAC283EB1392841242FFBE
:0E428300D2831242FFEBC313FB0AEAB408E930
:01429100220A
:10418D00E4FB7F09FEFDFC124307E4FAEBC313FBCE
:10419D00D2837F0A124301C2837F0612430130840A
:0E41AD0004EB4480FB0AEAB408E2C284AF03CC
:0141BB0022E1
:10412A00EFC45470FBE0FEA3E0FF7C007D0A120E90
:0E413A006DED540F2B9003E9F0547FFD7F8054
:10414800A90512426BAF01124271D2837F06124356
:0441580001C28522F9
:0C43E400E4FE12426B12418DD283C285B0
:0143F00022AA
:1032CA00E4FD7F8E1241487F811243E4900340EF70
:1032DA001241427DA77F901241487FC11243E49078
:1032EA00034FEFF07D807F8E12414890034FE064D8
:1032FA006970030234079003417407F0A374DEF087
:10330A00A3E4F0A3740CF0A3E4F0A37405F0A3E41F
:10331A00F0A37412F0A3E4F0A37439F0A3E4F0A3C9
:10332A007432F0900341E0FEA3E0FF7C007D64125A
:10333A000E6DAC06AD07ED25E0FBEC33FAED780235
:10334A00CEC313CE13D8F9C39BFBEE9AFA9003416E
:10335A00E0FEA3E0FF7C007D64120E6DED2BFBEC1A
:10336A003AFAEDAE047802CEC313CE13D8F92BFB8A
:10337A00EA3EFA900344E02401FF900343E034005C
:10338A00FE7C007D1A120E5B7D0A120E6DEF2BFF7A
:10339A00EE3AFE900346E02FFF900345E03ECF242D
:1033AA00FFCF34FFFE90034DF0A3EFF07C007D07C2
:1033BA00120E6D90034DECF0A3EDF04C70089003E3
:1033CA004DF0A37407F078507C037D017B017A03EA
:1033DA0079417E007F0E120DBB122D20E4FD7F8EF7
:1033EA001241487F811243E4900340EF1241427D2B
:0D33FA00697FC01241487D807F8E124148DE
:0134070022A2
:101965009003BEEBF0A3EAF0A3E9F0A3E0FBA3E04C
:10197500FAA3E0F9120F0EFF9003BEE0FBA3E0FA15
:10198500A3E0F9E5F08FF0120F719003C1E0FBA31E
:10199500E0FAA3E0F9900002120F39FF9003BEE0D0
:1019A500FBA3E0FAA3E0F9900002E5F08FF0120F37
:1019B500909003C1E0FBA3E0FAA3E0F990000412C4
:1019C5000F39FF9003BEE0FBA3E0FAA3E0F9900016
:1019D50004E5F08FF0120F909003C1E0FBA3E0FA4D
:1019E500A3E0F9900006120F39FF9003BEE0FBA3B8
:1019F500E0FAA3E0F9900006E5F08FF0120F909061
:101A050003C1E0FBA3E0FAA3E0F9900008120F3947
:101A1500FF9003BEE0FBA3E0FAA3E0F9900008E520
:101A2500F08FF0120F909003C1E0FBA3E0FAA3E062
:101A3500F990000A120F39FF9003BEE0FBA3E0FA0C
:101A4500A3E0F990000AE5F08FF0120F909003C122
:101A5500E0FBA3E0FAA3E0F990000C120F39FF9028
:101A650003BEE0FBA3E0FAA3E0F990000CE5F08FDC
:101A7500F0120F90120F0EFFAEF07C007D64120E77
:101A85006D7E007F0ACFCDCFCECCCE120E6D9003EA
:101A9500C4E0FBA3E0FAA3E0F9EF120E279003BE22
:101AA500E0FBA3E0FAA3E0F9120F0EFFAEF07C0015
:101AB5007D0A120E6D9003C4E0FBA3E0FAA3E0F9E2
:101AC500900001ED120E399003BEE0FBA3E0FAA3EE
:101AD500E0F9900002120F39FFAEF07C007D0A128A
:101AE5000E6D9003C4E0FBA3E0FAA3E0F9900002B9
:101AF500EF120E399003BEE0FBA3E0FAA3E0F990E4
:101B05000002120F39FFAEF07C007D0A120E6D90B7
:101B150003C4E0FBA3E0FAA3E0F9900003ED120E85
:101B2500399003BEE0FBA3E0FAA3E0F990000412AC
:101B35000F39FFAEF07C007D0A120E6D9003C4E0F4
:101B4500FBA3E0FAA3E0F9900004EF120E3990032D
:101B5500BEE0FBA3E0FAA3E0F9900004120F39FF01
:101B6500AEF07C007D0A120E6D9003C4E0FBA3E08D
:101B7500FAA3E0F9900005ED120E399003BEE0FBE3
:101B8500A3E0FAA3E0F9900006120F39FFAEF07C4E
:101B9500007D0A120E6D9003C4E0FBA3E0FAA3E0FA
:101BA500F9900006EF120E399003BEE0FBA3E0FAB0
:101BB500A3E0F9900006120F39FFAEF07C007D0A14
:101BC500120E6D9003C4E0FBA3E0FAA3E0F99000C8
:101BD50007ED120E399003BEE0FBA3E0FAA3E0F98E
:101BE500900008120F39FFAEF07C007D0A120E6DD1
:101BF5009003C4E0FBA3E0FAA3E0F9900008EF121C
:101C05000E399003BEE0FBA3E0FAA3E0F9900008CB
:101C1500120F39FFAEF07C007D0A120E6D9003C4E1
:101C2500E0FBA3E0FAA3E0F9900009ED120E39906C
:101C350003BEE0FBA3E0FAA3E0F990000A120F3916
:101C4500FFAEF07C007D0A120E6D9003C4E0FBA38D
:101C5500E0FAA3E0F990000AEF120E399003BEE016
:101C6500FBA3E0FAA3E0F990000A120F39FFAEF0EA
:101C75007C007D0A120E6D9003C4E0FBA3E0FAA37D
:101C8500E0F990000BED120E399003BEE0FBA3E0E6
:101C9500FAA3E0F990000C120F39FF9003C4E0FBA2
:101CA500A3E0FAA3E0F990000CEF120E3990000DB5
:041CB500E4020E39FE
:102A05009003C7EBF0A3EAF0A3E9F0A3ECF0A3ED84
:102A1500F09003CAE0FEA3E0FF7C277D10120EC2F2
:102A25007E037FE8CFCDCFCECCCE120EC2EF2430C1
:102A3500FF9003C7E0FBA3E0FAA3E0F9EF120E272E
:102A45009003CAE0FEA3E0FF7C037DE8120EC27E80
:102A5500007F64CFCDCFCECCCE120EC2EF2430FF97
:102A65009003C7E0FBA3E0FAA3E0F9900001EF12A1
:102A75000E399003CAE0FEA3E0FF7C007D64120ED0
:102A8500C27E007F0ACFCDCFCECCCE120EC2EF24B0
:102A950030FF9003C7E0FBA3E0FAA3E0F990000242
:102AA500EF120E399003CAE0FEA3E0FF7C007D0A19
:102AB500120EC2ED2430FF9003C7E0FBA3E0FAA39A
:102AC500E0F9900003EF120E39900004742F120EF6
:102AD500399003CCE0FEA3E0FF7C007D64120EC2BA
:102AE5007E007F0ACFCDCFCECCCE120EC2EF2430E2
:102AF500FF9003C7E0FBA3E0FAA3E0F9900005EF20
:102B0500120E399003CCE0FEA3E0FF7C007D0A1293
:102B15000EC2ED2430FF9003C7E0FBA3E0FAA3E06B
:102B2500F9900006EF120E39900007742F120E3936
:102B35009003CEE0FEA3E0FF7C007D64120EC27E12
:102B4500007F0ACFCDCFCECCCE120EC2EF2430FF00
:102B55009003C7E0FBA3E0FAA3E0F9900008EF12A9
:102B65000E399003CEE0FEA3E0FF7C007D0A120E35
:102B7500C2ED2430FF9003C7E0FBA3E0FAA3E0F920
:0F2B8500900009EF120E3990000AE4120E392267
:103542009003D0EBF0A3EAF0A3E9F0A3ECF0A3ED33
:10355200F09003D3E0FEA3E0FF7C007D64120EC274
:103562007E007F0ACFCDCFCECCCE120EC2EF24305A
:10357200FF9003D0E0FBA3E0FAA3E0F9EF120E27DD
:103582009003D3E0FEA3E0FF7C007D0A120EC2EDA1
:103592002430FF9003D0E0FBA3E0FAA3E0F990000F
:1035A20001EF120E39900002743A120E399003D5CF
:1035B200E0FEA3E0FF7C007D64120EC27E007F0A63
:1035C200CFCDCFCECCCE120EC2EF2430FF9003D09F
:1035D200E0FBA3E0FAA3E0F9900003EF120E3990AA
:1035E20003D5E0FEA3E0FF7C007D0A120EC2ED24AB
:1035F20030FF9003D0E0FBA3E0FAA3E0F9900004CF
:10360200EF120E39900005743A120E399003D7E08A
:10361200FEA3E0FF7C007D64120EC27E007F0ACF13
:10362200CDCFCECCCE120EC2EF2430FF9003D0E02D
:10363200FBA3E0FAA3E0F9900006EF120E39900323
:10364200D7E0FEA3E0FF7C007D0A120EC2ED24301B
:10365200FF9003D0E0FBA3E0FAA3E0F9900007EFAC
:0B366200120E39900008E4120E39220D
:103024009003D9EBF0A3EAF0A3E9F0A3ECF0A3ED4D
:10303400F09003DCE0FEA3E0FF7C007D64120EC28E
:103044007E007F0ACFCDCFCECCCE120EC2EF24307D
:10305400FF9003D9E0FBA3E0FAA3E0F9EF120E27F7
:103064009003DCE0FEA3E0FF7C007D0A120EC2EDBB
:103074002430FF9003D9E0FBA3E0FAA3E0F9900029
:1030840001EF120E39900002743A120E399003DEE9
:10309400E0FEA3E0FF7C007D64120EC27E007F0A86
:1030A400CFCDCFCECCCE120EC2EF2430FF9003D9B9
:1030B400E0FBA3E0FAA3E0F9900003EF120E3990CD
:1030C40003DEE0FEA3E0FF7C007D0A120EC2ED24C5
:1030D40030FF9003D9E0FBA3E0FAA3E0F9900004E9
:1030E400EF120E399000057420120E399003E0E0BF
:1030F400FF75F06484E5F075F00A842430900006CE
:10310400120E39EF75F00A84E5F0243090000712AE
:103114000E399000087420120E399000097453126D
:103124000E3990000A743A120E399003E1E09003CC
:10313400D9B4011FE0FBA3E0FAA3E0F990000B74FB
:103144004F120E3990000C744E120E3990000D740B
:1031540020801DE0FBA3E0FAA3E0F990000B744F7C
:10316400120E3990000C7446120E3990000D7446FC
:10317400120E399003D9E0FBA3E0FAA3E0F9900022
:063184000EE4120E3922D8
:10000E008FC4EEF5C375C78375C50375C65A75C61D
:04001E00A500002217
:10429200A2AFE433FD8FC4EEF5C3C2AF75C7837519
:1042A200C50175C65A75C6A50000AFC2AE05EE249B
:0542B200FF92AF7E0049
:0142B70022E4
:10439C008DC28FC4EEF5C375C78375C50275C65A39
:0643AC0075C6A500002209
:1040EA00C6B5C2CA3A00284D20487A202900286B52
:1040FA0020487A2029002820487A20292000D5BC87
:10410A00BFD5B1C83A00BFAACABCC9A8C6B5002063
:10411A002020200000FF15E301FF243C02FF41BCE0
:101CC1004102DB014102DC014102A8014402E300BF
:101CD1000003E84102DA004403050000001E490246
:101CE100EC0000000000000000004103040041027C
:061CF100EB004102F500CA
:0B15E300900340EBF0A3EAF0A3E9F056
:1015EE009002A8E0640160030217C6F012421A7B53
:1015FE00FF7A4079EA7D027C007F027E001228305D
:10160E009002DAE0C3940350087BFF7A4079F080B1
:10161E00159002DAE0C394067BFF50067A4079F803
:10162E0080047A4179007D027C007F2A7E00122898
:10163E00307B007AE179F578059002E3E0FCA3E0D7
:10164E00FDA3E0FEA3E0FF121048900309EFF07B2C
:10165E00007AE179F578059002E3E0FCA3E0FDA3C2
:10166E00E0FEA3E0FF121048AC00AD01AE02AF03E6
:10167E007B807A967998780012104890030AEFF0E2
:10168E007B807A96799878009002E3E0FCA3E0FDE7
:10169E00A3E0FEA3E0FF121048AC00AD01AE02AF16
:1016AE00037B407A42790F780012104890030BEFBB
:1016BE00F07B407A42790F78009002E3E0FCA3E0E1
:1016CE00FDA3E0FEA3E0FF121048AC00AD01AE0298
:1016DE00AF037BA07A867901780012104890030C34
:1016EE00EFF07BA07A86790178009002E3E0FCA30C
:1016FE00E0FDA3E0FEA3E0FF121048AC00AD01AE8A
:10170E0002AF03E47B107A27F9F812104890030D0C
:10171E00EFF0E47B107A27F9F89002E3E0FCA3E007
:10172E00FDA3E0FEA3E0FF121048AC00AD01AE0237
:10173E00AF03E47BE87A03F9F812104890030EEF3A
:10174E00F0E47BE87A03F9F89002E3E0FCA3E0FD15
:10175E00A3E0FEA3E0FF121048AC00AD01AE02AF55
:10176E0003E47B64FAF9F812104890030FEFF0E4EB
:10177E007B64FAF9F89002E3E0FCA3E0FDA3E0FE3F
:10178E00A3E0FF121048AC00AD01AE02AF03E47B44
:10179E000AFAF9F8121048900310EFF0E47B0AFAF7
:1017AE00F9F89002E3E0FCA3E0FDA3E0FEA3E0FF66
:1017BE00121048900311EBF0900340E0FBA3E0FA07
:1017CE00A3E0F9900002120DFA14603724FD6010A8
:1017DE0014603514600C24FE6006240670308002FE
:1017EE00800F9002DAE02409F582E43403F5838059
:1017FE001A9002DAE02409F582E43403F583E0144A
:10180E00F0800B9002DA80039002DAE004F090028E
:10181E00DAE075F00984E5F0F0E0FF2409F582E4E2
:10182E003403F583E0B4FF0D74092FF582E434031D
:10183E00F5837409F09002DAE02409F582E43403AA
:10184E00F583E075F00A84E5F0F01211919002E351
:10185E001211429002DAE0FFC39403500A74B72FBC
:10186E00F582E434028018EFC39406500A74B82F40
:10187E00F582E43402800874B92FF582E43402F55F
:10188E0083E02480F07B017A0279B77D047F121207
:10189E004007900340E0FBA3E0FAA3E0F9900002BA
:1018AE00120DFA70030219649002DAE0C394035029
:1018BE00087BFF7A4079F080159002DAE0C3940637
:1018CE007BFF50067A4079F880047A4179007D02D8
:1018DE007C007F2A7E001228309002E3E0FCA3E019
:1018EE00FDA3E0FEA3E0FFE4120C2C9003451211C1
:1018FE00427F011238B2E4FFFE12000EE490034361
:10190E00F0900343E0FF7E002409F582E43403F5F2
:10191E0083E0FD12439C900343E004F0E0C394097E
:10192E0040DFE4900343F0900343E0FD2409FFE41D
:10193E0033FE74EC2DF582E43402F583E0FD1243A0
:10194E009C900343E004F0E0C3940340DA7D557F9E
:06195E000C7E0012439C08
:011964002260
:0B243C00900340EBF0A3EAF0A3E9F0EE
:102447009002A8E06401707AF012421A7BFF7A4189
:1024570079087D027C007F027E00122830E47B64CD
:10246700FAF9F8900305E0FCA3E0FDA3E0FEA3E082
:10247700FF1210489002ECEFF0E47B64FAF9F89051
:102487000305E0FCA3E0FDA3E0FEA3E0FF12104874
:10249700AC00AD01AE02AF03E47B0AFAF9F8121003
:1024A700489002EDEFF0E47B0AFAF9F8900305E0B3
:1024B700FCA3E0FDA3E0FEA3E0FF1210489002EEAC
:1024C700EBF0900340E0FBA3E0FAA3E0F9900002F1
:1024D700120DFA14603724FD601014603514600C77
:1024E70024FE6006240670308002800F900304E00B
:1024F70024ECF582E43402F583801A900304E02487
:10250700ECF582E43402F583E014F0800B900304C9
:102517008003900304E004F0900304E0B403037421
:1025270001F0900304E070037402F09002EDE0D331
:1025370094054002E4F09002EDE0B4FF037405F067
:102547009002EDE0B40509A3E0D394054002E4F05E
:102557009002EEE0D394094002E4F09002EEE0B47A
:10256700FF037409F0122EA690030512114290037F
:1025770004E024B7F582E43402F583E02480F07B9D
:10258700017A0279B77D047F12124007900340E079
:10259700FBA3E0FAA3E0F9900002120DFA70030220
:1025A7002642900305E0FCA3E0FDA3E0FEA3E0FFC5
:1025B700E4120C2CE4FBFA79C87842120B8FE4FB87
:1025C700FA797F7843120A86120C6A1240A49003A4
:1025D70005A3A3A3E024C8FF1240A4E4FFFE120052
:1025E7000EE4900343F0900343E0FF7E002409F5D7
:1025F70082E43403F583E0FD12439C900343E00437
:10260700F0E0C3940940DFE4900343F0900343E014
:10261700FD2409FFE433FE74EC2DF582E43402F562
:1026270083E0FD12439C900343E004F0E0C394036E
:0B26370040DA7D557F0C7E0012439CB2
:012642002275
:1041BC00900340EBF0A3EAF0A3E9F09002A8E0B47E
:1041CC00011CE4F012421A7BFF7A4179107D027CCB
:0E41DC00007F027E001228309002F57401F080
:0141EA0022B2
:103EEA009002DCE0B40124900366E0FCA3E0FDA3A9
:103EFA00E0FEA3E02464FFE43EFEE43DFDE43CFC76
:103F0A009002E7121142E49002DCF09002E7E0FC32
:103F1A00A3E0FDA3E0FEA3E0FF900366E0F8A3E0C0
:103F2A00F9A3E0FAA3E0FBC31210E8404374FF7F51
:103F3A009CFEFDFC900366E0F8A3A3A3E01210E840
:103F4A00502E9002DC7401F090034212114E0000D0
:103F5A0000029003467401F0A37410F07D06E4FF9A
:103F6A00123CDB7BFF7A4179197D06E4FF12400798
:013F7A002224
:101191009003477401F0A37402F0A374B7F07B01CC
:0411A1007A0379094B
:0B11A500900344EBF0A3EAF0A3E9F094
:1011B00090034A12114E0000000090034AE0F8A389
:1011C000E0F9A3E0FAA3E0FBC000C001C002C00345
:1011D000900344E0FBA3E0FAA3E0F9120DE1FFE481
:1011E000FCFDFEFB7AE179F57805120FBDD003D046
:1011F00002D001D000EB2FFFEA3EFEE93DFDE83CC6
:10120000FC90034A12114290034AE0F8A3E0F9A3CC
:10121000E0FAA3E0FBC000C001C002C00390034499
:10122000E0FBA3E0FAA3E0F9900001120DFAFFE45D
:10123000FCFDFE7B807A967998F8120FBDD003D022
:1012400002D001D000EB2FFFEA3EFEE93DFDE83C75
:10125000FC90034A12114290034AE0F8A3E0F9A37C
:10126000E0FAA3E0FBC000C001C002C00390034449
:10127000E0FBA3E0FAA3E0F9900002120DFAFFE40C
:10128000FCFDFE7B407A42790FF8120FBDD003D0EF
:1012900002D001D000EB2FFFEA3EFEE93DFDE83C25
:1012A000FC90034A12114290034AE0F8A3E0F9A32C
:1012B000E0FAA3E0FBC000C001C002C003900344F9
:1012C000E0FBA3E0FAA3E0F9900003120DFAFFE4BB
:1012D000FCFDFE7BA07A867901F8120FBDD003D009
:1012E00002D001D000EB2FFFEA3EFEE93DFDE83CD5
:1012F000FC90034A12114290034AE0F8A3E0F9A3DC
:10130000E0FAA3E0FBC000C001C002C003900344A8
:10131000E0FBA3E0FAA3E0F9900004120DFAFF7ECF
:10132000007C277D10120E5BE4FCFDD003D002D0C0
:1013300001D000EB2FFFEA3EFEED39FDEC38FC90CA
:10134000034A12114290034AE0F8A3E0F9A3E0FA3D
:10135000A3E0FBC000C001C002C003900344E0FB57
:10136000A3E0FAA3E0F9900005120DFAFF7E007CDD
:10137000037DE8120E5BE4FCFDD003D002D001D067
:1013800000EB2FFFEA3EFEED39FDEC38FC90034AFE
:1013900012114290034AE0F8A3E0F9A3E0FAA3E0B7
:1013A000FBC000C001C002C003900344E0FBA3E007
:1013B000FAA3E0F9900006120DFA75F064A4FFE4B8
:1013C000FCFDD003D002D001D000EB2FFFEA35F0B6
:1013D000FEED39FDEC38FC90034A12114290034AAD
:1013E000E0F8A3E0F9A3E0FAA3E0FBC000C001C06D
:1013F00002C003900344E0FBA3E0FAA3E0F99000ED
:1014000007120DFA75F00AA4FFE4FCFDD003D00228
:10141000D001D000EB2FFFEA35F0FEED39FDEC38BE
:10142000FC90034A12114290034AE0F8A3E0F9A3AA
:10143000E0FAA3E0FBC000C001C002C00390034477
:10144000E0FBA3E0FAA3E0F9900008120DFAFFE434
:10145000FCFDFED003D002D001D000EB2FFFEE3A0E
:10146000FEED39FDEC38FC90034A12114290034422
:10147000E0FBA3E0FAA3E0F9120DE12430FF9003B2
:1014800047E0FBA3E0FAA3E0F9EF120E2790034434
:10149000E0FBA3E0FAA3E0F9900001120DFA24307A
:1014A000FF900347E0FBA3E0FAA3E0F9900001EF0F
:1014B000120E39900344E0FBA3E0FAA3E0F9900098
:1014C00002120DFA2430FF900347E0FBA3E0FAA3D9
:1014D000E0F9900002EF120E39900003742C120E06
:1014E00039900344E0FBA3E0FAA3E0F99000031273
:1014F0000DFA2430FF900347E0FBA3E0FAA3E0F9E4
:10150000900004EF120E39900344E0FBA3E0FAA32D
:10151000E0F9900004120DFA2430FF900347E0FB3D
:10152000A3E0FAA3E0F9900005EF120E399003440E
:10153000E0FBA3E0FAA3E0F9900005120DFA2430D5
:10154000FF900347E0FBA3E0FAA3E0F9900006EF69
:10155000120E39900007742C120E39900344E0FBF0
:10156000A3E0FAA3E0F9900006120DFA2430FF90F0
:101570000347E0FBA3E0FAA3E0F9900008EF120EA6
:1015800039900344E0FBA3E0FAA3E0F990000712CE
:101590000DFA2430FF900347E0FBA3E0FAA3E0F943
:1015A000900009EF120E39900344E0FBA3E0FAA388
:1015B000E0F9900008120DFA2430FF900347E0FB99
:1015C000A3E0FAA3E0F990000AEF120E3990000BA5
:1015D000E4120E3990034AE0FCA3E0FDA3E0FEA371
:0215E000E0FF2A
:0115E20022E6
:102EA6009003477401F0A37402F0A374B7F07B019A
:042EB6007A0279EC37
:0B2EBA00900344EBF0A3EAF0A3E9F062
:102EC50090034A12114E0000000090034AE0F8A357
:102ED500E0F9A3E0FAA3E0FBC001C002C003900340
:102EE50044E0FBA3E0FAA3E0F9120DE175F064A458
:102EF500FFE4FCFDD003D002D001EB2FFFEA35F053
:102F0500FEED39FDEC38FC90034A12114290034A5C
:102F1500E0F8A3E0F9A3E0FAA3E0FBC000C001C01C
:102F250002C003900344E0FBA3E0FAA3E0F990009C
:102F350001120DFA75F00AA4FFE4FCFDD003D002DE
:102F4500D001D000EB2FFFEA35F0FEED39FDEC386E
:102F5500FC90034A12114290034AE0F8A3E0F9A35A
:102F6500E0FAA3E0FBC000C001C002C00390034427
:102F7500E0FBA3E0FAA3E0F9900002120DFAFFE4EA
:102F8500FCFDFED003D002D001D000EB2FFFEE3ABE
:102F9500FEED39FDEC38FC90034A121142900344D2
:102FA500E0FBA3E0FAA3E0F9120DE12430FF900362
:102FB50047E0FBA3E0FAA3E0F9EF120E27900344E4
:102FC500E0FBA3E0FAA3E0F9900001120DFA24302A
:102FD500FF900347E0FBA3E0FAA3E0F9900001EFBF
:102FE500120E39900344E0FBA3E0FAA3E0F9900048
:102FF50002120DFA2430FF900347E0FBA3E0FAA389
:10300500E0F9900002EF120E39900003E4120E3938
:0E30150090034AE0FCA3E0FDA3E0FEA3E0FF71
:01302300228A
:103A7C007F0C7E00124292EF64554E605BE4900323
:103A8C0040F0900340E0FFC39409501474092FF5E3
:103A9C0082E43403F583E4F0900340E004F080E228
:103AAC00E4900340F0900340E0FFC394035014747F
:103ABC00EC2FF582E43402F583E4F0900340E0044B
:103ACC00F080E29002E312114E000000009003051A
:103ADC0012114E0000000022E4900340F0900340CD
:103AEC00E0FFC39409501C7E00124292900340E008
:103AFC002409F582E43403F583EFF0900340E004ED
:103B0C00F080DAE4900340F0900340E0FFC39403AC
:103B1C005021EF2409FFE433FE124292900340E05F
:103B2C0024ECF582E43402F583EFF0900340E004DA
:103B3C00F080D51211919002E3121142122EA69030
:053B4C00030512114207
:013B51002251
:0943FC00C9A8C6B5BDE1CAF8006C
:101CF7004103760041036E0044036A00000000427E
:041D0700036F000066
:10340800E5B01313543F44F0F4FD900376E0AF05A4
:103418006D5DA3F0900376EFF090036EE0701F905F
:103428000366E0FCA3E0FDA3E0FEA3E02401FFE4C3
:103438003EFEE43DFDE43CFC900362121142900321
:1034480077E0600690036E7401F090036EE06070A0
:10345800900362E0FCA3E0FDA3E0FEA3E0FFA3E08D
:10346800F8A3E0F9A3E0FAA3E0FBD31210E8405078
:10347800900376E024FE601B24FE601F1460342451
:10348800FD602024FE6024240970309003717401CB
:10349800F0802D9003717404F080259003717403FB
:1034A800F0801D9003717402F08015900371740907
:1034B800F0800D9003717410F08005E4900371F0B2
:1034C800E47F64FEFDFC900372E0F8A3E0F9A3E05A
:1034D800FAA3E0FBC31210E8405A90037212114E8F
:1034E80000000050900376E024FE601B24FE601F5D
:1034F80014603424FD602024FE6024240970309078
:1035080003717405F0802D9003717408F080259084
:1035180003717407F0801D9003717406F080159094
:1035280003717411F0800D9003717412F08005E43A
:09353800900371F0900371E0FFB3
:013541002267
:1043C500900371E06009E490036EF0900371F022B0
:1043B2005389F0438902758A9C758C9CD2A9D2AF2D
:0343C200D28C2278
:030026000243B2E0
:03000B0002379227
:10379200C0E0C0F0C083C082C0D075D000C000C0FD
:1037A20001C002C003C004C005C006C0079002F5F4
:1037B200E06401707390036AE0FCA3E0FDA3E0FE05
:1037C200A3E0FFE4120C2C9003451211427F011278
:1037D20038B290036AE0FCA3E0FDA3E0FEA3E0247C
:1037E20005FFE43EFEE43DFDE43CFC90036A121159
:1037F200427F007EB47DC47C0490036AE0F8A3E0BB
:10380200F9A3E0FAA3E0FBC31210E8401B90036A9D
:1038120012114E000000007BFF7A4379FC7D027C8E
:10382200007F027E00122830900370E004F07006E0
:1038320090036FE004F090036FE07004A3E064640F
:10384200705390036FF0A3F0900366E0FCA3E0FDD9
:10385200A3E0FEA3E02401FFE43EFEE43DFDE43CE0
:10386200FC900366121142900376E0900372601E90
:10387200E0FCA3E0FDA3E0FEA3E02401FFE43EFEA2
:10388200E43DFDE43CFC90037212114280071211E8
:103892004E00000000D007D006D005D004D003D0DF
:1038A20002D001D000D0D0D082D083D0F0D0E0328C
:1041EB00BFB5CDFEB5E7D7D300444453393835318D
:1041FB0000B1E3D0AFCABDC6B5C2CAD4B400B3F5E3
:0F420B00CABCBBAF2E00B3F5CABCBBAF2E2E0092
:0C1D0B004103BA004103BC004103BD00CD
:10366D00123D8E12002612431C1232CA12435312FF
:10367D0043F19002E3E0FCA3E0FDA3E0FEA3E0FF35
:10368D00E4120C2C9003451211427F011238B2E462
:10369D00FF1240A4123A7C7BFF7A4179EBE4FDFCEA
:1036AD007F1EFE1228307BFF7A4179F47D027C006B
:1036BD007F247E001228307BFF7A4179FC7D047CCB
:1036CD00007F107E001228307BFF7A4279097D063B
:1036DD007C007F347E001228307F2C7E011243390E
:1036ED007BFF7A4279117D067C007F347E001228A3
:1036FD00307BFF7A427911E4900347F07D06FC7F21
:10370D0034FE1226439003BDE09003BCF012340842
:10371D009003B9EFF0BF0308A3E004F0E05401F00B
:10372D009003B9E0B40704A37402F09003BAE0FF6C
:10373D0025E025E0241FF582E43441F583E493F977
:10374D00740193FA7402939003B4C9F0A3EAF0A341
:10375D00E9F09003BDEFF09003BCE06F60069002BE
:10376D00A87401F07B017A0379B7C0029003B4A36A
:10377D00E0FAA3E0F5828A83D00212118F1243C5BD
:05378D00123EEA8080FD
:104243007F0A7E00124259C2A47F0A7E001242599D
:06425300D2A47F0A7E00E8
:104259007C007D6E120E5BEF1FAC0670011E4C7068
:02426900F6223B
:0240A400AB0768
:1040A6007911D2A3C2A4C2A3124255E4FAE930E7B9
:1040B60004D2A58002C2A5124243E925E0F90AEA24
:1040C600B408EAE4FAEB30E704D2A58002C2A512EE
:1040D6004243EB25E0FB0AEAB408EAD2A37F0A7E54
:0440E6000002425939
:10002E000000000000000000002F0000000007008C
:10003E00070000147F147F1400242A7F2A12006206
:10004E0064081323003649552250000005030000B2
:10005E0000001C224100000041221C000014083E3A
:10006E0008140008083E0808000000A06000000800
:10007E000808080800006060000000201008040254
:10008E00003E5149453E0000427F40000042615112
:10009E004946002141454B31001814127F100027AC
:1000AE0045454539003C4A4949300001710905036F
:1000BE0000364949493600064949291E00003636A0
:1000CE000000000056360000000814224100001403
:1000DE0014141414000041221408000201510906E0
:1000EE0000324959513E007C1211127C007F494961
:1000FE004936003E41414122007F4141221C007F92
:10010E0049494941007F09090901003E4149497A9F
:10011E00007F0808087F0000417F41000020404119
:10012E003F01007F08142241007F40404040007F85
:10013E00020C027F007F0408107F003E4141413EC9
:10014E00007F09090906003E4151215E007F091911
:10015E0029460046494949310001017F0101003F0E
:10016E004040403F001F2040201F003F4038403F8E
:10017E0000631408146300070870080700615149F2
:10018E00454300007F41410000552A552A55000085
:10019E0041417F0000040201020400404040404003
:1001AE00000001020400002054545478007F48449B
:1001BE00443800384444442000384444487F0038D2
:1001CE005454541800087E0901020018A4A4A47CFB
:1001DE00007F080404780000447D400000408084C5
:1001EE007D00007F102844000000417F4000007C0D
:1001FE0004180478007C0804047800384444443819
:10020E0000FC242424180018242418FC007C080464
:10021E00040800485454542000043F444020003C3D
:10022E004040207C001C2040201C003C4030403CC4
:10023E00004428102844001CA0A0A07C0044645454
:10024E004C44141414141414000000000000000098
:10025E000000000000000000000000F80000000098
:10026E00000000333000000000100C06100C0600D9
:10027E00000000000000000040C07840C078400040
:10028E00043F04043F040400007088FC08300000A2
:10029E00001820FF211E0000F008F000E0180000FA
:1002AE0000211C031E211E0000F0088870000000B3
:1002BE001E2123241927211010160E000000000005
:1002CE000000000000000000000000E01804020022
:1002DE00000000071820400000020418E000000093
:1002EE000040201807000000404080F08040400091
:1002FE000202010F01020200000000F000000000E7
:10030E000101011F010101000000000000000000BA
:10031E0080B070000000000000000000000000002F
:10032E0000010101010101010000000000000000B8
:10033E000030300000000000000000008060180453
:10034E00006018060100000000E010080810E00030
:10035E00000F102020100F00001010F800000000F9
:10036E000020203F20200000007008080888700040
:10037E0000302824222130000030088888483000C0
:10038E000018202020110E000000C02010F80000E0
:10039E0000070424243F240000F808888808080079
:1003AE000019212020110E0000E01088881800008E
:1003BE00000F112020110E0000380808C838080060
:1003CE000000003F000000000070880808887000E0
:1003DE00001C222121221C0000E010080810E00061
:1003EE000000312222110F00000000C0C0000000EA
:1003FE00000000303000000000000080000000000F
:10040E000000806000000000000080402010080006
:10041E0000010204081020004040404040404000CF
:10042E0004040404040404000008102040800000AA
:10043E000020100804020100007048080808F000AF
:10044E000000003036010000C030C828E810E0007F
:10045E000718272423140B000000C038E00000000A
:10046E00203C23020227382008F888888870000074
:10047E00203F202020110E00C03008080808380048
:10048E00071820202010080008F808080810E000BF
:10049E00203F202020100F0008F88888E808100060
:1004AE00203F20202320180008F88888E808100034
:1004BE00203F200003000000C0300808083800006C
:1004CE0007182020221E020008F808000008F8086D
:1004DE00203F210101213F20000808F808080000F4
:1004EE000020203F2020000000000808F808080027
:1004FE00C08080807F00000008F888C0281808009F
:10050E00203F20012638200008F8080000000000D7
:10051E00203F20202020300008F8F800F8F80800CE
:10052E00203F003F003F200008F830C00008F808C8
:10053E00203F200007183F00E01008080810E000D8
:10054E000F10202020100F0008F808080808F000EF
:10055E00203F210101010000E01008080810E00012
:10056E000F18242438504F0008F8888888887000A7
:10057E00203F2000030C3020007088080808380047
:10058E000038202121221C00180808F8080818003D
:10059E000000203F2000000008F808000008F808BE
:1005AE00001F202020201F000878880000C838086F
:1005BE00000007380E010000F80800F80008F800E7
:1005CE00033C0700073C0300081868808068180881
:1005DE0020302C03032C30200838C800C8380800FF
:1005EE000000203F2000000010080808C83808004E
:1005FE002038262120201800000000FE02020200F2
:10060E000000007F40404000000C30C000000000A1
:10061E00000000010638C00000020202FE000000C9
:10062E00004040407F00000000000402020204006F
:10063E0000000000000000000000000000000000AC
:10064E008080808080808080000202040000000094
:10065E00000000000000000000008080808000008C
:10066E000019242222223F2008F80080800000007A
:10067E00003F112020110E0000000080808000003D
:10068E00000E112020201100000000808088F8004C
:10069E00000E112020103F2000008080808000007E
:1006AE00001F222222221300008080F088888818E2
:1006BE000020203F202000000000808080808000ED
:1006CE00006B94949493600008F800808080000082
:1006DE00203F210000203F2000809898000000005D
:1006EE000020203F2020000000000080989800008D
:1006FE0000C08080807F000008F8000080808000AD
:10070E00203F24022D302000000808F800000000D1
:10071E000020203F2020000080808080808080008C
:10072E00203F20003F20003F80800080808000001E
:10073E00203F210000203F200000808080800000AC
:10074E00001F202020201F008080008080000000DD
:10075E0080FFA12020110E0000000080808080000C
:10076E00000E112020A0FF808080800080808000FD
:10077E0020203F212000010000008080808080002A
:10078E000033242424241900008080E0808000009F
:10079E000000001F202000008080000000808000EC
:1007AE00001F202020103F2080808000008080804D
:1007BE0000010E30080601008080008000808080DD
:1007CE000F300C030C300F00008080008080800002
:1007DE000020312E0E31200080808000008080802D
:1007EE0080818E70180601000080808080808000DD
:1007FE000021302C2221300000000000807C0202FB
:10080E0000000000003F404000000000FF0000001C
:10081E0000000000FF0000000002027C80000000CB
:10082E000040403F000000000006010102020404E7
:10083E000000000000000000004042445840407F8D
:10084E0040405048C60000000000000000000000BC
:10085E0000000000000000000040444444444444B2
:10086E0044444444FF00000000000000000000006B
:10087E0000000000000000000808E8292E28E80803
:10088E0008C80C0BE808080000000000000000007B
:10089E0000000000000000000000FF0949897F00F1
:1008AE00000F40807F0000000000000000000000EC
:1008BE0000000000000000001060028C00FE92920A
:1008CE0092929292FE0000000000000000000000D4
:1008DE00000000000000000004047E014448507F28
:1008EE0040407F50484440000000000000000000DF
:1008FE0000000000000000000000FC242424FC2561
:10090E002624FC2424240400000000000000000023
:10091E00000000000000000040308F80844C552500
:10092E002525554C8080800000000000000000004E
:10093E0000000000000000001060028C0000FE921B
:10094E0092929292FE000000000000000000000053
:10095E00000000000000000004047E01407E4242C0
:10096E007E427E42427E40000000000000000000F9
:10097E0000000000000000000000FC242424FC25E0
:10098E002624FC24242404000000000000000000A3
:10099E00000000000000000040308F80844C552580
:1009AE002525554C808080000000000000000000CE
:1009BE000000000000000000404042CC0040A09E1D
:1009CE008282829EA0202000000000000000000015
:1009DE0000000000000000000000003F908840432F
:1009EE002C1028464180800000000000000000000E
:1009FE000000000000000000001715D55557557D6A
:100A0E00555755D5151700000000000000000000D6
:100A1E0000000000000000004040407F5555555535
:100A2E005555557F4040400000000000000000007A
:100A3E000000000000000000424AD26A46C000F2E8
:100A4E00121AD61212F2020000000000000000007E
:100A5E00000000000000000040807F000100804F79
:100A6E0020180710204F800000000000000000003A
:080A7E00000000000000000070
:101D170062A80000CDFE0000F8484848C848484877
:101D2700FF0809CA080080601F828A5623528E4026
:101D370027182641F000BFB50000FC445454545501
:101D4700FE545454F444440040300F402315498155
:101D57007F05091129444000B5E70000F888888805
:101D670088FF88888888F800000000001F08080896
:101D7700087F888888889F80F000D7D380828282F6
:101D8700828282E2A2928A8682808000000000001E
:101D97000040807F0000000000000000B1E3806089
:101DA700F80700FA4A4A4AFE4A4A4AFA020000007D
:101DB700FF008083462A122F424282838000D0AFE1
:101DC700101010FF109008FC5754FD56545404008F
:101DD7000444827F018044271D0505155D95710028
:101DE700CABD101090909090901010FF101011160F
:101DF7001000002060203F10101000030C1020403E
:101E0700F800C6B5407C407F484840F2121AD61207
:101E170012F20200908E404F201E804F20180710AC
:101E2700204F8000C2CA0014A4442434AD66249411
:101E37000444A414000008090808090909FD090950
:101E47000B0808090800D4B41060028C00FE02F2E7
:101E5700525A565252F2020004047E41300F2013A8
:101E670049817F0109132000B3F5080889EA18881A
:101E7700000404FC040404FC0000020100FF0186C6
:101E8700402018074080403F0000CABC1010F01FD8
:101E970010F00040E05847405060C000402215084D
:101EA70016210000FE42424242FE0000BBAF008006
:101EB70060F807000000FF40201008040000010040
:101EC70000FF000402013F40404040407800D5BC7D
:101ED70000000000000000FF0808080808080800C4
:101EE7000000FF414141414141414141FF000000A4
:101EF700BFD5100C44241404050604041424441408
:101F07000C00004040414141417F41414141404037
:101F17000000B1C80000FE4040404000FF80402064
:101F27001008000000007F20201010003F404040B4
:101F370040407800BFAA80828282FE8282828282AB
:101F4700FE8282828000008040300F000000000087
:101F5700FF0000000000C9A8101010FF10900484B3
:101F67008484848484FC00000444827F0100202050
:101F770020202020207F0000BDE12030AC63201806
:101F8700084848487F48484808002267221212122A
:101F970000FE4242424242FE0000CAF80404E42422
:101FA700242424FF24242424E4040400404027227A
:0C1FB700120A06FF060A12222740400012
:10433900EF4E60157D087C07ED1DAA0470011C4A2B
:0943490070F6EF1F70EA1E80E718
:014352002248
:08415C00F583E493F4FF7D01FB
:10416400ED6004D2918002C291C2A7E4FEC293EF33
:1041740030E704D2928002C292D293EF25E0FF0E80
:08418400EEB408E9D2A7D291C4
:01418C002210
:0542B800AF02E904FD66
:1042BD00AC07ED24B0FFE4FD124164EC54F0C4549E
:1042CD000F4410FF124164EC540F4401FF0241648E
:10421A00E4FCEC24B0FFE4FD124164E4FF124164C3
:10422A007F10124164E4FB7D01E4FF1241640BEB51
:08423A00B480F40CECB408DAC6
:014242002259
:063B5200AA07A905AF035C
:103B5800E4FCEF24E0FBEAD3947F4004E4FA09098B
:103B6800EB2420FFE433FEC3EF9480EE648094805E
:103B7800505BAF02AD011242BDE4FC75F010EBA43E
:103B88002CF582E435F0F583E5822456F582E58349
:103B98003402F583E493FF7D011241640CECB40810
:103BA800DA1242B8E4FC75F010EBA42CF582E43587
:103BB800F0F583E582245EF582E5833402F583E43B
:103BC80093FF7D011241640CECB408DA2274802B57
:103BD800FBAF02AD011242BDE4FC75F010EBA42C62
:103BE800F582E435F0F583E5822456F582E58334E1
:103BF8000212415C0CECB408E11242B8E4FC75F026
:103C080010EBA42CF582E435F0F583E582245EF50B
:0E3C180082E583340212415C0CECB408E12218
:063C2600AA07A905AF0387
:103C2C00E4FCEF24E0FBEAD3947F4004E4FA0909B6
:103C3C00AF02AD011242BDE4FC900357E075F010E9
:103C4C00B4011AEBA42CF582E435F0F583E582245B
:103C5C0056F582E5833402F583E4938019EBA42CAA
:103C6C00F582E435F0F583E5822456F582E583345C
:103C7C0002F583E493F4FF7D011241640CECB4086B
:103C8C00B81242B8E4FC900357E075F010B4011A76
:103C9C00EBA42CF582E435F0F583E582245EF58205
:103CAC00E5833402F583E4938019EBA42CF582E4CC
:103CBC0035F0F583E582245EF582E5833402F583E5
:0F3CCC00E493F4FF7D011241640CECB408B822BC
:08405B0090034BEFF0A3EDF020
:10406300A312114E0000000190034CE0FF14F0EF87
:104073006020A3E0F8A3E0F9A3E0FAA3E0FB900338
:104083004BE0FFE4FCFDFE120FBD90034D12114205
:1040930080D690034DE0FCA3E0FDA3E0FEA3E0FF88
:0140A30022FA
:083CDB00900340EFF0A3EDF0AF
:103CE300E490034AF0900348F0900346E0FF90030A
:103CF30048E0FEC39F4003023D8DC3EF9E14FD7F4A
:103D03000A12405BA804A905AA06AB07900342E088
:103D1300FCA3E0FDA3E0FEA3E0FF121048E47B0A4E
:103D2300FAF9F8121048900349EBF0A3E0703090D1
:103D33000346E014FF900348E0FEC39F5021A3E035
:103D43007017900347E0C3138EF0A4FF900340E085
:103D53002FFFA3E0FD7B20802590034A7401F090A0
:103D63000347E0C313FFA3E0FEEF8EF0A4FF90032D
:103D730040E02FFFA3E0FD900349E02430FB123B1A
:0A3D830052900348E004F0023CEC0B
:013D8D002213
:10400700900344EFF0A3EDF0A3EBF0A3EAF0A3E9EC
:01401700F0B8
:10401800E4A3F0900346E0FBA3E0FAA3E0F9A3E0F1
:10402800F582758300120DFAFB6027900344E0FFC8
:10403800A3E0FD123B52900344E02408F0E0D3943F
:10404800784007E4F0A3E02402F0900349E004F08C
:0240580080C125
:01405A002243
:103D8E00D2907F647E00124339C2907F647E00120F
:103D9E004339D290E4FD7FAE124164E4FF124164D8
:103DAE007F101241647F401241647F811241647F13
:103DBE00CF1241647FA11241647FC81241647FA675
:103DCE001241647FA81241647F3F1241647FD31277
:103DDE004164E4FF1241647FD51241647F80124139
:103DEE00647FD91241647FF11241647FDA1241641B
:103DFE007F121241647FDB1241647F401241647F67
:103E0E00201241647F021241647F8D1241647F143F
:103E1E001241647FA41241647FA61241647FAF12E7
:103E2E0041647FAF12416412421AE4FDFF0242BDAB
:0E283000900344EEF0A3EFF0A3ECF0A3EDF064
:10283E0090034BECF0A3EDF0900344E0FFA3E09087
:10284E00034DCFF0A3EFF090034FEBF0A3EAF0A30C
:10285E00E9F0E4A3F0A3F090034FE0FBA3E0FAA3AA
:10286E00E0F9120DE17003022A04120DE1C3948007
:10287E00504B900346E0FFA3E090034BCFF0A3EF45
:10288E00F0900344E0FFA3E090034DCFF0A3EFF0F0
:10289E0090034DE0A3E0FF90034BE0A3E0FD120D8B
:1028AE00E1FB123B52900345E02408F0900344E014
:1028BE003400F0900350E475F0010229FEE4900319
:1028CE0052F0A3F090034FE0FBA3E0FAA3E0F9125D
:1028DE000DE1FF900352E0FCA3E090000075F022A2
:1028EE0012117FEC75F022A42583F583E0B5072441
:1028FE00900001120DFAFF900352E0FCA3E090004D
:10290E000175F02212117FEC75F022A42583F58358
:10291E00E06F601A900353E004F07006900352E0EB
:10292E0004F0900352E07004A3E0641570969003D7
:10293E0052E07004A3E064157006900352F0A3F009
:10294E00E490034AF0900344E0FAA3E0FB90034DB9
:10295E00EAF0A3EBF090034AE0FF900347E02FFE6E
:10296E00900346E0340090034BF0A3CEF0AF0390FB
:10297E00034BE0A3E0FD1242BDE4900349F0900347
:10298E004AE075F010A4FF900349E07C002FFFECA5
:10299E0035F0FE900352E0FCA3E090000275F022A9
:1029AE0012117FEC75F022A42583F583E5822FF5B5
:1029BE0082E5833EF583E0900348F0E0FF7D01124F
:1029CE004164A3E004F0E0C3941040B290034AE0E7
:1029DE0004F0E0C394025003022953900345E0240F
:1029EE0010F0900344E03400F0900350E475F002D0
:0629FE00120EF80228652C
:012A040022AF
:0E264300900340EEF0A3EFF0A3ECF0A3EDF057
:1026510090034BECF0A3EDF0900340E0FFA3E0907A
:10266100034DCFF0A3EFF090034FEBF0A3EAF0A3FB
:10267100E9F0E4A3F0A3F090034FE0FBA3E0FAA399
:10268100E0F9120DE1700302282F120DE1C39480CD
:102691005053900342E0FFA3E090034BCFF0A3EF30
:1026A100F0900340E0FFA3E090034DCFF0A3EFF0E3
:1026B10090034DE0A3E0FF90034BE0A3E0FD120D7A
:1026C100E1FB900347E0900357F0123C2690034151
:1026D100E02408F0900340E03400F0900350E475EA
:1026E100F001022829E4900352F0A3F090034FE097
:1026F100FBA3E0FAA3E0F9120DE1FF900352E0FC25
:10270100A3E090000075F02212117FEC75F022A475
:102711002583F583E0B50724900001120DFAFF909F
:102721000352E0FCA3E090000175F02212117FEC4E
:1027310075F022A42583F583E06F601A900353E0BE
:1027410004F07006900352E004F0900352E070042C
:10275100A3E064157096900352E07004A3E0641541
:102761007006900352F0A3F0E490034AF090034006
:10277100E0FAA3E0FB90034DEAF0A3EBF090034AEB
:10278100E0FF900343E02FFE900342E0340090030A
:102791004BF0A3CEF0AF0390034BE0A3E0FD124258
:1027A100BDE4900349F090034AE075F010A4FF9056
:1027B1000349E07C002FFFEC35F0FE900352E0FC72
:1027C100A3E090000275F02212117FEC75F022A4B3
:1027D1002583F583E5822FF582E5833EF583E0903D
:1027E1000348F0900347E07005A3E0F480049003F0
:1027F10048E0FF7D01124164900349E004F0E0C329
:10280100941040A290034AE004F0E0C39402500304
:1028110002276E900341E02410F0900340E0340061
:0E282100F0900350E475F002120EF8022678D3
:01282F002286
:073997009003EAEFF0A9051F
:10399E001242BDE4FC7D017FFC1241640CECB404C8
:1039AE00F47D017FFF124164E4FC9003EDE0FFEC37
:1039BE00C39F500A7D017F031241640C80EC7D0190
:1039CE007FFF1241649003EAE02405FF9003EDE0CF
:1039DE002FC39BFFA3F0AD011242BDE4FCEB24010B
:1039EE00FFE433FEECC39FEE6480F8748098500AB7
:1039FE007D017FFF1241640C80E39003EAE0FFE952
:103A0E0004FD1242BDE4FC7D017F3F1241640CECCB
:103A1E00B404F47D017FFF124164E4FC9003EDE0F9
:103A2E00FFECC39F500A7D017FC01241640C80ECF5
:103A3E007D017FFF1241649003EAE02405FF9003AD
:103A4E00EDE02FC39BFFA3F0E904FD1242BDE4FCA1
:103A5E00EB2401FFE433FEECC39FEE6480F8748028
:0D3A6E0098500A7D017FFF1241640C80E337
:013A7B002228
:041FC3004103F300E3
:10431C0053890F438920758DFE758BFE759850530C
:0D432C00877FD2ACD2AFC299C298D28E2248
:0F43D5009003F3E070FA8F999003F37401F022D4
:06000300AE071243D522F6
:030023000242DDB9
:1042DD00C0E0C083C082309907C2999003F3E4F027
:1042ED003098089003F4E599F0C298D082D083D02D
:0242FD00E032AD
:10435300E4FFFE759D10F5BD75BCE80FBF00010EAF
:08436300EF640A4E70F5D2ADC3
:01436B00222F
:03002B0002436C21
:10436C00C0E0C083C08275BC009003F6E5BDF0755B
:09437C00BCE8D082D083D0E0320D
:100A8600EC4D6011E8497017ED33EC3304600DE46A
:100A9600FCFFFEFD22E933E8330470F8020CD6129F
:100AA6000CA158046009E4CC2481500628500902A0
:100AB6000CE0284003020CDDC0E0EB4A7044B9802C
:100AC60006D0E0FB020CCCEF4E701CBD8008EBFF9D
:100AD600EAFEE9FD80EBE98DF0A4FEE5F0020B6F7E
:100AE600E9CDF9EAFEEBFFEF89F0A4FCE5F0CE894B
:100AF600F0A42EFFE435F0CD89F0A42DFEE435F008
:100B06008067EF4E7005BD80D780C3EF8BF0A4AC35
:100B1600F0EE8BF0A42CFCE435F0F8EF8AF0A42C70
:100B2600E5F038FCE433CB8DF0A42CFCE5F03BF883
:100B3600EE8AF0A42CFCE5F038F8E433CF89F0A473
:100B46002CFCE5F038CF3400CE89F0A42FFFE5F079
:100B56003EFEE433C98DF0A42EFEE5F039CD8AF0D1
:100B6600A42FFFE5F03EFEE43DFD33D0E0FB500749
:100B76000BBB000F020CE0EC2CFCEF33FFEE33FE58
:060B8600ED33FD020CB886
:100B8C00020CE0EC5D046005E859047003020CD61D
:100B9C00120CA1580460F6EC4860F2EC7004FDFEF7
:100BAC00FF22C860DB2481C85009C398600250063C
:100BBC00020CDD9850CAF582E9294B4A7005AB82CC
:100BCC00020CCC75F0007C1A7880C3EF9BEE9AED8A
:100BDC0099400DC3EF9BFFEE9AFEED99FDE842F0B4
:100BEC00DC23ACF0D0E0FFD0E0FED0E0FDAB822007
:100BFC00E7101BEB60BAEC2CFCEF33FFEE33FEED91
:100C0C0033FD020CB8E803F830E705C0F075F000CE
:100C1C00EF2FFFEE33FEED33FD40B830E7C280AA74
:100C2C0075F020800E75F010800575F0087D007E43
:100C3C00007F003392D530D5031210DAEC3340101C
:100C4C00EF33FFEE33FEED33FDEC33FCD5F0ED224C
:0E0C5C00E5F0247EA2D513CC92E7CDCEFF2288
:100C6A00EDD2E7CD33EC3392D524814006E4FFFE82
:100C7A00FDFC22FCE4CFCECDCC24E0501174FF80E1
:100C8A00EDC3CC13CCCD13CDCE13CECF13CF04707E
:070C9A00F030D5DE0210DA94
:100CA100E9D2E7C933E833F892D5EDD2E7CD33EC99
:070CB10033FC5002B2D52212
:100CB800EC30E7100FBF000C0EBE00080DBD00049D
:100CC8000BEB6014A2D5EB13FCED92E7FD2274FF49
:100CD800FCFDFEFF22E480F8A2D574FF13FC7D80A2
:030CE800E480EFB6
:03000000023F7B41
:0C3F7B00787FE4F6D8FD758107023FC294
:100CEB00E709F608DFFA8046E709F208DFFA803EEB
:100CFB0088828C83E709F0A3DFFA8032E309F608D8
:100D0B00DFFA8078E309F208DFFA807088828C833F
:100D1B00E309F0A3DFFA806489828A83E0A3F608F3
:100D2B00DFFA805889828A83E0A3F208DFFA804CCD
:100D3B0080D280FA80C680D4806980F280338010A4
:100D4B0080A680EA809A80A880DA80E280CA80330D
:100D5B0089828A83ECFAE493A3C8C582C8CCC58385
:100D6B00CCF0A3C8C582C8CCC583CCDFE9DEE78055
:100D7B000D89828A83E493A3F608DFF9ECFAA9F0D4
:100D8B00EDFB2289828A83ECFAE0A3C8C582C8CC2A
:100D9B00C583CCF0A3C8C582C8CCC583CCDFEADE43
:100DAB00E880DB89828A83E493A3F208DFF980CCA5
:100DBB0088F0EF60010E4E60C388F0ED2402B4049E
:100DCB000050B9F582EB2402B4040050AF23234545
:060DDB008223900D3B7322
:100DE100BB010689828A83E0225002E722BBFE0210
:090DF100E32289828A83E4932243
:100DFA00BB010CE58229F582E5833AF583E02250AE
:100E0A0006E92582F8E622BBFE06E92582F8E222F7
:0D0E1A00E58229F582E5833AF583E4932211
:100E2700BB010689828A83F0225002F722BBFE01AA
:020E3700F322A4
:100E3900F8BB010DE58229F582E5833AF583E8F0EF
:100E4900225006E92582C8F622BBFE05E92582C89B
:020E5900F22283
:100E5B00EF8DF0A4A8F0CF8CF0A428CE8DF0A42EAB
:020E6B00FE2265
:100E6D00BC000BBE0029EF8DF084FFADF022E4CC69
:100E7D00F875F008EF2FFFEE33FEEC33FCEE9DEC32
:100E8D00984005FCEE9DFE0FD5F0E9E4CEFD22ED78
:100E9D00F8F5F0EE8420D21CFEADF075F008EF2FC2
:100EAD00FFED33FD4007985006D5F0F222C398FDB3
:050EBD000FD5F0EA2250
:100EC200C2D5EC30E709B2D5E4C39DFDE49CFCEE4B
:100ED20030E715B2D5E4C39FFFE49EFE120E6DC348
:100EE200E49DFDE49CFC8003120E6D30D507C3E443
:060EF2009FFFE49EFE22BA
:100EF800C5F0F8A3E028F0C5F0F8E5821582700285
:060F08001583E038F02221
:100F0E00BB010A89828A83E0F5F0A3E022500687AE
:100F1E00F009E71922BBFE07E3F5F009E319228970
:0B0F2E00828A83E493F5F074019322A3
:100F3900BB0110E58229F582E5833AF583E0F5F0F6
:100F4900A3E0225009E92582F886F008E622BBFED3
:100F59000AE92582F8E2F5F008E222E5832AF58319
:080F6900E993F5F0A3E99322DE
:100F7100BB010A89828A83F0E5F0A3F0225006F7CB
:0F0F810009A7F01922BBFE06F3E5F009F31922C8
:100F9000F8BB0111E58229F582E5833AF583E8F093
:100FA000E5F0A3F0225009E92582C8F608A6F02250
:0D0FB000BBFE09E92582C8F2E5F008F22237
:100FBD00E88FF0A4CC8BF0A42CFCE98EF0A42CFCD3
:100FCD008AF0EDA42CFCEA8EF0A4CDA8F08BF0A451
:100FDD002DCC3825F0FDE98FF0A42CCD35F0FCEBB0
:100FED008EF0A4FEA9F0EB8FF0A4CFC5F02ECD3975
:0F0FFD00FEE43CFCEAA42DCE35F0FDE43CFC22E2
:10100C0075F008758200EF2FFFEE33FECD33CDCC9B
:10101C0033CCC58233C5829BED9AEC99E58298401E
:10102C000CF582EE9BFEED9AFDEC99FC0FD5F0D6FB
:10103C00E4CEFBE4CDFAE4CCF9A88222B800C1B925
:10104C000059BA002DEC8BF084CFCECDFCE5F0CB63
:10105C00F97818EF2FFFEE33FEED33FDEC33FCEB9C
:10106C0033FB10D703994004EB99FB0FD8E5E4F957
:10107C00FA227818EF2FFFEE33FEED33FDEC33FC44
:10108C00C933C910D7059BE99A4007EC9BFCE99A38
:10109C00F90FD8E0E4C9FAE4CCFB2275F010EF2F7D
:1010AC00FFEE33FEED33FDCC33CCC833C810D7077D
:1010BC009BEC9AE899400AED9BFDEC9AFCE899F8B8
:0E10CC000FD5F0DAE4CDFBE4CCFAE4C8F9224B
:0E10DA00C3E49FFFE49EFEE49DFDE49CFC2227
:1010E800EB9FF5F0EA9E42F0E99D42F0E89C45F05E
:0110F80022D5
:1010F900E86010ECA2E713FCED13FDEE13FEEF130D
:04110900FFD8F022F9
:10110D007401FF3395E0FEFDFCA3A3A3E0CF2FF008
:10111D00E582158270021583E0CE3EF0E5821582E0
:10112D0070021583E0CD3DF0E582158270021583C6
:05113D00E0CC3CF022B3
:0C114200ECF0A3EDF0A3EEF0A3EFF02220
:10114E00A8828583F0D083D08212116512116512A8
:10115E001165121165E473E493A3C583C5F0C583CD
:10116E00C8C582C8F0A3C583C5F0C583C8C582C8EB
:01117E00224E
:0C117F00A42582F582E5F03583F583227B
:06118B008A838982E473EF
:103F870002366DE493A3F8E493A34003F68001F2AD
:103F970008DFF48029E493A3F85407240CC8C3333B
:103FA700C4540F4420C8834004F456800146F6DF0A
:103FB700E4800B0102040810204080901CB9E47EC5
:103FC700019360BCA3FF543F30E509541FFEE493FF
:103FD700A360010ECF54C025E060A840B8E493A3C6
:103FE700FAE493A3F8E493A3C8C582C8CAC583CAF1
:103FF700F0A3C8C582C8CAC583CADFE9DEE780BEA9
:011FC7000019
:00000001FF
