:020000040800F2
:10000000000A0020792E0008A9320008AB3200084F
:10001000AF320008B3320008B73200080000000019
:10002000000000000000000000000000BB320008DB
:10003000BD32000800000000BF320008C1320008D5
:10004000932E0008932E0008932E0008932E00088C
:10005000932E0008932E0008932E0008932E00087C
:10006000932E0008932E0008932E0008932E00086C
:10007000932E0008932E0008932E0008932E00085C
:10008000932E0008932E0008932E0008932E00084C
:10009000932E0008932E0008932E0008932E00083C
:1000A000932E0008932E0008932E0008932E00082C
:1000B000932E0008973A0008932E0008932E00080C
:1000C000932E0008932E0008932E0008932E00080C
:1000D000932E0008A5340008932E00089B350008D5
:1000E000932E0008932E0008932E000800F002F8CB
:1000F00000F090F80AA090E8000C82448344AAF132
:100100000107DA4501D100F085F8AFF2090EBAE82F
:100110000F0013F0010F18BFFB1A43F0010318473B
:100120004C6900006C690000103A24BF78C878C19F
:10013000FAD8520724BF30C830C144BF04680C60ED
:10014000704700000023002400250026103A28BF35
:1001500078C1FBD8520728BF30C148BF0B60704739
:100160006E2903F00586702903F04F87662906F093
:10017000B982652906F0B682672906F0B382612943
:10018000AFF3008003681B0A28BF41F08001692992
:1001900003F0B285642903F0AF85752903F0AC85BF
:1001A0006F2903F0DC86782903F01B87E92903F027
:1001B0007786E42903F07486F52903F07186EF2928
:1001C00003F0D986F82903F01A870368DB0928BFF2
:1001D00041F08001632904F0A282732904F0A78210
:1001E000E32904F0B282F32904F0B78200207047BB
:1001F0001FB504F009FB04000020002105F0F2FC0B
:10020000401C60600020002105F0D6FCE0601FBDAE
:1002100010B510BD04F0CAFA1146FFF7E9FF02F06D
:100220004BFE04F0A7FB03B4FFF7F2FF03BC03F09F
:10023000B5F800000CB50020019000906C480068F3
:1002400040F480306A49086000BF6948006800F4E3
:10025000003000900198401C0190009818B9019856
:10026000B0F5A06FF1D16248006800F4003010B121
:100270000120009001E0002000900098012843D167
:100280005C48006840F010005A4908600846006861
:1002900020F0030008600846006840F00200086093
:1002A00053484068524948600846406848600846DC
:1002B000406840F4806048600846406820F47C1044
:1002C00048600846406840F4E81048600846006806
:1002D00040F08070086000BF4548006800F0007082
:1002E0000028F9D04248406820F0030040494860A7
:1002F0000846406840F00200486000BF3C48406843
:1003000000F00C000828F9D10CBD10B5FFF792FFE2
:1003100010BD10B53648006840F00100344908604F
:10032000084640683449084031494860084600683A
:10033000324908402E4908600846006820F48020B1
:1003400008600846406820F4FE0048604FF41F0033
:100350008860FFF7DAFF4FF000602949086010BDA0
:1003600010B5002100200022214B5B6803F00C0136
:1003700021B1042906D0082928D107E0214B224CBD
:10038000236027E01F4B204C236023E0184B5B6861
:1003900003F47010164B5B6803F48032022303EB06
:1003A000904022B9194B4343174C23600DE0104B8A
:1003B0005B6803F4003323B1144B4343124C2360B6
:1003C00003E0104B4343104C236003E00D4B0E4CF5
:1003D000236000BF00BF064B5B68C3F303130C4CE4
:1003E000E15C094B1B68CB40074C236010BD00004B
:1003F00000100240002002400000FFF8FFFFF6FE60
:1004000008ED00E000127A000000002000093D0025
:100410000400002031490143314A1160704770B532
:10042000002100230F22C47804B32D4C246804F467
:10043000E064C4F5E064210AC1F10403CA404478D1
:1004400004FA03F18478144021430901254C06780D
:10045000A155047804F01F050124AC4005786D1106
:10046000AD0005F1E025C5F8004109E0047804F08D
:100470001F050124AC401C4D0678761145F8264036
:1004800070BD1A4A0A400243154B1B1F1A60704781
:1004900039B1134A121D12680243114B1B1D1A6019
:1004A00006E00F4A121D126882430D4B1B1D1A6095
:1004B0007047042808D14FF0E021096941F0040198
:1004C0004FF0E022116107E04FF0E021096921F0CF
:1004D00004014FF0E0221161704700000000FA05AE
:1004E0000CED00E000E400E080E100E080FFFF1F91
:1004F00010B50446CC48844208D10121042000F004
:100500002DFB0021042000F029FB46E0C74884426F
:1005100008D10121082000F021FB0021082000F073
:100520001DFB3AE0C248844208D10121102000F0AE
:1005300015FB0021102000F011FB2EE0BD48844285
:1005400008D10121202000F009FB0021202000F02B
:1005500005FB22E0B848844208D10121402000F088
:10056000FDFA0021402000F0F9FA16E0B348844279
:1005700008D10121802000F0F1FA0021802000F054
:10058000EDFA0AE0AE48844207D10121801500F05F
:10059000E5FA0021A01500F0E1FA10BD10B5012127
:1005A000084600F0DBFA0021012000F0D7FA10BD68
:1005B0002DE9F041024600250026002000230024FA
:1005C000002791F803C00CF00F0591F803C00CF060
:1005D000100CBCF1000F03D091F802C04CEA0505E5
:1005E00091F800C0BCF1000F31D0146800202BE05E
:1005F0004FF0010C0CFA00F3B1F800C00CEA03064E
:100600009E4220D183004FF00F0C0CFA03F7BC433D
:1006100005FA03FC4CEA040491F803C0BCF1280F6E
:1006200006D14FF0010C0CFA00FCC2F814C00AE02D
:1006300091F803C0BCF1480F05D14FF0010C0CFA42
:1006400000FCC2F810C0401C0828D1D31460B1F8D7
:1006500000C0BCF1FF0F34DD546800202EE000F133
:10066000080C4FF0010808FA0CF3B1F800C00CEACE
:1006700003069E4221D183004FF00F0C0CFA03F7C2
:10068000BC4305FA03FC4CEA040491F803C0BCF136
:10069000280F05D100F1080C08FA0CF8C2F81480F4
:1006A00091F803C0BCF1480F07D100F1080C4FF0DE
:1006B000010808FA0CF8C2F81080401C0828CED3B4
:1006C0005460BDE8F0814FF6FF7101800221817016
:1006D0000421C17070470246002093680B400BB1A3
:1006E000012000E0002070470146886880B2704712
:1006F00002460020D3680B400BB1012000E000202F
:1007000070470146C86880B2704701617047416117
:1007100070470AB1016100E041617047C1607047F4
:100720004FF480320A438261816182618269826909
:10073000704702460020434B18684FF680731840FC
:1007400040EA021008433F4B186070473E49C861B9
:100750007047F0B50A46002300240021002500F070
:100760000046B6F1004F02D1364EF16901E0354E38
:100770007168C0F3034583B200F44016B6F5401F1C
:1007800008D121F070612F4E766826F070662D4FEB
:100790007E6012E000F48016B6F5801F06D10326B5
:1007A00006FA05F4A14341F0706106E0460D3601FA
:1007B00003FA06F6B14341F0706122B1460D3601ED
:1007C00003FA06F6314300F00046B6F1004F02D1BD
:1007D0001C4EF16101E01B4E7160F0BD30B500228E
:1007E0008B071C0F0F2303FA04F2164B08338C10EF
:1007F00053F824309343134C08348D1044F82530BB
:1008000023468C1053F824308C07240F00FA04F48C
:1008100023430C4C08348D1044F8253030BD0A4970
:10082000DC3108607047000000080140000C014006
:10083000001001400014014000180140001C01405C
:10084000002001400000014000002042DF48006815
:1008500040F00100DD49086008464068DC49084076
:10086000DA49486008460068DA490840D749086014
:100870000846006820F4802008600846406820F49C
:10088000FE0048604FF41F0088607047CF49096838
:1008900021F48031CD4A11601146096821F480218C
:1008A0001160B0F5803F03D0B0F5802F0ED106E087
:1008B000C649096841F48031C44A116007E0C34960
:1008C000096841F4A021C14A116000E000BF00BFE7
:1008D000704710B501460022002300204A11012A6A
:1008E00002D1BA4C236806E0022A02D1B74C236A2F
:1008F00001E0B64C636A01F01F02012494401C40E1
:100900000CB1012000E0002010BD38B5002000909F
:100910000024002500BF3120FFF7DBFF05460098CB
:10092000401C00900098B0F5A06F01D0002DF2D0CF
:100930003120FFF7CEFF08B1012400E0002420465B
:1009400038BD01460020A14A106820F0F80040EAB6
:10095000C10010607047A04908607047024600203F
:100960009A4B586820F47C1042EA01031843974BD5
:100970005860704798490866704701460020934ABE
:10098000506820F003000843506070478F4840686B
:1009900000F00C007047014600208C4A506820F09F
:1009A000F00008435060704701460020874A5068B5
:1009B00020F4E06008435060704701460020834AFD
:1009C000506820F4605040EAC1005060704729B17F
:1009D0007E4A527A02437D4B5A7204E07B4A527A35
:1009E00082437A4B5A7270477B49D831086070470E
:1009F00001460020754A506820F44040084350608A
:100A000070470021714A20321170704A82F820101C
:100A1000012802D004280AD104E001216B4A2032C7
:100A2000117005E00521694A2032117000E000BF15
:100A300000BF70476949086070476449096A01430B
:100A4000624A11627047654944390860704730B5A1
:100A500000210022002400235C4D6D6805F00C018C
:100A600021B1042905D0082923D105E05C4D05609A
:100A700022E05B4D05601FE0544D6D6805F4701277
:100A8000524D6D6805F48034022505EB92421CB985
:100A9000544D554305600BE04C4D6D6805F4003531
:100AA0001DB1504D5543056002E04D4D5543056065
:100AB00002E04B4D056000BF00BF444D6D6805F07E
:100AC000F0010909484D6B5C0568DD4045603F4D0C
:100AD0006D6805F4E061090A434D6B5C4568DD40D3
:100AE00085603A4D6D6805F46051C90A3E4D6B5CF6
:100AF0004568DD40C560354D6D6805F44041890BA2
:100B00003A4D6B5CC568B5FBF3F5056130BD29B1A5
:100B10002E4A526902432D4B5A6104E02B4A526916
:100B200082432A4B5A61704729B1284A926902438D
:100B3000264B9A6104E0254A92698243234B9A61CD
:100B4000704729B1214AD2690243204BDA6104E09F
:100B50001E4AD26982431D4BDA61704729B11B4A94
:100B6000D2680243194BDA6004E0184AD268824323
:100B7000164BDA60704729B1144A12690243134BCD
:100B80001A6104E0114A12698243104B1A617047DE
:100B900012494039086070470F49C86470470B49D3
:100BA000C87170470948406A40F080700749486240
:100BB000704701460020054A92680A400AB10120A8
:100BC00000E0002070470149887270470010024021
:100BD0000000FFF8FFFFF6FE0000424280044242A0
:100BE00000127A0000093D001400002024000020BB
:100BF00010B50446FB48844209D101218803FFF760
:100C0000ADFF00214FF48040FFF7A8FF32E0F64827
:100C1000844209D101214804FFF7ADFF00214FF4C0
:100C20000030FFF7A8FF25E0F048844209D10121F8
:100C30008804FFF7A0FF00214FF48020FFF79BFFFF
:100C400018E0EB48844209D10121C804FFF793FF63
:100C500000214FF40020FFF78EFF0BE0E5488442AF
:100C600008D101210805FFF786FF00214FF480100D
:100C7000FFF781FF10BD2DE9F04786B005460E460F
:100C80000024A24600BFA1460027B08900B100BFE2
:100C90002F462C8A4CF6FF700440F08804432C82C7
:100CA000AC894EF6F3100440B0883189084371894D
:100CB00008430443AC81AC8A4FF6FF400440B0893E
:100CC0000443AC8201A8FFF7C2FEC648874202D1A6
:100CD000DDF810A001E0DDF80CA0A88900F40040C8
:100CE00040B10AEBCA0000EB0A1031684900B0FBC2
:100CF000F1F807E00AEBCA0000EB0A10316889003E
:100D0000B0FBF1F86420B8FBF0F004012009642185
:100D100001FB1089A88900F4004040B1322000EBAB
:100D2000C900B0FBF1F000F00700044308E03220F6
:100D300000EB09106421B0FBF1F000F00F00044358
:100D40002C8106B0BDE8F0874FF4165101600021F8
:100D50008180C18001810C21418100218181704706
:100D600010B502460020108A4FF2FF0318400B888E
:100D70004C8823438C882343CC8823431843108218
:100D800010BD0021018041808180C180704721B168
:100D9000828942F40052828104E082894DF6FF7319
:100DA0001A4082817047F0B50346002400260025D2
:100DB000002040F66A17B94200D100BF1846C1F3BF
:100DC000421401F01F06012707FA06F5012C01D194
:100DD0000C3004E0022C01D1103000E014301AB1C4
:100DE00007682F43076002E00768AF430760F0BD64
:100DF0001AB1838A0B43838202E0838A8B43838206
:100E00007047028A4FF6F0731A400282028A0A4340
:100E10000282704782894FF2FF731A408281828971
:100E20000A438281704721B1828942F002028281A5
:100E300004E082894FF6FD731A4082817047028A6E
:100E40004FF6DF731A400282028A0A430282704719
:100E500021B1028A42F48042028204E0028A4BF607
:100E6000FF731A4002827047C1F308028280704704
:100E700001468888C0F308007047818941F001016C
:100E800081817047028BD2B20283028B42EA012237
:100E900002837047028B02F47F420283028B0A4373
:100EA0000283704721B1828A42F02002828204E0EC
:100EB000828A4FF6DF731A408282704721B1828A9C
:100EC00042F01002828204E0828A4FF6EF731A40E9
:100ED0008282704721B1828A42F00802828204E055
:100EE000828A4FF6F7731A408282704721B1828955
:100EF00042F40042828103E08289C2F30E028281C1
:100F0000704721B1828A42F40062828204E0828AC0
:100F10004FF2FF731A4082827047828A4FF6FB734A
:100F20001A408282828A0A438282704721B1828A71
:100F300042F00202828204E0828A4FF6FD731A4078
:100F40008282704702460020B1F5007F00D100BFC9
:100F500013880B400BB1012000E00020704701F422
:100F60000072B2F5007F00D100BFCA430280704713
:100F700070B50246002400230025002040F66A16C2
:100F8000B14200D100BFC1F3421501F01F03012699
:100F900006FA03F3012D02D19689334006E0022DB3
:100FA00002D1168A334001E0968A33400C120126A2
:100FB00006FA04F41688344013B10CB1012000E0A5
:100FC000002070BD10B50022002340F66A14A14233
:100FD00000D100BF0A1201249440A3B2DC43048074
:100FE00010BD0000003801400044004000480040AF
:100FF000004C00400050004001460020FE4A1068AE
:1010000000F03800084310607047FB49096821F080
:101010000801F94A116011460968014311607047DF
:10102000F549096821F01001F34A11601146096879
:10103000014311607047F148EF494860F04848604B
:101040007047EE48EC494860ED4848607047EA4810
:10105000006940F08000E84908617047E64800698F
:1010600040F08000E449086170470420E249C96803
:1010700001F0010109B101200EE0DF49C96801F06A
:10108000040109B1022007E0DB49C96801F0100141
:1010900009B1032000E00420704700B50246042394
:1010A000FFF7E3FF034603E0FFF7DFFF0346521EAF
:1010B000012B01D1002AF7D102B90523184600BD42
:1010C00030B5044604254FF43020FFF7E6FF05460F
:1010D000042D17D1C848006940F00200C6490861D4
:1010E00008464461006940F0400008614FF4302038
:1010F000FFF7D3FF0546C048006941F6FD7108407F
:10110000BD490861284630BD10B504244FF4302095
:10111000FFF7C3FF0446042C16D1B748006940F01E
:101120000400B54908610846006940F040000861C4
:101130004FF43020FFF7B1FF0446AF48006941F695
:10114000FB710840AC490861204610BD00B502465D
:101150000423FFF78AFF034603E0FFF786FF0346F9
:10116000521E012B01D1002AF7D102B905231846DE
:1011700000BD10B504244FF43020FFF7E7FF04460C
:10118000042C16D19C48006940F004009A4908617B
:101190000846006940F0400008614FF43020FFF736
:1011A000D5FF04469448006941F6FB710840924916
:1011B0000861204610BD00208F49C96901F0020175
:1011C00009B1012000E00020704730B5A5250424B6
:1011D000FFF7F1FF00B100254FF43020FFF75DFF6E
:1011E0000446042C3AD18548834988608448886045
:1011F0000846006940F0200008610846006940F098
:10120000400008614FF43020FFF747FF0446042CEC
:101210001BD17948006941F6DF71084076490861C1
:101220000846006940F01000086176480580E00239
:10123000FFF733FF0446052C10D06F48006941F6D4
:10124000EF7108406C49086108E0052C06D06A4837
:10125000006941F6EF71084067490861204630BDDA
:1012600078B506460C46042500200090E802FFF7FA
:1012700014FF0546042D24D15F48006940F00100A9
:101280005D4908613480E802FFF707FF0546042D39
:1012900010D1B01C0090200C00990880E802FFF7E4
:1012A000FCFE05465448006941F6FE71084052496B
:1012B000086106E05048006941F6FE7108404E4959
:1012C0000861284678BD70B504460D460426F00234
:1012D000FFF7E3FE0646042E11D14748006940F0AF
:1012E0000100454908612580F002FFF7D6FE064659
:1012F0004148006941F6FE7108403F4908613046A7
:1013000070BD70B505460E460424E002FFF7C5FE29
:101310000446042C17D1394837498860384888601A
:101320000846006940F0100008612E80E002FFF7D7
:10133000B4FE0446052C06D02F48006941F6EF7133
:1013400008402D490861204670BD2DE9F043044650
:101350004FF6FF763746B046B1460425E443E6B281
:10136000C4F30727C4F307484FEA1469E802FFF7FC
:1013700094FE0546042D49D120481F498860204825
:1013800088600846006940F010000861FF2E06D012
:101390001C4808300680E802FFF77FFE0546042D52
:1013A00008D1FF2F06D017480A300780E802FFF760
:1013B00074FE0546042D0AD1B8F1FF0F07D011487D
:1013C0000C30A0F80080E802FFF767FE0546042D08
:1013D0000AD1B9F1FF0F07D00A480E30A0F80090EB
:1013E000E802FFF75AFE0546052D0FD002480069B6
:1013F00041F6EF71084007E00020024023016745F5
:10140000AB89EFCD00F8FF1F664908612846BDE8AB
:10141000F08330B5054604244FF43020FFF73DFE3D
:101420000446042C41D160485E4988605F4888606A
:101430000846006940F0200008610846006940F055
:10144000400008614FF43020FFF727FE0446042CCB
:1014500022D15448006941F6DF71084051490861C2
:101460000846006940F0100008611DB10020504995
:10147000088002E0A5204E4908804FF43020FFF795
:101480000CFE0446052C10D04648006941F6EF7169
:1014900008404449086108E0052C06D0414800692D
:1014A00041F6DF7108403F490861204630BDF0B584
:1014B00005460E46174604243B483A4988603B4897
:1014C0008860E002FFF7E9FD0446042C19D1354895
:1014D000006940F010003349086147F0F8003043DC
:1014E00028433349891C0880E002FFF7D6FD0446F3
:1014F000052C06D02B48006941F6EF7108402949B8
:1015000008612046F0BD2748C0698008704725481B
:10151000006A704700202349096801F0200109B1E1
:10152000012000E00020704729B11E4A12690243E1
:101530001C4B1A6104E01B4A12698243194B1A6161
:10154000704701460020012908D1164AD26902F0ED
:1015500001020AB1012008E0002006E0114AD26829
:101560000A400AB1012000E0002070470D49C86020
:10157000704704200B49C96801F0010109B101203D
:101580000EE00849C96801F0040109B1022007E032
:101590000449C96801F0100109B1032000E00420EA
:1015A000704700000020024023016745AB89EFCD62
:1015B00000F8FF1F10B50446F748844209D1012105
:1015C0004805FFF7D8FA00214FF40010FFF7D3FACF
:1015D00008E001218805FFF7CEFA00214FF48000D2
:1015E000FFF7C9FA10BD2DE9F04385B004460D465A
:1015F0000026B1460427DFF8A483A6884FF6C07002
:1016000006406846FFF723FADDF80880E448B8FB97
:10161000F0F01FFA80F946EA0906A68020884FF606
:10162000FE71084020800026DE49286888420CD8D8
:1016300028684000B8FBF0F087B2042F00DA0427D6
:101640003E4309F10100208427E0E8884BF6FF7152
:10165000884206D1286800EB4000B8FBF0F087B262
:1016600009E0286800EBC00101EB0010B8FBF0F0C6
:1016700087B247F48047C7F30B0008B947F001076A
:1016800047F4004006434FF4967009FB00F04FF416
:101690007A7190FBF1F0401C2084A683208840F0F2
:1016A0000100208026884FF6F5300640A888698919
:1016B000084306432680A88929890843208105B06C
:1016C000BDE8F08341F288310160002181804BF652
:1016D000FF71C1800021018141814FF480418181EE
:1016E000704721B1028842F00102028004E00288C2
:1016F0004FF6FE731A400280704721B1828842F48F
:101700000062828004E082884FF2FF731A40828078
:10171000704721B1828842F48052828004E082883E
:101720004EF6FF731A408280704721B1028842F45E
:101730008072028004E002884FF6FF631A40028044
:10174000704721B1028842F40072028004E00288EE
:101750004FF6FF531A400280704721B1028842F4CD
:101760008062028004E002884FF6FF331A40028054
:1017700070470A46002181894FF60173194002F033
:10178000FE0319438181704721B1828942F0010231
:10179000828104E082894FF6FE731A40828170478D
:1017A00021B1028842F04002028004E002884FF634
:1017B000BF731A40028070471AB183880B4383803D
:1017C00002E083888B438380704701827047014623
:1017D000088AC0B2704712B141F0010102E04FF631
:1017E000FE7319400182704708B502460020009040
:1017F00000920098084400900098008808BD21B12C
:10180000028842F40042028003E00288C2F30E0222
:1018100002807047B1F5006F04D1028842F4006283
:10182000028004E002884FF2FF731A400280704782
:10183000B1F5005F04D1028842F40052028004E056
:1018400002884DF6FF731A400280704721B102886A
:1018500042F48052028004E002884EF6FF731A4080
:1018600002807047B1F5006F04D1028842F4006233
:10187000028004E002884FF2FF731A400280704732
:1018800021B1028842F02002028004E002884FF673
:10189000DF731A40028070470146088B00127047C0
:1018A00021B1028842F01002028004E002884FF663
:1018B000EF731A400280704721B9028842F080021B
:1018C000028004E002884FF67F731A40028070475E
:1018D000B1F5804F05D0828B4BF6FF731A4082839F
:1018E00003E0828B42F480428283704770B50246E7
:1018F0000024002500230020958A138B1B0445EA51
:10190000030626F07F4404EA01068E4201D101203D
:1019100000E0002070BD10B5014600200023002229
:101920008B8A0A8B120443EA020424F07F4010BD24
:101930000CB50246002000230193009300920B0F88
:10194000019321F07F41019B1BB1009B1433009355
:1019500003E0090C009B18330093009B1B680B40AD
:101960000BB1012000E000200CBD002221F07F42DD
:10197000D3438382704730B5024600200023948809
:1019800001F0E06504EA154321F07F41948A0C40A0
:1019900054B14BB1012008E00054004000127A001D
:1019A00040420F00A0860100002030BD002221F03F
:1019B0007F42D3438382704710B50446FA4884427D
:1019C00008D101214015FFF7C9F800216015FFF784
:1019D000C5F817E0F548844208D101210015FFF74A
:1019E000BDF800212015FFF7B9F80BE0F04884425C
:1019F00008D10121C803FFF7B1F800214FF40040DE
:101A0000FFF7ACF810BD30B5024600200023506847
:101A1000E84C20400D790C6844EA052420435060CE
:101A20009068E54C2040D1E902542C434D7944EABA
:101A3000450420439060D06A20F470000C7C641E42
:101A4000E4B2234340EA0350D06230BD002101607C
:101A5000017141718160C16001210174704721B140
:101A6000826842F00102826003E0826822F0010293
:101A70008260704721B1826842F48072826003E024
:101A8000826822F480728260704710B50023CBB266
:101A90001AB144681C43446002E044689C434460BB
:101AA00010BD816841F00801816070470146002047
:101AB0008A6802F008020AB1012000E000207047A5
:101AC000816841F0040181607047014600208A6806
:101AD00002F004020AB1012000E00020704721B1A9
:101AE000826842F4A002826003E0826822F4A002CD
:101AF00082607047014600208A6802F480020AB1C1
:101B0000012000E00020704710B50A4600210023A4
:101B1000416821F46041531E41EA4331416010BDE8
:101B200021B1426842F40062426003E0426822F45C
:101B3000006242607047F0B504460D460020002167
:101B4000092D11DDE068A5F10A0606EB4607072618
:101B500006FA07F18843A5F10A0606EB460603FAE2
:101B600006F10843E0600CE0206905EB4507072615
:101B700006FA07F1884305EB450603FA06F1084328
:101B80002061072A0FDA606B561E06EB86071F26B8
:101B900006FA07F18843561E06EB860605FA06F19B
:101BA0000843606322E00D2A0FDA206BD61F06EB94
:101BB00086071F2606FA07F18843D61F06EB86061E
:101BC00005FA06F10843206310E0E06AA2F10D0671
:101BD00006EB86071F2606FA07F18843A2F10D06D9
:101BE00006EB860605FA06F10843E062F0BD21B176
:101BF000826842F48012826003E0826822F48012DC
:101C0000826070470146C86C80B2704766484C30AD
:101C10000068704721B1426842F48062426003E08C
:101C2000426822F480624260704721B1426842F407
:101C30008052426003E0426822F480524260704762
:101C40000A460021816821F4E04111438160704718
:101C500021B1826842F40042826003E0826822F48B
:101C600000428260704721B1826842F402128260B1
:101C700003E0826822F4021282607047014600206D
:101C80008A6802F400120AB1012000E000207047C7
:101C9000F0B504461546002000220026092911DD72
:101CA000E068A1F10A0707EB470C072707FA0CF2D7
:101CB0009043A1F10A0707EB470703FA07F2104325
:101CC000E0600CE0206901EB410C072707FA0CF2F9
:101CD000904301EB410703FA07F210432061A06B28
:101CE000C0F30156EF1C06F1010CA7EB0C0707EB44
:101CF000870C1F2707FA0CF29043EF1C06F1010C2A
:101D0000A7EB0C0707EB870701FA07F21043A06364
:101D1000F0BD10B50A4600210023816B21F440116B
:101D2000531E41EA0351816310BD08B5002300939F
:101D30000090009B0B440093009B1A6008BD08B5FF
:101D4000024600200090009201F12800009B1844F8
:101D500000900098006880B208BD0A4600214168E2
:101D6000164B1940114341607047416282627047CF
:101D70000A460021416821F01F011143416070476C
:101D800040B109490831096841F40001064A0832A6
:101D9000116007E004490831096821F40001024A92
:101DA0000832116070470000002401400028014003
:101DB000003C0140FFFEF0FFFDF7F1FFFFFD3FFF9C
:101DC0000246002013680B400BB1012000E0002008
:101DD0007047CA430260704770B502460020002376
:101DE00000240B125568CEB205EA060415681D40A2
:101DF00015B10CB1012000E0002070BD00220A12D4
:101E0000D34303607047000001684FF6FE72114033
:101E100001600021016041608160C1608D4988429C
:101E200008D18C490839496841F00F01894A083ABC
:101E300051608AE087491431884208D185490839C0
:101E4000496841F0F001834A083A51607DE08149D8
:101E50002831884208D17F490839496841F47061C6
:101E60007C4A083A516070E07A493C31884208D196
:101E700078490839496841F47041764A083A516016
:101E800063E074495031884208D172490839496881
:101E900041F470216F4A083A516056E06D4964314F
:101EA000884208D16B490839496841F47001694A90
:101EB000083A516049E067497831884208D165495C
:101EC0000839496841F07061624A083A51603CE063
:101ED0006149884206D1011F096841F00F01021FC4
:101EE000116032E05C491431884208D15A49091F17
:101EF000096841F0F001584A121F116025E0564967
:101F00002831884208D15449091F096841F4706199
:101F1000514A121F116018E04F493C31884208D1E4
:101F20004D49091F096841F470414B4A121F116065
:101F30000BE049495031884207D14749091F0968D8
:101F400041F47021444A121F1160704710B50022FD
:101F5000026847F6F0739A430C6A8B6823430C6956
:101F600023434C6923438C692343CC6923434C6A44
:101F700023438C6A23431A430260CB6843600B6897
:101F800083604B68C36010BD0021016041608160C7
:101F9000C160016141618161C1610162416281622F
:101FA000704721B1026842F00102026004E0026859
:101FB0004FF6FE731A40026070471AB103680B4374
:101FC000036002E003688B43036070474160704721
:101FD0000146486880B2704701460020002201F0A7
:101FE00080531BB11C4B083B1A6802E0194B083B9D
:101FF0001A6802EA01030BB1012000E000207047DB
:1020000000F0805119B11449091F086002E011491C
:1020100008394860704701460020002201F08053D3
:102020001BB10D4B083B1A6802E00A4B083B1A68CB
:1020300002EA01030BB1012000E00020704700F02C
:10204000805119B10449091F086002E001490839AB
:1020500048607047080002400804024010B504467A
:10206000FE48844208D10121C014FEF777FD00210B
:10207000E014FEF773FDC4E0B4F1804F08D10121F4
:102080000846FEF778FD00210120FEF774FDB8E058
:10209000F348844208D101210220FEF76CFD0021A3
:1020A0000220FEF768FDACE0EE48844208D1012131
:1020B0000420FEF760FD00210420FEF75CFDA0E097
:1020C000E948844208D101210820FEF754FD00218F
:1020D0000820FEF750FD94E0E448844208D1012135
:1020E0001020FEF748FD00211020FEF744FD88E097
:1020F000DF48844208D101212020FEF73CFD002169
:102100002020FEF738FD7CE0DA48844208D1012126
:102110004014FEF723FD00216014FEF71FFD70E060
:10212000D548844209D10121C804FEF717FD0021DA
:102130004FF40020FEF712FD63E0D048844209D13D
:1021400001210805FEF70AFD00214FF48010FEF77B
:1021500005FD56E0CA48844209D101214805FEF731
:10216000FDFC00214FF40010FEF7F8FC49E0C548E3
:10217000844208D101214020FEF7FDFC00214020CF
:10218000FEF7F9FC3DE0C048844208D101218020DF
:10219000FEF7F1FC00218020FEF7EDFC31E0BB48AA
:1021A000844208D101218015FEF7E5FC0021A0152D
:1021B000FEF7E1FC25E0B648844209D1012108047C
:1021C000FEF7CCFC00214FF48030FEF7C7FC18E08E
:1021D000B048844209D101214804FEF7BFFC002128
:1021E0004FF40030FEF7BAFC0BE0AB48844208D154
:1021F00001218804FEF7B2FC00214FF48020FEF795
:10220000ADFC10BD00220288944B98420ED0994B31
:1022100098420BD0B0F1804F08D0914B984205D036
:10222000904B984202D0904B984204D14FF68F7356
:102230001A404B881A438D4B984207D08C4B9842DA
:1022400004D04FF6FF431A40CB881A4302808B8894
:1022500083850B880385814B98420BD0854B984230
:1022600008D08B4B984205D08A4B984202D08A4BBB
:10227000984201D10B7A038601238382704770B59F
:10228000002400220023058C4FF6FE76354005849D
:10229000028C8388048B4FF68F752C40B51E2C4022
:1022A0000D882C43751E2A400D892A434D882A43E8
:1022B0006A4DA8420BD06F4DA84208D0744DA84279
:1022C00005D0744DA84202D0734DA84213D14FF6E9
:1022D000F7752A404D892A434FF6FB752A408D88B1
:1022E0002A434FF6FF652B404FF6FF552B408D8953
:1022F0002B43CD892B4383800483CD88858602843C
:1023000070BD70B5002400220023058C4FF6EF76D7
:1023100035400584028C8388048B48F6FF752C4079
:102320004FF6FF452C400D884FF6FF7606EA05254F
:102330002C434FF6DF752A400D8906EA05152A431E
:102340004D8806EA05152A43444DA84202D0494D5E
:10235000A8421DD14FF67F752A404D894FF6FF7672
:1023600006EA05152A434FF6BF752A408D8806EA0E
:1023700005152A434FF6FF352B404FF2FF752B40D2
:102380008D8906EA85052B43CD8906EA85052B4311
:1023900083800483CD880587028470BD70B50024D6
:1023A00000220023058C4FF6FF6635400584028C21
:1023B0008388848B4FF68F752C404FF6FC752C402C
:1023C0000D882C434FF6FF552A400D894FF6FF76B6
:1023D00006EA05252A434D8806EA05252A431F4DAE
:1023E000A84202D0234DA8421DD14FF2FF752A40CA
:1023F0004D894FF6FF7606EA05252A434FF6FF354D
:102400002A408D8806EA05252A434EF6FF752B40A3
:102410004DF6FF752B408D8906EA05152B43CD89B6
:1024200006EA05152B4383808483CD888587028443
:1024300070BD70B5002200230024058C4EF6FF7697
:1024400035400584038C8488828B48F6FF752A40CA
:102450004FF6FF452A400D8820E00000002C014087
:102460000004004000080040000C00400010004044
:102470000014004000340140004C01400050014075
:102480000054014000180040001C004000200040A3
:102490000040014000440140004801404FF6FF76F3
:1024A00006EA05252A434DF6FF752B400D8906EAFD
:1024B00005352B434D8806EA05352B43FA4DA842D6
:1024C00002D0FA4DA84208D14BF6FF752C408D89F9
:1024D0004FF6FF7606EA85152C4384808283CD88EB
:1024E000A0F84050038470BD828B4FF2FF331A4036
:1024F0008283828B4FF6FF7303EA01231A438283A0
:102500007047F0B50C461546002200210026078CC6
:102510004EF6FF7C07EA0C070784828B018C4FF68E
:10252000FF7707EA043640F6FF473A404FF6FF7759
:1025300007EA05273A434FF6FF7707EA03373A439E
:10254000D94FB8420ED0D94FB8420BD0B0F1804F1E
:1025500008D0D74FB84205D0D64FB84202D0D64F98
:10256000B84206D14DF6FF77394046F480573943DB
:1025700005E047F6FF57394044F4805739438283DA
:102580000184F0BD828B4FF6F3731A408283828BF5
:102590000A4382837047F0B50C461546002200219D
:1025A0000026078C4FF6FF6C07EA0C070784828B26
:1025B000018C4FF6FF7707EA04264FF60C773A4076
:1025C0004FF6FF7707EA03172F433A43B64FB84257
:1025D0000ED0B64FB8420BD0B0F1804F08D0B44FF8
:1025E000B84205D0B34FB84202D0B34FB84206D17B
:1025F0004FF6FF57394046F48077394305E04FF2F4
:10260000FF57394044F48077394382830184F0BD19
:10261000028B4FF2FF331A400283028B4FF6FF7397
:1026200003EA01231A4302837047F0B50C461546AE
:10263000002200210026078C4FF6EF7C07EA0C07EA
:102640000784028B018C4FF6FF7707EA041640F6E9
:10265000FF473A404FF6FF7707EA03373A434FF612
:10266000FF7707EA05273A438F4FB8420ED08F4FC6
:10267000B8420BD0B0F1804F08D08D4FB84205D092
:102680008C4FB84202D08C4FB84206D14FF6DF775C
:10269000394046F01007394305E04FF65F7739407F
:1026A00044F01007394302830184F0BD028B4FF6DA
:1026B000F3731A400283028B0A4302837047F0B51A
:1026C0000C46154600220021068C4FF6FE773E4050
:1026D0000684028B018C4FF60C7632407E1C06EA93
:1026E00003162E433243704EB0420ED06F4EB042AE
:1026F0000BD0B0F1804F08D06D4EB04205D06D4E7A
:10270000B04202D06C4EB04206D14FF6FD76314059
:1027100044F00106314305E04FF6F576314044F0D0
:102720000106314302830184F0BD70B505460C46B5
:102730005D4885420ED05D4885420BD0B5F1804F93
:1027400008D05B48854205D05A48854202D05A4895
:10275000854200D100E000BF208850B92389A288BB
:1027600061882846FFF7ABFFE1882846FFF79EFF08
:1027700025E0208804280AD12389A2886188284678
:10278000FFF753FFE1882846FFF742FF17E0208854
:1027900008280AD12389A28861882846FFF7FBFE12
:1027A000E1882846FFF7EEFE09E02389A2886188C8
:1027B0002846FFF7A6FEE1882846FFF795FE70BD84
:1027C0002DE9F04105460C4600260127608808B92E
:1027D000022600E00026A088012801D1022700E09F
:1027E00001272088A0B92389A28861882846FFF79D
:1027F00066FFE1882846FFF759FF23893A463146AC
:102800002846FFF712FFE1882846FFF701FF13E093
:102810002389A28861882846FFF707FFE1882846B8
:10282000FFF7F6FE23893A4631462846FFF747FF71
:10283000E1882846FFF73AFFBDE8F0810A884B8817
:102840001A438B881A43CB881A430B891A434B8946
:102850001A438B891A43A0F8442070474FF6FF7142
:10286000818000210180C180418001727047002178
:10287000018041808180C180018141818181C1814C
:102880007047002101804180012181800021C180A9
:10289000018170470021018041808180C1800181D8
:1028A0004181818170470000002C014000340140CB
:1028B0000004004000080040000C004021B10288E4
:1028C00042F00102028004E002884FF6FE731A40D3
:1028D0000280704731B1B0F8442042F40042A0F8C1
:1028E000442005E0B0F84420C2F30E02A0F84420D2
:1028F00070471AB183890B43838102E083898B433C
:10290000838170478182704741EA0203A0F8483012
:1029100070471AB183890B43838102E083898B431B
:102920008381704701894FF6F87211400181704729
:102930000A46002101894FF68F7319401143018126
:10294000704730B504460D4629462046FFF7F0FF94
:10295000208940F00700208130BD2DE9F041044678
:102960000D4616461F46602D06D13B4601223146D4
:102970002046FFF75AFE05E03B460122314620463D
:10298000FFF79DFE29462046FFF7D2FF208940F041
:1029900007002081BDE8F08130B50C460021018997
:1029A000C9B24FF6FF7505EA0325154325432943B0
:1029B000018130BD2DE9F04105460E461746984687
:1029C000002443463A4631462846FFF7E5FF2C8966
:1029D0004FF6F870044044F007044FF68F7004403F
:1029E00044F070042C81BDE8F081F0B504460D463A
:1029F00016461F463B46324629462046FFF7CCFF87
:102A0000208940F480402081F0BD0185828270479A
:102A10000A46002101884FF68F7319401143018047
:102A20007047F0B50C4615461E46002100220023D3
:102A30000189028B038C4FF6F877394021434FF61A
:102A4000FC473A4040F201173A434FF6DD773B40EE
:102A50004FF6FF7707EA06172F433B4301810283B6
:102A60000384F0BD0A460021018B4FF68F73194095
:102A70001143018370470A460021018B48F6FF731A
:102A800019404FF6FF7303EA02231943018370478D
:102A90000A460021818B4FF68F73194011438183C1
:102AA00070470A460021818B48F6FF7319404FF6A4
:102AB000FF7303EA022319438183704721B102881F
:102AC00042F08002028004E002884FF67F731A40D1
:102AD0000280704721B1828842F00402828004E0C3
:102AE00082884FF6FB731A408280704721B182883A
:102AF00042F00802828004E082884FF6F7731A40A1
:102B00008280704721B1828842F00102828004E015
:102B100082884FF6FE731A40828070470A46002171
:102B2000018B4FF6F77319401143018370470A4632
:102B30000021018B4FF2FF7319404FF6FF7303EA38
:102B400002231943018370470A460021818B4FF607
:102B5000F77319401143818370470A460021818B26
:102B60004FF2FF7319404FF6FF7303EA0223194334
:102B7000818370470A460021018B4FF6FB73194091
:102B80001143018370470A460021018B4FF6FF3342
:102B900019404FF6FF7303EA02231943018370477C
:102BA0000A460021818B4FF6FB7319401143818344
:102BB00070470A460021818B4FF6FF3319404FF6CC
:102BC000FF7303EA02231943818370470A460021F9
:102BD000018B4FF67F7319401143018370470A46FA
:102BE0000021018BC1F30E014FF6FF7303EA0223AC
:102BF0001943018370470A460021818B4FF67F738A
:102C000019401143818370470A460021818BC1F32B
:102C10000E014FF6FF7303EA0223194381837047C5
:102C20000A460021018C4FF6FD73194011430184BF
:102C300070470A460021018C4FF6F7731940114383
:102C4000018470470A460021018C4FF6DF7319405A
:102C50004FF6FF7303EA02131943018470470A46D3
:102C60000021018C4FF67F7319404FF6FF7303EA82
:102C700002131943018470470A460021018C4FF664
:102C8000FF5319404FF6FF7303EA022319430184EF
:102C900070470A460021018C4FF2FF7319404FF62E
:102CA000FF7303EA02231943018470470A46002197
:102CB000018C4DF6FF7319404FF6FF7303EA0233A0
:102CC00019430184704730B5002301248C40A3B21E
:102CD000048C9C430484048C02FA01F5ADB22C43AD
:102CE000048430BD30B5002304248C40A3B2048C8E
:102CF0009C430484048C02FA01F5ADB22C43048495
:102D000030BD70B503460020002418461830012558
:102D10008D40ACB21D8CA5431D8409B1082909D191
:102D200000EB6100056825F0700505600568154336
:102D300005600EE00D1FC5F34E052844056825F417
:102D4000E045056005684FF6FF7606EA0226354342
:102D5000056070BD21B1028842F00202028004E0E9
:102D600002884FF6FD731A400280704721B1028835
:102D700042F00402028004E002884FF6FB731A401E
:102D80000280704721B1828842F08002828004E094
:102D900082884FF67F731A408280704702884FF610
:102DA000F7731A40028002880A43028070478288C3
:102DB0004FF68F731A40828082880A438280704760
:102DC00002894FF6F8731A40028102890A43028190
:102DD000704702894FF67F731A40028102890A43C5
:102DE0000281704781847047818570478186704772
:102DF0000187704781877047A0F8401070470288AC
:102E00004FF6FF431A40028002880A43028070474F
:102E10000146888E70470146088F70470146888FAB
:102E200070470146B1F8400070470146888C7047F2
:102E30000146088D704702460020138A0B400BB1F3
:102E4000012000E000207047CA430282704730B57D
:102E50000246002000230024158A05EA0103958913
:102E600005EA010413B10CB1012000E0002030BDDF
:102E7000CA4302827047000009488047094800475A
:102E8000FEE7FEE7FEE7FEE7FEE7FEE7FEE7FEE71A
:102E9000FEE7FEE704480549054A064B7047000077
:102EA00013030008ED00000800040020000A0020C1
:102EB00000060020000600201FB54FF4FA7000F055
:102EC00017FA00F035FA00F00BFE00F031FE00F0CA
:102ED0001DFE00F028FD00F080FB41F61F4142F28C
:102EE0000F7000F087FD41F61F4142F20F7000F0B5
:102EF000B1FD012000F03DFE4FF4FA6000F0F8F95A
:102F0000A1E1012000F03EFE0021CF48FFF7D6FCF2
:102F10000020CE4908800AE0CD484088CD49CB4A00
:102F200012888854C9480088401CC8490880C7488E
:102F300000882D28F0DB192000F0C3F9002000F0F4
:102F400021FE4FF4DC7000F0BCF91AE0C2480078B2
:102F5000C2490870C2480078C24908700020BB49C5
:102F600008800AE0BA484088BF49B84A12888854A5
:102F7000B6480088401CB5490880B44800882D2810
:102F8000F0DBB34840880128E0DC0020B749087036
:102F90001EE00020AD49088011E0B4480078AB493C
:102FA0000988092202FB0100AF49085CB049A74A21
:102FB00012888854A5480088401CA4490880A3486A
:102FC00000880528E9DBA9480078401CA74908705B
:102FD000A64800780928DCDB00209C4908809CE09A
:102FE0009A48008803F090F88246A24AA24B03F068
:102FF0009FF8804600224FF0804303F099F8064680
:103000009E4A9F4B03F094F800229E4BCDE90001AD
:1030100003F08EF8044602F059FDCDE9020103F0F9
:103020002FF89949894A128888548848008803F003
:103030006BF882468F4A904B03F07AF806460022DE
:103040004FF0804303F074F88C4A8D4BCDE90001BA
:1030500003F06EF8044600228A4B03F069F88046BC
:1030600002F0E6FCCDE9020103F00AF88749774A4D
:103070001288885400207D49087011E07B48007850
:1030800072490988082202FB01007749085C7849E7
:103090006E4A1288885475480078401C734908703D
:1030A000724800780828E9DB68490888C11700EBF6
:1030B0005171C910764A515C6D4A644B1B88D25CD1
:1030C000714B624C24881B5D02FB03115F4A108820
:1030D000C21700EB5272D2106D4B99545B490888AD
:1030E000C11700EB5171C9106A4A515C604A574BD5
:1030F0001B88D25C654B554C24881B5D02FB031179
:10310000524A1088C21700EB5272D210614B995488
:103110004E48008808304D4908804C4800882028D7
:10312000FFF65EAF5C4800785C49087000204F49AC
:10313000087083E056494D4A1278895C4800C117EF
:1031400000EBD1614911524A484B1B78D154514987
:10315000464A1278895C4800C11700EBD1614911D9
:103160004C4A424B1B78D1544949404A1278895CF9
:103170004943484A3D4B1B78D35C3C4E3678925DC0
:1031800003FB021002F0A9FF044602F0EFFC8246A6
:103190008B463749087802F0B7FF04460D4634499C
:1031A000097801FB01F002F098FF804602F0DEFC96
:1031B000064622462B4602F0DBFD52465B46CDE931
:1031C000000102F0B5FFCDE9020102F059FF3249DA
:1031D000264A127888542F4824490978405C2C49A3
:1031E000224A1278895C90FBF1FA504602F075FF92
:1031F000804602F00DFB0646204A294B02F008FDEE
:10320000044602F03DFF2749184A127888542248A4
:1032100016490978405C21490978884209DD1E4831
:1032200012490978405C1D49087010480078074928
:1032300008800E480078401C0C4908700B48007844
:103240000828FFF677AF5CE6000400404C00002041
:10325000540000205C000020580000205200002094
:103260005A000020530000205C0100204A0000208A
:103270005C0200202CB01979DA84963FF1D4C8534F
:10328000FB210940000069407C0300205C03002012
:1032900029000020310000203900002049000020D2
:1032A000FB21F93F41000020704700BFFEE700BF4F
:1032B000FEE700BFFEE700BFFEE7704770477047BC
:1032C000704700EBC001C9004FF0E02251610021BE
:1032D00091610521116100BF4FF0E021096901F4FE
:1032E00080310029F8D004214FF0E02211617047AD
:1032F00000B5034603E04FF47A70FFF7E2FF181EB3
:10330000A3F101018BB2F6D100BD10B5044603E074
:103310004FF47A70FFF7ECFF201EA4F101018CB28C
:10332000F6D110BD10B54FF4A060FDF773F810BDD5
:1033300010B5FDF78BFA4FF48030FDF7A7FAFDF7D3
:10334000E4FA0446012C27D14FF4E0110004FDF704
:1033500005FB0020FDF71FFBA002FDF725FB002069
:10336000FDF72BFB0020FDF743FB0220FDF744FE99
:103370001020FDF755FE0120FDF7FCFA00BF3920B3
:10338000FDF7A7FA0028FAD00220FDF7F6FA00BFF1
:10339000FDF7FCFA0828FBD110BD0000014600BF74
:1033A000704700BF7D4A128802F04002002AF9D01F
:1033B000C2B27A4B1B1D1A8070470FB410B5B4B05F
:1033C000002437A80090C92101A8009B369A00F07C
:1033D000E9FB0EE02046621CD4B201AA115C6F48E2
:1033E000FDF742FD00BF40216C48FDF7ABFD002812
:1033F000F9D0C82C04DA01A800F0EEFBA042E9D80D
:103400000020009034B010BC5DF814FB10B586B0FD
:103410000446012144F20400FDF786FB4FF40070DE
:10342000ADF8140003208DF8160018208DF8170051
:1034300005A95B48FDF7BCF84FF48060ADF81400B7
:1034400004208DF8170005A95548FDF7B1F825208F
:103450008DF8000003208DF801008DF80200012096
:103460008DF803006846FCF7DAFF01940020ADF800
:103470000800ADF80A00ADF80C00ADF810000C2003
:10348000ADF80E0001A94548FDF7F5FB012240F219
:1034900025514248FDF787FC01214048FDF777FCA4
:1034A00006B010BD70470FB410B5B4B0002437A8F3
:1034B0000090C92101A8009B369A00F073FB0EE032
:1034C0002046621CD4B201AA115C3648FDF7CCFC40
:1034D00000BF40213348FDF735FD0028F9D0C82C46
:1034E00004DA01A800F078FBA042E9D8002000909F
:1034F00034B010BC5DF814FB10B586B00446012151
:103500000820FDF711FB01218804FDF71AFB4FF499
:103510000060ADF8140004208DF8170005A92248BA
:10352000FDF746F84FF48060ADF8140003208DF8E5
:10353000160018208DF8170005A91B48FDF738F86C
:1035400001940020ADF80800ADF80A00ADF80C00B9
:10355000ADF810000C20ADF80E0001A91148FDF7E0
:103560008AFB002240F225510E48FDF71CFC012188
:103570000C48FDF70CFC4FF4E060FCF74BFF2720F4
:103580008DF8000000208DF8020001208DF8030066
:103590006846FCF744FF06B010BD70470038014094
:1035A0000008014000480040000C014008B501211E
:1035B0001C20FDF7B9FA01214805FDF7C2FAC02029
:1035C000ADF800001C208DF8030003208DF80200E8
:1035D0006946B148FCF7ECFF08BD1FB5FFF7E6FFF1
:1035E0000020ADF804004BF6FF70ADF80600C020D7
:1035F000ADF808004FF48060ADF80A000001ADF8A6
:103600000C00A64800906946A548FDF7ECFF012193
:10361000A348FEF766F81FBD2DE9F04105460F46A9
:1036200014461E4601219E48FEF77FF800BF9D49C3
:103630009B48FEF75BF90028F9D0002229469848FC
:10364000FEF7C9F800BF98499548FEF74FF90028E2
:10365000F9D039469248FEF7B8F800BF9249891C64
:103660008F48FEF743F90028F8D00CE021788C4809
:10367000FEF7ABF8641C00BF8B49891C8848FEF735
:1036800035F90028F8D0301EA6F101018EB2EDD137
:1036900001218348FEF755F8BDE8F08170B5044676
:1036A0000E46154601217E48FEF73FF800BF7D49D2
:1036B0007B48FEF71BF90028F9D000222146784804
:1036C000FEF789F800BF78497548FEF70FF9002822
:1036D000F9D031467248FEF778F800BF7249891C6C
:1036E0006F48FEF703F90028F8D029466C48FEF72A
:1036F0006CF800BF6C49891C6948FEF7F7F8002890
:10370000F8D001216648FEF71CF870BD2DE9F041A4
:1037100006460F4615461C4600BF4FF40031604870
:10372000FEF706F90028F8D101215D48FDF7FDFFFD
:1037300000BF5C495A48FEF7D9F80028F9D00022AA
:1037400031465748FEF747F800BF57495448FEF73F
:10375000CDF80028F9D001215148FDF7C2FF3946C4
:103760004F48FEF732F800BF4F49891C4C48FEF71E
:10377000BDF80028F8D001214948FDF7D6FF00BF69
:1037800048494748FEF7B2F80028F9D001223146EF
:103790004348FEF720F800BF4249491C4048FEF765
:1037A000A5F80028F8D016E0012C07D100213C48EC
:1037B000FDF7D3FF01213A48FDF7C3FF39493F31F7
:1037C0003748FEF793F830B13548FEF700F8287017
:1037D0006D1C601E84B2002CE6D101213048FDF73B
:1037E000BCFFBDE8F08170B504460D4600BF4FF444
:1037F00000312B48FEF79CF80028F8D10121284819
:10380000FDF793FF00BF27492548FEF76FF8002812
:10381000F9D0002221462248FDF7DDFF00BF2249F2
:103820001F48FEF763F80028F9D001211C48FDF776
:1038300058FF29461A48FDF7C8FF00BF1A49891CDE
:103840001748FEF753F80028F8D001211448FDF777
:103850006CFF00BF13491248FEF748F80028F9D062
:10386000012221460E48FDF7B6FF00BF0D49491C55
:103870000B48FEF73BF80028F8D000210848FDF778
:103880006CFF01210648FDF75CFF0548FDF79FFF2F
:103890000646304670BD0000000C0140400D03009C
:1038A00000540040010003008200070000B58BB007
:1038B0004448FEF7A9FA444800904448019000208B
:1038C0000290022003900020049080200590400088
:1038D00006908000079020200890000209900020A8
:1038E0000A9069463748FEF731FB01213548FEF75B
:1038F00058FB0BB000BD08B501211C20FDF714F9E1
:1039000001210846FDF703F901214802FDF70CF9F2
:103910003020ADF8000000208DF8030069462C48E7
:10392000FCF746FE08BD00B585B0FFF7E4FFFFF7E2
:10393000BDFF0020009001208DF804008DF80500E7
:103940004FF4602002900020039002208DF81000B8
:1039500069461D484C38FEF756F801231A460421E3
:1039600019484C38FEF7E7F80123022205211648D2
:103970004C38FEF7E0F8012113484C38FEF77AF88E
:10398000012111484C38FEF76AF80F484C38FEF711
:1039900088F800BF0C484C38FEF788F80028F9D1A9
:1039A00009484C38FEF78CF800BF07484C38FEF742
:1039B0008CF80028F9D1012103484C38FEF78FF824
:1039C00005B000BD080002404C2401405400002016
:1039D0000008014008B51D208DF8000003208DF877
:1039E00001008DF8020001208DF803006846FCF705
:1039F00016FD08BD3EB505460C4601210220FDF727
:103A0000A0F8FFF7E7FFADF80450ADF80040002044
:103A1000ADF80200ADF8060069462E48FEF7F2FB4D
:103A2000012211462B48FEF764FF00212948FEF7CA
:103A300045FF3EBD08B51C208DF8000003208DF821
:103A400001008DF8020001208DF803006846FCF7A4
:103A5000E6FC08BD3EB505460C4601210846FDF7CB
:103A600070F8FFF7E7FFADF80450ADF80040002014
:103A7000ADF80200ADF8060069464FF08040FEF751
:103A8000C1FB012211469007FEF733FF0121880791
:103A9000FEF714FF3EBD10B501210E48FFF7D7F920
:103AA00098B101210B48FFF7E3F90B480088401C4F
:103AB00009490880084600883C2806D10020088073
:103AC00006480088401C0549088001210148FFF78D
:103AD000CFF910BD00040040580000205A0000201B
:103AE00008B501211C20FDF71FF80320ADF80000E8
:103AF00010208DF8030003208DF80200694602486B
:103B0000FCF756FD08BD0000000C014008B501217E
:103B10000420FDF709F80320ADF8000048208DF8D7
:103B2000030069460148FCF743FD08BD0008014059
:103B300008B501217C20FCF7F7FF01210846FCF7BE
:103B4000F3FF4FF44060ADF8000010208DF8030043
:103B500003208DF8020069460F48FCF729FD01217A
:103B60000E48FCF7F6FD4FF440610B48FCF7CFFD23
:103B700008BD10B5044622464FF480610648FCF7A4
:103B8000C8FD10BD10B5044622464FF4006102483E
:103B9000FCF7BFFD10BD000000080140000430002C
:103BA000704700007CB51D4616460C00009001D001
:103BB0002044401E074B7B442A466946019030460C
:103BC00000F0EFF805461CB10020694600F0FCF853
:103BD00028467CBD1902000010B5431C02E010F815
:103BE000011B71B18107FAD14FF0013202C88C1A62
:103BF0008C4314EAC211F9D0C01A0A0603D0C01EC1
:103C000010BDC01A10BD0A0401D0801E10BD0902EB
:103C1000FCD0401E10BD704770477047704710B50C
:103C200000F0C2FA006810BD10B5044600F0BCFAFE
:103C3000046010BD70B5044685690068C10601D5F1
:103C4000302600E02026C00707D070BDD4E901214E
:103C500030469047206A401C20626D1EF6D570BD2C
:103C600070B5044685690078C00707D170BDD4E9F6
:103C7000012120209047206A401C20626D1EF6D54D
:103C800070BD09684A0501D540B27047C905FCD529
:103C900000B2704709684A0501D5C0B27047C9052E
:103CA000FCD580B2704770B50C460546012A05D098
:103CB0002878800600D5EA69002302E0012305E0A8
:103CC0005B1C934202D2E05C0028F9D1A869E61897
:103CD000C01AA861286A184428622846FFF7AAFF7C
:103CE00004E0D5E9012114F8010B9047B442F8D360
:103CF0002846FFF7B5FF70BD2DE9F04106460024C8
:103D000010687529314616A510D0FFF7BAFF0028B4
:103D100002DA404213A507E031688A0701D512A5EF
:103D200002E0490704D511A5012401E0FFF7B2FF25
:103D300000210A2206F1240709E0B0FBF2FCB0FBE7
:103D4000F2F302FB1C00303078541846491C00285E
:103D5000F3D123462A463046BDE8F04100F06DBA63
:103D6000000000002D0000002B00000020000000DB
:103D700011680268006A530501D508700AE0D3058E
:103D800001D5088006E0130603D5C217C1E9000279
:103D900000E008600120704701694A1C0261087850
:103DA000704700B58FB0CDE901310021059105497B
:103DB0007944CDE903101146684600F031F90FB09F
:103DC00000BD0000E5FFFFFF0A6802F8010B0A6072
:103DD0007047D1E900239A4202D2531C0B60107045
:103DE000704700002DE9FF5F15468A460446DFF85C
:103DF000AC80F8440027D8E900103E46CDE9001019
:103E000010E03AF816106A4602A800F0AAFC411C1D
:103E100007D02178890603D5E269391891420DD877
:103E20000744761C2078800602D5E069B84205DD9B
:103E3000AE42E6DB3AF816000028E2D1A069C01BCA
:103E4000A0612046FFF7F6FED8E90010CDE900108A
:103E5000002017E03AF818106A4602A800F081FC2A
:103E6000B0F1FF3F81460BD000250DF1080B05E0B6
:103E7000D4E901211BF8050090476D1C4D45F7D38F
:103E800008F10100B0428046E4DB206A3844206239
:103E90002046FFF7E5FEBDE8FF9F00007A2A0000FC
:103EA0002DE9F0418046D21D22F007020025D2E91B
:103EB0000002F52915A614D0011E72F1000106DAE0
:103EC0000023D0EB030063EB020211A608E0D8F850
:103ED00000108B0701D50FA602E0490701D50EA6F9
:103EE00001251146002408F1240704E000F060F9E0
:103EF00030323A55641C50EA0102F7D12B46324663
:103F000021464046BDE8F04100F097B900000000AE
:103F10002D0000002B0000002000000030B4002124
:103F200000F1240408E002F00705D208303542EA27
:103F30004372DB086554491C52EA0305F3D1046857
:103F4000002310A2250707D5A40600D421B1C46917
:103F500001230DA2641EC46130BC00F06EB910B51F
:103F6000044621461068FFF795FE02462046BDE84C
:103F700010400023D2E7D21D22F00701D1E900232F
:103F8000CCE700000000000030000000F0B40D4657
:103F90000188090502D5214C7C4402E01F4C7C4479
:103FA0000E34002100F1240608E002F00F07120988
:103FB000E75D42EA03721B097754491C52EA030782
:103FC000F3D102780023120704D5702D06D009B171
:103FD000022311342246F0BC00F02FB90123103423
:103FE000F8E770B504460D4621461068FFF752FE0B
:103FF000024629462046BDE870400023C6E7D21D90
:1040000022F00703D3E90023C0E70368126843F0F6
:10401000200303600823C3610023B7E7DC28000006
:104020002DE9F05F894604464FF0000ADFF874B1CD
:10403000FB44C0F820A02046E1688847002874D0DF
:10404000252806D0D4E901219047206A401C20622F
:10405000F1E700265F462046E168884720280546AC
:1040600007DB312D05D2781910F8200C08B1064372
:10407000F1E7B00701D526F00406C4F81CA000271C
:10408000C4F818A02A2D09D0284601F0B9FB38B38E
:1040900004EB8708303DC8F8185019E059F8041BA4
:1040A000204604EB87029161E1688847012F0546AD
:1040B00018D1E069002820DA26F020061DE0D8F8A3
:1040C000180000EB800005EB40003038C8F81800FD
:1040D0002046E1688847054601F092FB0028EED1B2
:1040E000012F0AD02E2D08D12046E16888477F1C79
:1040F0000546022F46F02006C4DBA069002803DA3B
:10410000404246F00106A061F00701D026F01006FB
:104110006C2D0BD0682D09D04C2D39D06A2D35D09F
:10412000742D35D07A2D33D016E038E0E1682F4673
:1041300020468847B842054609D16C2F26D04FF457
:104140008060E168064320468847054604E06C2FFE
:104150001AD04FF4807006430DB3A5F14100192821
:1041600002D8203546F400664A4629462046266095
:104170004E46FBF7F5FF80B101280BD0F61D26F067
:10418000070000F1080956E74020E4E78020D8E75F
:104190000020D6E706F104094DE7284652E7206AD9
:1041A000BDE8F09F6C280000004870479C03002089
:1041B00030B5B0F10A024FEA900E71F100034EEAF9
:1041C000817EB0EB0E0061EB91014FEA101E4EEACA
:1041D000017E10EB0E0041EB11114FEA102E4EEA5A
:1041E000016E10EB0E0041EB11214FEA104E4EEA2A
:1041F000014E10EB0E0041EB1141401841F100015E
:104200004FEAD00040EA41704FEAD10110EB80053F
:104210004FEA810444EA907444EB01046D1944EBC5
:104220000404521BA3414FF0000348BF0A3200D5DB
:1042300030BD401C41F1000130BD2DE9F0470D4675
:1042400099469246044600F124080168880604D580
:10425000E06921F01001216000E00120A84201DDA9
:10426000471B00E00027A1697A1902EB0900081A30
:10427000A0612078C00602D42046FFF7DBFC0026B0
:1042800008E0D4E901211AF806009047206A401C92
:10429000761C20624E45F4DB2078C0060AD5204605
:1042A000FFF7C8FC06E0D4E9012130209047206ADE
:1042B000401C2062381EA7F10107F4DC07E0D4E9B6
:1042C000012118F805009047206A401C2062281E32
:1042D000A5F10105F3DC2046FFF7C2FC20780006BB
:1042E00002D50220BDE8F0870120FBE770472DE9E9
:1042F000FF4F0C461E464FF0FF378BB0D2E900014E
:10430000DDF860800A908A46C1F30A5505B93D463A
:10431000002108464FF00000BAF1000F00F4400001
:1043200005DA00EB80004FF4400101EA50004FEA4B
:104330009059B9F1010F00DDB9460A9850EA4A00D8
:104340000ED044F61050A5F2FF3545432F14B8F1B6
:10435000000F1ED07542291E1EDDC9F100021CE0AF
:10436000B8F1010F4FF0000001D0302103E0F2431B
:1043700005E02154401CB042FBDB30460022002106
:1043800021540B99C1F80880C1E900200FB0BDE8A5
:10439000F08FBD1B6D1CDEE74A4600DA694206A8B5
:1043A00000F076FA06AB93E8070003AB83E807005A
:1043B00050460A9900F028FB8DE80700A0F5005050
:1043C0001F3800900398002D0ADD42F21F014A4673
:1043D0000844002303A90390684600F091FD09E01A
:1043E000A0F500504A461F38002303A903906846F1
:1043F00000F09BFD8DE807000004000C03D04FF097
:10440000FF30410800E01046B8F1000F03D0002251
:10441000009215461EE0751E05D4FFF7C9FE303226
:1044200062556D1EF9D5B3460122084302D0002221
:104430007F1C04E02078302801D100227F1E002A52
:10444000099784D01DE0112D07DAFFF7B1FE303255
:1044500062556D1C50EA0102F5D1084302D0009864
:10446000C8B10EE00021681E05E0235C625C635465
:104470002254401E491C8142F7DBAB46A81B401E5C
:104480000990002004F80B000B98099AC0F80880E6
:10449000C0E9002B7AE711264FF0000857E72DE915
:1044A000F04F88460446D21D22F0070191B0D1E9B1
:1044B0000001CDE90A0100F06FFE02460B98C00F23
:1044C00001D02D2007E02068810701D52B2002E0D4
:1044D000202101EAC000032A099001D0072A05DB48
:1044E00003464146204600F093F90BE12078800610
:1044F00001D5E06900E00620B8F1650F814606D0DD
:10450000B8F1660F18D0B8F1670F70D131E0002014
:10451000B9F1110F009001DB112301E009F1010352
:104520000AAA01A90CA8FFF7E2FEDDE90C7000263B
:1045300009F10105834647E001204B4600904FF00A
:1045400000470AAA01A90CA8FFF7D1FEDDE90DB0CA
:104550000C995D46002610B909F101000D18B9EB60
:10456000050003D4C0F1FF3609F10105A5EB0900F0
:104570002BE0B9F1010F01DA4FF001090020B9F188
:10458000110F0090484601DD112300E003460AAAFE
:1045900001A90CA8FFF7ABFEDDE90C704D46002623
:1045A0008346207800070AD4AB4500DA5D4601A8AF
:1045B000012D04DD411911F8011C302907D04F45A8
:1045C00002DA17F1040F04DA012082460FE06D1EB3
:1045D000EEE7002F02DCED1B3E4403E0781CA8420E
:1045E00000DD7D1CB81B00F1010A4FF00047207868
:1045F000000703D4AA4501DB4FF0FF3A0021B7F1D1
:10460000004F0DF143088DF8431024D002202B23D6
:10461000002F01DA7F422D230A21021EA0F10100A2
:1046200000DC5FB197FBF1FC97FBF1F201FB1C7C16
:1046300017460CF1300C08F801CDEEE7A8F10100A7
:1046400003702188090501D5452100E06521A0F10D
:10465000010800F8011C09980FA9A1EB0807FF1D2C
:1046600000B10120411901EBEA70A1693844081A30
:10467000401EA0612078C00602D42046FFF7DAFA77
:10468000099828B1D4E901219047206A401C206292
:104690002078C00622D52046FFF7CCFA1EE0002E77
:1046A00004DBB34502DD01A8805D00E03020D4E9E1
:1046B00001219047206A401C2062761CAAF101006B
:1046C0005FEA000A0AD100F09FF8C0680168405C08
:1046D000D4E901219047206A401C2062281EA5F1E0
:1046E0000105DCDC07E0D4E9012118F8010B904753
:1046F000206A401C2062381EA7F10107F3DC204627
:10470000FFF7AEFA032011B041E610B5436913B1CB
:10471000AFF3008001E0FFF7C6FA012010BD127868
:1047200000F124010A7000224A700122EDE71168AD
:104730004FF0FF32E9E710B5436913B1AFF30080E2
:1047400001E0FFF74FFB012010BD128800F12401AA
:1047500082840022C2840122EDE711684FF0FF320B
:10476000E9E770B516460C46054600F045F80368C3
:1047700093F80101012806D0FF2C0FD8185D68B10D
:1047800001202C7070BDD3F807013246214603F298
:10479000071303442846BDE8704018474FF0FF3028
:1047A00070BD0000004870479C0300207546FFF76D
:1047B000F9FFAE4605006946534620F007008546DE
:1047C00018B020B5FEF766FBBDE820404FF00006AC
:1047D0004FF000074FF000084FF0000B21F00701E9
:1047E000AC46ACE8C009ACE8C009ACE8C009ACE82C
:1047F000C0098D467047000010B500F005F8001D97
:1048000010BD00BFE113000000487047BC0300204A
:104810002DE9F0411F46044603260168072A01F4EA
:10482000006004DB08B116A505E016A503E008B199
:1048300015A500E015A521F010002060A069C01E9C
:10484000A0610FB1401EA0612046FFF7F3F94FB100
:10485000D4E9012138469047206A401C2062C01CE0
:10486000206206E0206AFAE7D4E9012115F8010B7D
:104870009047761EF8D22046FFF7F2F9BDE8F081A6
:104880004E414E006E616E00494E4600696E6600F4
:104890002DE9F047814616468AB0354878440DC860
:1048A0008DE80D0032487844801C03AC0DC884E8C4
:1048B0000D0041F69B300844372190FBF1F290FB4C
:1048C000F1F5A5F1800501FB12041B3C02D5644201
:1048D000012000E00020DFF898A080460027FA447D
:1048E000AAF1BE0A0EE0E0070AD03246684607EB9E
:1048F000470101230AEB810100F017FB8DE8070057
:1049000064107F1C002CEED1194F7F44AE3F19E09C
:10491000E80715D007EB04100DF1180A90E80E0017
:104920008AE80E00C068F04201D19819089032461A
:10493000012306A903A800F0F8FA03AB83E80700F7
:104940006D10641C002DE3D14FF00103324669461F
:10495000B8F1000F03A802D000F0D2FA01E000F095
:10496000E4FAC9E90001C9F808200AB0BDE8F087F7
:10497000B421000010B50446AFF300802046BDE826
:104980001040FBF750BC00004FF0013C50F8042BE6
:1049900051F8043B9A4221D1A2EB0C03934313EA52
:1049A000CC1317D150F8042B51F8043B9A4215D17F
:1049B000A2EB0C03934313EACC130BD150F8042B56
:1049C00051F8043B9A4209D1A2EB0C03934313EA3A
:1049D000CC13DBD04FF00000704700BFD01A01BAF3
:1049E000B1FA81F101F0180122FA01F0CB40C1F1D6
:1049F0002001DBB2C0B2C01A2CFA01F3D11A9143E4
:104A000011EAC311E6D170475FEA400C08BF91F08C
:104A1000000F4FEA8C234FEAC12243EA51514FEA7B
:104A20001C5018BF00F5F0404FEA300018BF41F0AD
:104A300000415FEA6C5C00F02980BCF1FF3F08BFD9
:104A400040F080407047130C06BF12044FF0100C6A
:104A50004FF0000C130E04BF12020CF1080C130FE0
:104A600004BF12010CF1040C930F04BF92000CF16F
:104A7000020CD30F04BF52000CF1010C11464FF091
:104A80000002A0F11F00A0EB0C00704711F0004FD6
:104A900008BF704731F000413FF4D5AF0B0C06BFA3
:104AA00009044FF0100C4FF0000C0B0E04BF09026C
:104AB0000CF1080C0B0F04BF09010CF1040C8B0F57
:104AC00004BF89000CF1020CCB0F04BF49000CF1AC
:104AD000010CCCF12003A0EB0C0022FA03F302FA44
:104AE0000CF241EA030100F10100704720F07F4C15
:104AF00080EA030023F07F47ACEB070303F57C5308
:104B000000F0004003F1FF032DE980494FEA154B07
:104B100009B44FEA144325EA0B4E24EA03480FF286
:104B2000042606EB132749083E785FEA320203FBAE
:104B30000667C7F5000707FB06F64FEA54374FEA4A
:104B4000D64606F1020607FB066CCCF1005C4FEA84
:104B50001C472CEA074C07FB06F40CFB06F504EB9C
:104B600015464FEA961634BF00204FF000404FEA3A
:104B7000D13706FB07FC4FEA1C4C0CFB0BF7D21B92
:104B800003FB0CF761EB07010CFB0EF7B0EB0740E2
:104B900072EB17420CFB08F734BFA2EB0742B2EBF3
:104BA000074261EB17414FEA0C444FEA910706FBBD
:104BB00007FC4FEA1C4C0CFB0BF7B0EBC74072EB49
:104BC000573203FB0CF734BFA2EBC742B2EBC7422C
:104BD00061EB57310CFB0EF7B0EBC70072EB57726D
:104BE0000CFB08F734BFA2EBC702B2EBC70261EBC4
:104BF0005771039F4FEA816141EA921104EBCC04A3
:104C00004FEAD1374FEA826206FB07FC42EA901274
:104C10004FEA80604FEA1C4C0CFB0BF7D21B03FBE6
:104C20000CF761EB07010CFB0EF7B0EB074072EBE2
:104C300017420CFB08F734BFA2EB0742B2EB074266
:104C400061EB17414FEA8C554FEA910704EB9C2426
:104C500006FB07FC4FEA1C4C0CFB0BF7B0EBC74004
:104C600072EB573203FB0CF734BFA2EBC742B2EB37
:104C7000C74261EB57310CFB0EF7B0EBC70072EB8C
:104C800057720CFB08F734BFA2EBC702B2EBC702A6
:104C900061EB577115EB4C254FEA816141EA9211A6
:104CA0004FEA82624FEAD13742EA901206FB07FCD4
:104CB00044F100044FEA80604FEA1C4C0CFB0BF7F8
:104CC000D21B03FB0CF761EB07010CFB0EF7B0EBFB
:104CD000074072EB17420CFB08F734BFA2EB074208
:104CE000B2EB074261EB174115EB1C154FEA81311E
:104CF00041EA92414FEA823242EA90424FEA8030E2
:104D00004FEA0C7644F1000448EA03434EEA0B48AC
:104D10004FF0000EB2EB080C71EB030724BF6246A4
:104D200039464EEB0E0E4FF0000B00185241494130
:104D30004BEB0B0BB2EB080C71EB03077BF1000B99
:104D400024BF624639464EEB0E0E4FF0000B0018A2
:104D5000524149414BEB0B0BB2EB080C71EB0307D3
:104D60007BF1000B24BF624639464EEB0E0E51EA32
:104D7000020718BF46F0010616EB0E7655F1000249
:104D800054F1000103D5BDE88901BDE80088BDE804
:104D90008901BDE80048B619524141EB0101A3F178
:104DA0000103704780807F7E7D7C7B7A797877767F
:104DB00076757473727171706F6E6E6D6C6C6B6AF8
:104DC0006A69686867666665646463636261616096
:104DD000605F5F5E5E5D5D5C5C5B5B5A5A59595813
:104DE000585757565655555554545353525252517D
:104DF000515050504F4F4F4E4E4D4D4D4C4C4C4BD3
:104E00004B4B4A4A4A494949484848474747474619
:104E10004646454545444444444343434342424255
:104E200042414141002B9C4630D477002BD01CB529
:104E30004FEA370703B44FF010004FF01001BAF1FA
:104E4000000F06D0BCF1000FDCBF40F0080040F0BE
:104E500008014FF000000FBCBDE810400BF1010B42
:104E6000BBF1010F08BF5FEA170722BF12F1010271
:104E700011F101014FF0004143F1000300F0004047
:104E800043EA00007047F9D35708D0E746EA0646E0
:104E900013F1400F4FEA16461FDD13F1200FDFBF5D
:104EA00016430A46002120335B42BED0C3F12007DF
:104EB00046EA064602FA07F74FEA164646EA0706AA
:104EC000C3F1200722FA03F201FA07F721FA03F1EE
:104ED0004FF0000342EA0702A7E746EA020646EA65
:104EE00006464FEA164646EA0106BCBF46EA0646B3
:104EF000360C4FF000034FF000024FF0000194E732
:104F00002DE9804C9A46934670B491E8380007C862
:104F100031EA400C48BF34EA430C03D5FFF7E6FD05
:104F2000FFF780FFF0BCBDE8008C2DE9804C9A466D
:104F3000934670B491E8380007C810F0804F08BF5E
:104F400013F0804F03D100F005F8FFF76BFFF0BCC2
:104F5000BDE8008C20F07F4780EA030023F07F4CFF
:104F600007EB0C03A3F57C5300F00040A3F1FE0314
:104F700092F0000F00F0B38095F0000F00F0778002
:104F80002DE901494FEA11404FEA144621EA004851
:104F900000FB06FC24EA064708FB06F607FB08F8B8
:104FA00000FB07F718EB06484CEB164C4FEA124B88
:104FB00018EB07484FEA15464CEB174022EA0B4E18
:104FC0000BFB06FC25EA06470EFB06F607FB0EFE6A
:104FD0000BFB07F71EEB064E4CEB164C4FF0000692
:104FE0001EEB074E4CEB174B18EB0B0840F1000083
:104FF00018EB0E0B58EB000840F100008F1A4FF031
:1050000000013CBFC943661B14BFB5EB040C002173
:105010003CBFC943F61B4FEA17444EEA8E0E27EAFF
:1050200004454FEA1C4704FB07622CEA074C05FBCA
:1050300007F70CFB05F604FB0CFC16EB074642EBEE
:10504000174216EB0C4642EB1C421BEB060658EBD4
:105050000202414146EA9E0601D5BDE80189B61922
:10506000524141EB0101A3F10103BDE801894FEA7F
:1050700014454FEA114724EA054621EA074C05FB8F
:1050800007F406FB07F70CFB06F105FB0CFC11EB24
:10509000074144EB17444FEA124711EB0C4144EB34
:1050A0001C4422EA074C05FB07F206FB07F70CFB42
:1050B00006F605FB0CFC16EB074642EB174216EB17
:1050C0000C4642EB1C456A1854F1000148BF70477A
:1050D000B619524141EB0101A3F10103704795F06C
:1050E000000F37D04FEA11424FEA144721EA024637
:1050F00024EA074C02FB07F106FB07F70CFB06F45A
:1051000002FB0CFC14EB074441EB17414FEA154737
:1051100014EB0C4441EB1C4125EA074C02FB07F55C
:1051200006FB07F70CFB06F602FB0CFC16EB07462A
:1051300045EB174516EB0C4645EB1C42121951F195
:10514000000148BF7047B619524141EB0101A3F17C
:10515000010370474FEA14454FEA114724EA054618
:1051600021EA074C05FB07F106FB07F70CFB06F2EB
:105170004FF0000605FB0CFC12EB074241EB174118
:1051800012EB0C4251EB1C4148BF7047921841EBA7
:105190000101A3F101037047490050EAC12018BF83
:1051A00004204A0D18BF40F0010040F2FF72B2EB3C
:1051B000515F08BF40F00200012808BF052070477A
:1051C0002DE9F74F144694B00021C4E90211159956
:1051D000079121F00045C9498D4206DC1599C4E9C3
:1051E000000117B00020BDE8F08FC549DFF814A317
:1051F000A9423CDD0799C44E0029C44FC44A159901
:10520000534619DD01F084F9554506D0C14AC24B19
:1052100001F07EF9C4E900010AE04FF0D352BE4B21
:1052200001F076F932463B4601F072F9C4E900011B
:1052300017B00120BDE8F08F00F0EAFC554506D01C
:10524000B44AB54B00F0E4FCC4E900010AE04FF0B9
:10525000D352B14B00F0DCFC32463B4600F0D8FCA8
:10526000C4E9000117B04FF0FF30BDE8F08FAB4943
:10527000A942159978DB21F0004183468846A84A67
:10528000A84B00F055FF0022A74B00F0C1FC00F036
:10529000C7FE099000F021FF06460F469C4A534680
:1052A00000F046FF43465A4601F040F880468A46E1
:1052B000984A994B3046394600F03AFF2A0D0125AD
:1052C0000B924246534601F031F8032DC4E9000128
:1052D00039D00B98C1F30A51401A05EB4511113929
:1052E000814230DA9148C346784400EB0510CDF88E
:1052F0000CA00C90D0E900233046394600F018FF8E
:1053000002460B46049106905846039901F000F9B5
:1053100080468A4602460B465846039901F0F8F843
:10532000049B069A01F0F4F883460C9803913946E1
:10533000D0E90223304600F0FBFE5A46039B01F001
:10534000E7F86D1CBDE707980028A2BF099817B0C1
:10535000BDE8F08F616881F000416160099817B085
:105360004042BDE8F08FFFE784461598C1F3130172
:10537000C0F30A50A0F2F5304FEA601800F01F06A3
:10538000C6F12000139000200690079041F4801E83
:1053900005206D4676B1664A08EB00017A4452F862
:1053A000213002EB8101B3404A68139922FA01F1DE
:1053B000194305E05F4908EB0002794451F82210D7
:1053C000A1FB0E27A1FB0C131A449A4234BF012300
:1053D000002303EB070A05EB8003D3E901B70F4471
:1053E0008F4234BF0121002193448B4411B1934576
:1053F00002D903E0934501D2012100E00021C3E975
:1054000001B7514445F82010011EA0F10100C1DC94
:105410000298059F00F10050800F12900298DDE97C
:105420000356800000F059FE834628460D9100F097
:105430006BFE6FF01D0201F089F9CDE90E013046D7
:1054400000F062FE6FF03D0201F080F980468A466E
:10545000384600F059FE6FF05D0201F077F907461B
:1054600042465346119100F0D3FBDDE90E2300F0D4
:10547000CFFB5A460D9B00F0CBFB00250E465A464B
:1054800028460D9B01F044F8DDE90E2301F040F8B9
:105490004246534601F03CF83A46119B00F046FF65
:1054A000DFF898A0244A534600F042FE074688469B
:1054B000234A244B3146284600F03AFE3A464346FA
:1054C00000F0A6FB074688464FF0A84253463146F7
:1054D000284600F02DFE3A46434600F099FB159A07
:1054E00012F0004F04D0129A81F000415242129201
:1054F000C4E90001129817B0BDE8F08FFB21E93F25
:105500007CD90240FB21F93F7370032E8A19A33B1B
:10551000000040543163621A61B4D03DFB2139412F
:1055200083C8C96D305FE43F0000E03FFC15000018
:10553000781500005A150000182D4454FB21F93D40
:105540003326A611460B113C2DE9FF4D21F00048F2
:1055500007460C46B8F1795F08DA00F061FD0028D3
:1055600001BF0020324904B0BDE8F08D3A46234621
:105570001046194600F0DCFD054602462D480E4651
:105580000B460621784400F05DF82A46334600F0C9
:10559000CFFDDDE9022382468B463846214600F0E6
:1055A000C7FD04460F4652465B462846314600F08A
:1055B000BFFD22463B4600F0ABFF07468A464FF050
:1055C000FF322846314601F0C1F81B4A90450ADAFD
:1055D0003A46534600F09CFF04B00022BDE8F04D6F
:1055E000134B00F0A3BE154A4245A8BFA8F500150D
:1055F0004FF00004B8BF124D22462B4600F088FF42
:105600000646884622462B460020094900F080FFC6
:1056100004460D463A4653463046414600F078FF70
:1056200004B022462B46BDE8F04D00F07FBE0000DE
:105630000000F03F301300003333D33F0000E93F58
:105640000000D23F2DE9F0414F1E00EBC701044698
:10565000D1E9000115461E4637F006020DD02A4654
:10566000334600F065FD7F1E04EBC703D3E900233A
:1056700000F0CEFA37F00602F1D1022F25D0042F28
:1056800013D0062F18BFBDE8F0812A46334600F03C
:105690004FFDD4E90A2300F0BBFA2A46334600F056
:1056A00047FDD4E9082300F0B3FA2A46334600F058
:1056B0003FFDD4E9062300F0ABFA2A46334600F05A
:1056C00037FDD4E9042300F0A3FA2A46334600F05C
:1056D0002FFDD4E9022300F09BFA2A46334600F05E
:1056E00027FDD4E90023BDE8F04100F091BA0000A5
:1056F0002DE9FF4D054621F0004084B00C46B0F185
:10570000795F0BDA2846FFF747FD042808BF00F051
:105710006FF8284608B02146BDE8F08D2A460B46B2
:10572000104600F005FD06460F462A46234600F0C7
:10573000FFFC804626488A4632463B46052178448F
:10574000FFF780FF83461098029160B3214A224BF5
:105750004046514600F0ECFCCDE900015A46404677
:105760005146029B00F0E4FC82468846DDE90601D2
:105770004FF0FF3200F0EAFF5246434600F0C8FE09
:1057800032463B4600F0D4FCDDE9062300F0C0FEC3
:10579000DDE9002300F0BCFE08B02A462346BDE840
:1057A000F04D00F0C3BD0B465A463046394600F076
:1057B000BFFC084A084B00F02BFA4246534600F063
:1057C000B7FC08B02A462346BDE8F04D00F020BAE9
:1057D0006E120000495555555555C5BF012200F0C0
:1057E000B5BF002213461046114600F0C1BA0000B2
:1057F000024A0020110700F0A9BF000001FDFFFFD1
:1058000030380A2801D2012070470020704700007C
:105810002DE9F84F04460D4621F0004000917349F0
:10582000814211DC7249884201DC06D12CB120464C
:105830002946BDE8F84FFFF7D1BF6E48002DCCBF19
:105840006D496E49BDE8F88F6D49814211DD6D49A2
:105850008142D8BF4FF0FF366DDD20462946FFF765
:105860009BFC042808BFFFF7C3FF20462946BDE87C
:10587000F88F6549654F25F00045814233DD644965
:10588000814219DD002632464FF0804320462946EA
:1058900000F0BEF980468A4601222046294600F0E3
:1058A00055FF00223B4600F033FE4246534600F0CF
:1058B0005FFA04460D463EE001260022BA463B460A
:1058C0002046294600F0A4F980460F4600225346A0
:1058D0002046294600F01CFE42463B4600F048FAAE
:1058E00004460D4627E04B4981421BDDDFF828A125
:1058F0000226002253462046294600F019FC0022C9
:105900003B4600F085F980460F460022534620466C
:10591000294600F0FDFD42463B4600F029FA0446C8
:105920000D4608E0032622462B4600203B4900F0A6
:105930001FFA04460D4622462B461046194600F033
:10594000F7FB8B46824602460B4600F0F1FB07460A
:105950000246334888460B4606217844FFF772FE1C
:1059600052465B4600F0E4FB82462E488B463A46A0
:10597000434605217844FFF765FE3A46434600F06A
:10598000D7FB02460B46002E504659460CDA00F073
:105990003FF922462B4600F0CBFB01B022462B46B6
:1059A000BDE8F04F00F0C2BC00F032F922462B46B1
:1059B00000F0BEFB1C4A7A4402EBC603D3E9002385
:1059C00000F0A6FD22462B4600F0A2FD174A7A44BD
:1059D00002EBC603D3E9002300F0A8FC009A002ADA
:1059E000B8BF81F00041BDE8F88F0000000010440E
:1059F0000000F07F182D4454FB21F93FFB21F9BF33
:105A00000000DC3F0000203E0000F33F0000F03FBC
:105A10000000E63F008003400000F83F0000F0BFB8
:105A2000E20E0000A00E00003E0E0000060E000078
:105A300000B5244B21F0004287B09A42DCBF00221F
:105A4000134629DD204B9A4208D140B94FF001009E
:105A5000FEF7EAF8FFF7C5FE07B000BD03DBFFF76E
:105A6000BDFE07B000BD02AAFFF7AAFB10F00301BC
:105A700004BF0DF1080C9CE80F000DD00120012996
:105A80000ED0022914D00DF1080C00909CE80F00F4
:105A9000FFF72EFE07B000BDFFF756FD07B000BDB3
:105AA0000DF1080C00909CE80F00FFF721FE05E0C7
:105AB0000DF1080C9CE80F00FFF746FD07B081F0E0
:105AC000004100BDFB21E93F0000F07F00B5254B00
:105AD00021F0004287B09A4203DC00221346009274
